{
	"cryptoErcConcept.sol": {
		"UjjwalCoin": {
			"abi": [
				{
					"inputs": [],
					"stateMutability": "nonpayable",
					"type": "constructor"
				},
				{
					"anonymous": false,
					"inputs": [
						{
							"indexed": true,
							"internalType": "address",
							"name": "_owner",
							"type": "address"
						},
						{
							"indexed": true,
							"internalType": "address",
							"name": "_spender",
							"type": "address"
						},
						{
							"indexed": false,
							"internalType": "uint256",
							"name": "_value",
							"type": "uint256"
						}
					],
					"name": "Approval",
					"type": "event"
				},
				{
					"anonymous": false,
					"inputs": [
						{
							"indexed": true,
							"internalType": "address",
							"name": "_from",
							"type": "address"
						},
						{
							"indexed": true,
							"internalType": "address",
							"name": "_to",
							"type": "address"
						},
						{
							"indexed": false,
							"internalType": "uint256",
							"name": "_value",
							"type": "uint256"
						}
					],
					"name": "Transfer",
					"type": "event"
				},
				{
					"inputs": [
						{
							"internalType": "address",
							"name": "_owner",
							"type": "address"
						},
						{
							"internalType": "address",
							"name": "_spender",
							"type": "address"
						}
					],
					"name": "allowance",
					"outputs": [
						{
							"internalType": "uint256",
							"name": "",
							"type": "uint256"
						}
					],
					"stateMutability": "view",
					"type": "function"
				},
				{
					"inputs": [
						{
							"internalType": "address",
							"name": "_spender",
							"type": "address"
						},
						{
							"internalType": "uint256",
							"name": "_value",
							"type": "uint256"
						}
					],
					"name": "approve",
					"outputs": [
						{
							"internalType": "bool",
							"name": "success",
							"type": "bool"
						}
					],
					"stateMutability": "nonpayable",
					"type": "function"
				},
				{
					"inputs": [
						{
							"internalType": "address",
							"name": "_owner",
							"type": "address"
						}
					],
					"name": "balanceOf",
					"outputs": [
						{
							"internalType": "uint256",
							"name": "balance",
							"type": "uint256"
						}
					],
					"stateMutability": "view",
					"type": "function"
				},
				{
					"inputs": [
						{
							"internalType": "uint256",
							"name": "amount",
							"type": "uint256"
						}
					],
					"name": "burn",
					"outputs": [],
					"stateMutability": "nonpayable",
					"type": "function"
				},
				{
					"inputs": [],
					"name": "decimals",
					"outputs": [
						{
							"internalType": "uint8",
							"name": "",
							"type": "uint8"
						}
					],
					"stateMutability": "view",
					"type": "function"
				},
				{
					"inputs": [
						{
							"internalType": "uint256",
							"name": "amount",
							"type": "uint256"
						}
					],
					"name": "mint",
					"outputs": [],
					"stateMutability": "nonpayable",
					"type": "function"
				},
				{
					"inputs": [],
					"name": "name",
					"outputs": [
						{
							"internalType": "string",
							"name": "",
							"type": "string"
						}
					],
					"stateMutability": "view",
					"type": "function"
				},
				{
					"inputs": [],
					"name": "symbol",
					"outputs": [
						{
							"internalType": "string",
							"name": "",
							"type": "string"
						}
					],
					"stateMutability": "view",
					"type": "function"
				},
				{
					"inputs": [],
					"name": "totalSupply",
					"outputs": [
						{
							"internalType": "uint256",
							"name": "",
							"type": "uint256"
						}
					],
					"stateMutability": "view",
					"type": "function"
				},
				{
					"inputs": [
						{
							"internalType": "address",
							"name": "_to",
							"type": "address"
						},
						{
							"internalType": "uint256",
							"name": "_value",
							"type": "uint256"
						}
					],
					"name": "transfer",
					"outputs": [
						{
							"internalType": "bool",
							"name": "sucess",
							"type": "bool"
						}
					],
					"stateMutability": "nonpayable",
					"type": "function"
				},
				{
					"inputs": [
						{
							"internalType": "address",
							"name": "_from",
							"type": "address"
						},
						{
							"internalType": "address",
							"name": "_to",
							"type": "address"
						},
						{
							"internalType": "uint256",
							"name": "_value",
							"type": "uint256"
						}
					],
					"name": "transferFrom",
					"outputs": [
						{
							"internalType": "bool",
							"name": "success",
							"type": "bool"
						}
					],
					"stateMutability": "nonpayable",
					"type": "function"
				}
			],
			"devdoc": {
				"kind": "dev",
				"methods": {},
				"version": 1
			},
			"evm": {
				"assembly": "    /* \"cryptoErcConcept.sol\":61:4702  contract UjjwalCoin{... */\n  mstore(0x40, 0x80)\n    /* \"cryptoErcConcept.sol\":982:1465  constructor(){... */\n  callvalue\n  dup1\n  iszero\n  tag_1\n  jumpi\n  revert(0x00, 0x00)\ntag_1:\n  pop\n    /* \"cryptoErcConcept.sol\":1014:1024  msg.sender */\n  caller\n    /* \"cryptoErcConcept.sol\":1006:1011  owner */\n  0x01\n  0x00\n    /* \"cryptoErcConcept.sol\":1006:1024  owner = msg.sender */\n  0x0100\n  exp\n  dup2\n  sload\n  dup2\n  0xffffffffffffffffffffffffffffffffffffffff\n  mul\n  not\n  and\n  swap1\n  dup4\n  0xffffffffffffffffffffffffffffffffffffffff\n  and\n  mul\n  or\n  swap1\n  sstore\n  pop\n    /* \"cryptoErcConcept.sol\":1088:1098  msg.sender */\n  caller\n    /* \"cryptoErcConcept.sol\":1067:1105  Transfer(address(0), msg.sender, 1000) */\n  0xffffffffffffffffffffffffffffffffffffffff\n  and\n    /* \"cryptoErcConcept.sol\":1084:1085  0 */\n  0x00\n    /* \"cryptoErcConcept.sol\":1067:1105  Transfer(address(0), msg.sender, 1000) */\n  0xffffffffffffffffffffffffffffffffffffffff\n  and\n  0xddf252ad1be2c89b69c2b068fc378daa952ba7f163c4a11628f55a4df523b3ef\n    /* \"cryptoErcConcept.sol\":1100:1104  1000 */\n  0x03e8\n    /* \"cryptoErcConcept.sol\":1067:1105  Transfer(address(0), msg.sender, 1000) */\n  mload(0x40)\n  tag_4\n  swap2\n  swap1\n  tag_5\n  jump\t// in\ntag_4:\n  mload(0x40)\n  dup1\n  swap2\n  sub\n  swap1\n  log3\n    /* \"cryptoErcConcept.sol\":1217:1221  1000 */\n  0x03e8\n    /* \"cryptoErcConcept.sol\":1194:1202  balances */\n  0x00\n    /* \"cryptoErcConcept.sol\":1194:1214  balances[msg.sender] */\n  0x00\n    /* \"cryptoErcConcept.sol\":1203:1213  msg.sender */\n  caller\n    /* \"cryptoErcConcept.sol\":1194:1214  balances[msg.sender] */\n  0xffffffffffffffffffffffffffffffffffffffff\n  and\n  0xffffffffffffffffffffffffffffffffffffffff\n  and\n  dup2\n  mstore\n  0x20\n  add\n  swap1\n  dup2\n  mstore\n  0x20\n  add\n  0x00\n  keccak256\n    /* \"cryptoErcConcept.sol\":1194:1221  balances[msg.sender] = 1000 */\n  dup2\n  swap1\n  sstore\n  pop\n    /* \"cryptoErcConcept.sol\":1272:1276  1000 */\n  0x03e8\n    /* \"cryptoErcConcept.sol\":1257:1269  _totalSupply */\n  0x02\n    /* \"cryptoErcConcept.sol\":1257:1276  _totalSupply = 1000 */\n  dup2\n  swap1\n  sstore\n  pop\n    /* \"cryptoErcConcept.sol\":1323:1343  _name = \"UjjwalCoin\" */\n  mload(0x40)\n  dup1\n  0x40\n  add\n  0x40\n  mstore\n  dup1\n  0x0a\n  dup2\n  mstore\n  0x20\n  add\n  0x556a6a77616c436f696e00000000000000000000000000000000000000000000\n  dup2\n  mstore\n  pop\n    /* \"cryptoErcConcept.sol\":1323:1328  _name */\n  0x03\n    /* \"cryptoErcConcept.sol\":1323:1343  _name = \"UjjwalCoin\" */\n  swap1\n  dup2\n  tag_6\n  swap2\n  swap1\n  tag_7\n  jump\t// in\ntag_6:\n  pop\n    /* \"cryptoErcConcept.sol\":1370:1385  _symbol = \"UJC\" */\n  mload(0x40)\n  dup1\n  0x40\n  add\n  0x40\n  mstore\n  dup1\n  0x03\n  dup2\n  mstore\n  0x20\n  add\n  0x554a430000000000000000000000000000000000000000000000000000000000\n  dup2\n  mstore\n  pop\n    /* \"cryptoErcConcept.sol\":1370:1377  _symbol */\n  0x04\n    /* \"cryptoErcConcept.sol\":1370:1385  _symbol = \"UJC\" */\n  swap1\n  dup2\n  tag_8\n  swap2\n  swap1\n  tag_7\n  jump\t// in\ntag_8:\n  pop\n    /* \"cryptoErcConcept.sol\":1426:1428  18 */\n  0x12\n    /* \"cryptoErcConcept.sol\":1414:1423  _decimals */\n  0x05\n  0x00\n    /* \"cryptoErcConcept.sol\":1414:1428  _decimals = 18 */\n  0x0100\n  exp\n  dup2\n  sload\n  dup2\n  0xff\n  mul\n  not\n  and\n  swap1\n  dup4\n  0xff\n  and\n  mul\n  or\n  swap1\n  sstore\n  pop\n    /* \"cryptoErcConcept.sol\":61:4702  contract UjjwalCoin{... */\n  jump(tag_9)\n    /* \"#utility.yul\":7:95   */\ntag_10:\n    /* \"#utility.yul\":55:62   */\n  0x00\n    /* \"#utility.yul\":84:89   */\n  dup2\n    /* \"#utility.yul\":73:89   */\n  swap1\n  pop\n    /* \"#utility.yul\":7:95   */\n  swap2\n  swap1\n  pop\n  jump\t// out\n    /* \"#utility.yul\":101:178   */\ntag_11:\n    /* \"#utility.yul\":138:145   */\n  0x00\n    /* \"#utility.yul\":167:172   */\n  dup2\n    /* \"#utility.yul\":156:172   */\n  swap1\n  pop\n    /* \"#utility.yul\":101:178   */\n  swap2\n  swap1\n  pop\n  jump\t// out\n    /* \"#utility.yul\":184:244   */\ntag_12:\n    /* \"#utility.yul\":212:215   */\n  0x00\n    /* \"#utility.yul\":233:238   */\n  dup2\n    /* \"#utility.yul\":226:238   */\n  swap1\n  pop\n    /* \"#utility.yul\":184:244   */\n  swap2\n  swap1\n  pop\n  jump\t// out\n    /* \"#utility.yul\":250:414   */\ntag_13:\n    /* \"#utility.yul\":311:320   */\n  0x00\n    /* \"#utility.yul\":344:408   */\n  tag_38\n    /* \"#utility.yul\":362:407   */\n  tag_39\n    /* \"#utility.yul\":371:406   */\n  tag_40\n    /* \"#utility.yul\":400:405   */\n  dup5\n    /* \"#utility.yul\":371:406   */\n  tag_10\n  jump\t// in\ntag_40:\n    /* \"#utility.yul\":362:407   */\n  tag_12\n  jump\t// in\ntag_39:\n    /* \"#utility.yul\":344:408   */\n  tag_11\n  jump\t// in\ntag_38:\n    /* \"#utility.yul\":331:408   */\n  swap1\n  pop\n    /* \"#utility.yul\":250:414   */\n  swap2\n  swap1\n  pop\n  jump\t// out\n    /* \"#utility.yul\":420:573   */\ntag_14:\n    /* \"#utility.yul\":518:566   */\n  tag_42\n    /* \"#utility.yul\":560:565   */\n  dup2\n    /* \"#utility.yul\":518:566   */\n  tag_13\n  jump\t// in\ntag_42:\n    /* \"#utility.yul\":513:516   */\n  dup3\n    /* \"#utility.yul\":506:567   */\n  mstore\n    /* \"#utility.yul\":420:573   */\n  pop\n  pop\n  jump\t// out\n    /* \"#utility.yul\":579:823   */\ntag_5:\n    /* \"#utility.yul\":683:687   */\n  0x00\n    /* \"#utility.yul\":721:723   */\n  0x20\n    /* \"#utility.yul\":710:719   */\n  dup3\n    /* \"#utility.yul\":706:724   */\n  add\n    /* \"#utility.yul\":698:724   */\n  swap1\n  pop\n    /* \"#utility.yul\":734:816   */\n  tag_44\n    /* \"#utility.yul\":813:814   */\n  0x00\n    /* \"#utility.yul\":802:811   */\n  dup4\n    /* \"#utility.yul\":798:815   */\n  add\n    /* \"#utility.yul\":789:795   */\n  dup5\n    /* \"#utility.yul\":734:816   */\n  tag_14\n  jump\t// in\ntag_44:\n    /* \"#utility.yul\":579:823   */\n  swap3\n  swap2\n  pop\n  pop\n  jump\t// out\n    /* \"#utility.yul\":829:928   */\ntag_15:\n    /* \"#utility.yul\":881:887   */\n  0x00\n    /* \"#utility.yul\":915:920   */\n  dup2\n    /* \"#utility.yul\":909:921   */\n  mload\n    /* \"#utility.yul\":899:921   */\n  swap1\n  pop\n    /* \"#utility.yul\":829:928   */\n  swap2\n  swap1\n  pop\n  jump\t// out\n    /* \"#utility.yul\":934:1114   */\ntag_16:\n    /* \"#utility.yul\":982:1059   */\n  0x4e487b7100000000000000000000000000000000000000000000000000000000\n    /* \"#utility.yul\":979:980   */\n  0x00\n    /* \"#utility.yul\":972:1060   */\n  mstore\n    /* \"#utility.yul\":1079:1083   */\n  0x41\n    /* \"#utility.yul\":1076:1077   */\n  0x04\n    /* \"#utility.yul\":1069:1084   */\n  mstore\n    /* \"#utility.yul\":1103:1107   */\n  0x24\n    /* \"#utility.yul\":1100:1101   */\n  0x00\n    /* \"#utility.yul\":1093:1108   */\n  revert\n    /* \"#utility.yul\":1120:1300   */\ntag_17:\n    /* \"#utility.yul\":1168:1245   */\n  0x4e487b7100000000000000000000000000000000000000000000000000000000\n    /* \"#utility.yul\":1165:1166   */\n  0x00\n    /* \"#utility.yul\":1158:1246   */\n  mstore\n    /* \"#utility.yul\":1265:1269   */\n  0x22\n    /* \"#utility.yul\":1262:1263   */\n  0x04\n    /* \"#utility.yul\":1255:1270   */\n  mstore\n    /* \"#utility.yul\":1289:1293   */\n  0x24\n    /* \"#utility.yul\":1286:1287   */\n  0x00\n    /* \"#utility.yul\":1279:1294   */\n  revert\n    /* \"#utility.yul\":1306:1626   */\ntag_18:\n    /* \"#utility.yul\":1350:1356   */\n  0x00\n    /* \"#utility.yul\":1387:1388   */\n  0x02\n    /* \"#utility.yul\":1381:1385   */\n  dup3\n    /* \"#utility.yul\":1377:1389   */\n  div\n    /* \"#utility.yul\":1367:1389   */\n  swap1\n  pop\n    /* \"#utility.yul\":1434:1435   */\n  0x01\n    /* \"#utility.yul\":1428:1432   */\n  dup3\n    /* \"#utility.yul\":1424:1436   */\n  and\n    /* \"#utility.yul\":1455:1473   */\n  dup1\n    /* \"#utility.yul\":1445:1526   */\n  tag_49\n  jumpi\n    /* \"#utility.yul\":1511:1515   */\n  0x7f\n    /* \"#utility.yul\":1503:1509   */\n  dup3\n    /* \"#utility.yul\":1499:1516   */\n  and\n    /* \"#utility.yul\":1489:1516   */\n  swap2\n  pop\n    /* \"#utility.yul\":1445:1526   */\ntag_49:\n    /* \"#utility.yul\":1573:1575   */\n  0x20\n    /* \"#utility.yul\":1565:1571   */\n  dup3\n    /* \"#utility.yul\":1562:1576   */\n  lt\n    /* \"#utility.yul\":1542:1560   */\n  dup2\n    /* \"#utility.yul\":1539:1577   */\n  sub\n    /* \"#utility.yul\":1536:1620   */\n  tag_50\n  jumpi\n    /* \"#utility.yul\":1592:1610   */\n  tag_51\n  tag_17\n  jump\t// in\ntag_51:\n    /* \"#utility.yul\":1536:1620   */\ntag_50:\n    /* \"#utility.yul\":1357:1626   */\n  pop\n    /* \"#utility.yul\":1306:1626   */\n  swap2\n  swap1\n  pop\n  jump\t// out\n    /* \"#utility.yul\":1632:1773   */\ntag_19:\n    /* \"#utility.yul\":1681:1685   */\n  0x00\n    /* \"#utility.yul\":1704:1707   */\n  dup2\n    /* \"#utility.yul\":1696:1707   */\n  swap1\n  pop\n    /* \"#utility.yul\":1727:1730   */\n  dup2\n    /* \"#utility.yul\":1724:1725   */\n  0x00\n    /* \"#utility.yul\":1717:1731   */\n  mstore\n    /* \"#utility.yul\":1761:1765   */\n  0x20\n    /* \"#utility.yul\":1758:1759   */\n  0x00\n    /* \"#utility.yul\":1748:1766   */\n  keccak256\n    /* \"#utility.yul\":1740:1766   */\n  swap1\n  pop\n    /* \"#utility.yul\":1632:1773   */\n  swap2\n  swap1\n  pop\n  jump\t// out\n    /* \"#utility.yul\":1779:1872   */\ntag_20:\n    /* \"#utility.yul\":1816:1822   */\n  0x00\n    /* \"#utility.yul\":1863:1865   */\n  0x20\n    /* \"#utility.yul\":1858:1860   */\n  0x1f\n    /* \"#utility.yul\":1851:1856   */\n  dup4\n    /* \"#utility.yul\":1847:1861   */\n  add\n    /* \"#utility.yul\":1843:1866   */\n  div\n    /* \"#utility.yul\":1833:1866   */\n  swap1\n  pop\n    /* \"#utility.yul\":1779:1872   */\n  swap2\n  swap1\n  pop\n  jump\t// out\n    /* \"#utility.yul\":1878:1985   */\ntag_21:\n    /* \"#utility.yul\":1922:1930   */\n  0x00\n    /* \"#utility.yul\":1972:1977   */\n  dup3\n    /* \"#utility.yul\":1966:1970   */\n  dup3\n    /* \"#utility.yul\":1962:1978   */\n  shl\n    /* \"#utility.yul\":1941:1978   */\n  swap1\n  pop\n    /* \"#utility.yul\":1878:1985   */\n  swap3\n  swap2\n  pop\n  pop\n  jump\t// out\n    /* \"#utility.yul\":1991:2384   */\ntag_22:\n    /* \"#utility.yul\":2060:2066   */\n  0x00\n    /* \"#utility.yul\":2110:2111   */\n  0x08\n    /* \"#utility.yul\":2098:2108   */\n  dup4\n    /* \"#utility.yul\":2094:2112   */\n  mul\n    /* \"#utility.yul\":2133:2230   */\n  tag_56\n    /* \"#utility.yul\":2163:2229   */\n  0xffffffffffffffffffffffffffffffffffffffffffffffffffffffffffffffff\n    /* \"#utility.yul\":2152:2161   */\n  dup3\n    /* \"#utility.yul\":2133:2230   */\n  tag_21\n  jump\t// in\ntag_56:\n    /* \"#utility.yul\":2251:2290   */\n  tag_57\n    /* \"#utility.yul\":2281:2289   */\n  dup7\n    /* \"#utility.yul\":2270:2279   */\n  dup4\n    /* \"#utility.yul\":2251:2290   */\n  tag_21\n  jump\t// in\ntag_57:\n    /* \"#utility.yul\":2239:2290   */\n  swap6\n  pop\n    /* \"#utility.yul\":2323:2327   */\n  dup1\n    /* \"#utility.yul\":2319:2328   */\n  not\n    /* \"#utility.yul\":2312:2317   */\n  dup5\n    /* \"#utility.yul\":2308:2329   */\n  and\n    /* \"#utility.yul\":2299:2329   */\n  swap4\n  pop\n    /* \"#utility.yul\":2372:2376   */\n  dup1\n    /* \"#utility.yul\":2362:2370   */\n  dup7\n    /* \"#utility.yul\":2358:2377   */\n  and\n    /* \"#utility.yul\":2351:2356   */\n  dup5\n    /* \"#utility.yul\":2348:2378   */\n  or\n    /* \"#utility.yul\":2338:2378   */\n  swap3\n  pop\n    /* \"#utility.yul\":2067:2384   */\n  pop\n  pop\n    /* \"#utility.yul\":1991:2384   */\n  swap4\n  swap3\n  pop\n  pop\n  pop\n  jump\t// out\n    /* \"#utility.yul\":2390:2532   */\ntag_23:\n    /* \"#utility.yul\":2440:2449   */\n  0x00\n    /* \"#utility.yul\":2473:2526   */\n  tag_59\n    /* \"#utility.yul\":2491:2525   */\n  tag_60\n    /* \"#utility.yul\":2500:2524   */\n  tag_61\n    /* \"#utility.yul\":2518:2523   */\n  dup5\n    /* \"#utility.yul\":2500:2524   */\n  tag_11\n  jump\t// in\ntag_61:\n    /* \"#utility.yul\":2491:2525   */\n  tag_12\n  jump\t// in\ntag_60:\n    /* \"#utility.yul\":2473:2526   */\n  tag_11\n  jump\t// in\ntag_59:\n    /* \"#utility.yul\":2460:2526   */\n  swap1\n  pop\n    /* \"#utility.yul\":2390:2532   */\n  swap2\n  swap1\n  pop\n  jump\t// out\n    /* \"#utility.yul\":2538:2613   */\ntag_24:\n    /* \"#utility.yul\":2581:2584   */\n  0x00\n    /* \"#utility.yul\":2602:2607   */\n  dup2\n    /* \"#utility.yul\":2595:2607   */\n  swap1\n  pop\n    /* \"#utility.yul\":2538:2613   */\n  swap2\n  swap1\n  pop\n  jump\t// out\n    /* \"#utility.yul\":2619:2888   */\ntag_25:\n    /* \"#utility.yul\":2729:2768   */\n  tag_64\n    /* \"#utility.yul\":2760:2767   */\n  dup4\n    /* \"#utility.yul\":2729:2768   */\n  tag_23\n  jump\t// in\ntag_64:\n    /* \"#utility.yul\":2790:2881   */\n  tag_65\n    /* \"#utility.yul\":2839:2880   */\n  tag_66\n    /* \"#utility.yul\":2863:2879   */\n  dup3\n    /* \"#utility.yul\":2839:2880   */\n  tag_24\n  jump\t// in\ntag_66:\n    /* \"#utility.yul\":2831:2837   */\n  dup5\n    /* \"#utility.yul\":2824:2828   */\n  dup5\n    /* \"#utility.yul\":2818:2829   */\n  sload\n    /* \"#utility.yul\":2790:2881   */\n  tag_22\n  jump\t// in\ntag_65:\n    /* \"#utility.yul\":2784:2788   */\n  dup3\n    /* \"#utility.yul\":2777:2882   */\n  sstore\n    /* \"#utility.yul\":2695:2888   */\n  pop\n    /* \"#utility.yul\":2619:2888   */\n  pop\n  pop\n  pop\n  jump\t// out\n    /* \"#utility.yul\":2894:2967   */\ntag_26:\n    /* \"#utility.yul\":2939:2942   */\n  0x00\n    /* \"#utility.yul\":2960:2961   */\n  0x00\n    /* \"#utility.yul\":2953:2961   */\n  swap1\n  pop\n    /* \"#utility.yul\":2894:2967   */\n  swap1\n  jump\t// out\n    /* \"#utility.yul\":2973:3162   */\ntag_27:\n    /* \"#utility.yul\":3050:3082   */\n  tag_69\n  tag_26\n  jump\t// in\ntag_69:\n    /* \"#utility.yul\":3091:3156   */\n  tag_70\n    /* \"#utility.yul\":3149:3155   */\n  dup2\n    /* \"#utility.yul\":3141:3147   */\n  dup5\n    /* \"#utility.yul\":3135:3139   */\n  dup5\n    /* \"#utility.yul\":3091:3156   */\n  tag_25\n  jump\t// in\ntag_70:\n    /* \"#utility.yul\":3026:3162   */\n  pop\n    /* \"#utility.yul\":2973:3162   */\n  pop\n  pop\n  jump\t// out\n    /* \"#utility.yul\":3168:3354   */\ntag_28:\n    /* \"#utility.yul\":3228:3348   */\ntag_72:\n    /* \"#utility.yul\":3245:3248   */\n  dup2\n    /* \"#utility.yul\":3238:3243   */\n  dup2\n    /* \"#utility.yul\":3235:3249   */\n  lt\n    /* \"#utility.yul\":3228:3348   */\n  iszero\n  tag_74\n  jumpi\n    /* \"#utility.yul\":3299:3338   */\n  tag_75\n    /* \"#utility.yul\":3336:3337   */\n  0x00\n    /* \"#utility.yul\":3329:3334   */\n  dup3\n    /* \"#utility.yul\":3299:3338   */\n  tag_27\n  jump\t// in\ntag_75:\n    /* \"#utility.yul\":3272:3273   */\n  0x01\n    /* \"#utility.yul\":3265:3270   */\n  dup2\n    /* \"#utility.yul\":3261:3274   */\n  add\n    /* \"#utility.yul\":3252:3274   */\n  swap1\n  pop\n    /* \"#utility.yul\":3228:3348   */\n  jump(tag_72)\ntag_74:\n    /* \"#utility.yul\":3168:3354   */\n  pop\n  pop\n  jump\t// out\n    /* \"#utility.yul\":3360:3903   */\ntag_29:\n    /* \"#utility.yul\":3461:3463   */\n  0x1f\n    /* \"#utility.yul\":3456:3459   */\n  dup3\n    /* \"#utility.yul\":3453:3464   */\n  gt\n    /* \"#utility.yul\":3450:3896   */\n  iszero\n  tag_77\n  jumpi\n    /* \"#utility.yul\":3495:3533   */\n  tag_78\n    /* \"#utility.yul\":3527:3532   */\n  dup2\n    /* \"#utility.yul\":3495:3533   */\n  tag_19\n  jump\t// in\ntag_78:\n    /* \"#utility.yul\":3579:3608   */\n  tag_79\n    /* \"#utility.yul\":3597:3607   */\n  dup5\n    /* \"#utility.yul\":3579:3608   */\n  tag_20\n  jump\t// in\ntag_79:\n    /* \"#utility.yul\":3569:3577   */\n  dup2\n    /* \"#utility.yul\":3565:3609   */\n  add\n    /* \"#utility.yul\":3762:3764   */\n  0x20\n    /* \"#utility.yul\":3750:3760   */\n  dup6\n    /* \"#utility.yul\":3747:3765   */\n  lt\n    /* \"#utility.yul\":3744:3793   */\n  iszero\n  tag_80\n  jumpi\n    /* \"#utility.yul\":3783:3791   */\n  dup2\n    /* \"#utility.yul\":3768:3791   */\n  swap1\n  pop\n    /* \"#utility.yul\":3744:3793   */\ntag_80:\n    /* \"#utility.yul\":3806:3886   */\n  tag_81\n    /* \"#utility.yul\":3862:3884   */\n  tag_82\n    /* \"#utility.yul\":3880:3883   */\n  dup6\n    /* \"#utility.yul\":3862:3884   */\n  tag_20\n  jump\t// in\ntag_82:\n    /* \"#utility.yul\":3852:3860   */\n  dup4\n    /* \"#utility.yul\":3848:3885   */\n  add\n    /* \"#utility.yul\":3835:3846   */\n  dup3\n    /* \"#utility.yul\":3806:3886   */\n  tag_28\n  jump\t// in\ntag_81:\n    /* \"#utility.yul\":3465:3896   */\n  pop\n  pop\n    /* \"#utility.yul\":3450:3896   */\ntag_77:\n    /* \"#utility.yul\":3360:3903   */\n  pop\n  pop\n  pop\n  jump\t// out\n    /* \"#utility.yul\":3909:4026   */\ntag_30:\n    /* \"#utility.yul\":3963:3971   */\n  0x00\n    /* \"#utility.yul\":4013:4018   */\n  dup3\n    /* \"#utility.yul\":4007:4011   */\n  dup3\n    /* \"#utility.yul\":4003:4019   */\n  shr\n    /* \"#utility.yul\":3982:4019   */\n  swap1\n  pop\n    /* \"#utility.yul\":3909:4026   */\n  swap3\n  swap2\n  pop\n  pop\n  jump\t// out\n    /* \"#utility.yul\":4032:4201   */\ntag_31:\n    /* \"#utility.yul\":4076:4082   */\n  0x00\n    /* \"#utility.yul\":4109:4160   */\n  tag_85\n    /* \"#utility.yul\":4157:4158   */\n  0x00\n    /* \"#utility.yul\":4153:4159   */\n  not\n    /* \"#utility.yul\":4145:4150   */\n  dup5\n    /* \"#utility.yul\":4142:4143   */\n  0x08\n    /* \"#utility.yul\":4138:4151   */\n  mul\n    /* \"#utility.yul\":4109:4160   */\n  tag_30\n  jump\t// in\ntag_85:\n    /* \"#utility.yul\":4105:4161   */\n  not\n    /* \"#utility.yul\":4190:4194   */\n  dup1\n    /* \"#utility.yul\":4184:4188   */\n  dup4\n    /* \"#utility.yul\":4180:4195   */\n  and\n    /* \"#utility.yul\":4170:4195   */\n  swap2\n  pop\n    /* \"#utility.yul\":4083:4201   */\n  pop\n    /* \"#utility.yul\":4032:4201   */\n  swap3\n  swap2\n  pop\n  pop\n  jump\t// out\n    /* \"#utility.yul\":4206:4501   */\ntag_32:\n    /* \"#utility.yul\":4282:4286   */\n  0x00\n    /* \"#utility.yul\":4428:4457   */\n  tag_87\n    /* \"#utility.yul\":4453:4456   */\n  dup4\n    /* \"#utility.yul\":4447:4451   */\n  dup4\n    /* \"#utility.yul\":4428:4457   */\n  tag_31\n  jump\t// in\ntag_87:\n    /* \"#utility.yul\":4420:4457   */\n  swap2\n  pop\n    /* \"#utility.yul\":4490:4493   */\n  dup3\n    /* \"#utility.yul\":4487:4488   */\n  0x02\n    /* \"#utility.yul\":4483:4494   */\n  mul\n    /* \"#utility.yul\":4477:4481   */\n  dup3\n    /* \"#utility.yul\":4474:4495   */\n  or\n    /* \"#utility.yul\":4466:4495   */\n  swap1\n  pop\n    /* \"#utility.yul\":4206:4501   */\n  swap3\n  swap2\n  pop\n  pop\n  jump\t// out\n    /* \"#utility.yul\":4506:5901   */\ntag_7:\n    /* \"#utility.yul\":4623:4660   */\n  tag_89\n    /* \"#utility.yul\":4656:4659   */\n  dup3\n    /* \"#utility.yul\":4623:4660   */\n  tag_15\n  jump\t// in\ntag_89:\n    /* \"#utility.yul\":4725:4743   */\n  0xffffffffffffffff\n    /* \"#utility.yul\":4717:4723   */\n  dup2\n    /* \"#utility.yul\":4714:4744   */\n  gt\n    /* \"#utility.yul\":4711:4767   */\n  iszero\n  tag_90\n  jumpi\n    /* \"#utility.yul\":4747:4765   */\n  tag_91\n  tag_16\n  jump\t// in\ntag_91:\n    /* \"#utility.yul\":4711:4767   */\ntag_90:\n    /* \"#utility.yul\":4791:4829   */\n  tag_92\n    /* \"#utility.yul\":4823:4827   */\n  dup3\n    /* \"#utility.yul\":4817:4828   */\n  sload\n    /* \"#utility.yul\":4791:4829   */\n  tag_18\n  jump\t// in\ntag_92:\n    /* \"#utility.yul\":4876:4943   */\n  tag_93\n    /* \"#utility.yul\":4936:4942   */\n  dup3\n    /* \"#utility.yul\":4928:4934   */\n  dup3\n    /* \"#utility.yul\":4922:4926   */\n  dup6\n    /* \"#utility.yul\":4876:4943   */\n  tag_29\n  jump\t// in\ntag_93:\n    /* \"#utility.yul\":4970:4971   */\n  0x00\n    /* \"#utility.yul\":4994:4998   */\n  0x20\n    /* \"#utility.yul\":4981:4998   */\n  swap1\n  pop\n    /* \"#utility.yul\":5026:5028   */\n  0x1f\n    /* \"#utility.yul\":5018:5024   */\n  dup4\n    /* \"#utility.yul\":5015:5029   */\n  gt\n    /* \"#utility.yul\":5043:5044   */\n  0x01\n    /* \"#utility.yul\":5038:5656   */\n  dup2\n  eq\n  tag_95\n  jumpi\n    /* \"#utility.yul\":5700:5701   */\n  0x00\n    /* \"#utility.yul\":5717:5723   */\n  dup5\n    /* \"#utility.yul\":5714:5791   */\n  iszero\n  tag_96\n  jumpi\n    /* \"#utility.yul\":5766:5775   */\n  dup3\n    /* \"#utility.yul\":5761:5764   */\n  dup8\n    /* \"#utility.yul\":5757:5776   */\n  add\n    /* \"#utility.yul\":5751:5777   */\n  mload\n    /* \"#utility.yul\":5742:5777   */\n  swap1\n  pop\n    /* \"#utility.yul\":5714:5791   */\ntag_96:\n    /* \"#utility.yul\":5817:5884   */\n  tag_97\n    /* \"#utility.yul\":5877:5883   */\n  dup6\n    /* \"#utility.yul\":5870:5875   */\n  dup3\n    /* \"#utility.yul\":5817:5884   */\n  tag_32\n  jump\t// in\ntag_97:\n    /* \"#utility.yul\":5811:5815   */\n  dup7\n    /* \"#utility.yul\":5804:5885   */\n  sstore\n    /* \"#utility.yul\":5673:5895   */\n  pop\n    /* \"#utility.yul\":5008:5895   */\n  jump(tag_94)\n    /* \"#utility.yul\":5038:5656   */\ntag_95:\n    /* \"#utility.yul\":5090:5094   */\n  0x1f\n    /* \"#utility.yul\":5086:5095   */\n  not\n    /* \"#utility.yul\":5078:5084   */\n  dup5\n    /* \"#utility.yul\":5074:5096   */\n  and\n    /* \"#utility.yul\":5124:5161   */\n  tag_98\n    /* \"#utility.yul\":5156:5160   */\n  dup7\n    /* \"#utility.yul\":5124:5161   */\n  tag_19\n  jump\t// in\ntag_98:\n    /* \"#utility.yul\":5183:5184   */\n  0x00\n    /* \"#utility.yul\":5197:5405   */\ntag_99:\n    /* \"#utility.yul\":5211:5218   */\n  dup3\n    /* \"#utility.yul\":5208:5209   */\n  dup2\n    /* \"#utility.yul\":5205:5219   */\n  lt\n    /* \"#utility.yul\":5197:5405   */\n  iszero\n  tag_101\n  jumpi\n    /* \"#utility.yul\":5290:5299   */\n  dup5\n    /* \"#utility.yul\":5285:5288   */\n  dup10\n    /* \"#utility.yul\":5281:5300   */\n  add\n    /* \"#utility.yul\":5275:5301   */\n  mload\n    /* \"#utility.yul\":5267:5273   */\n  dup3\n    /* \"#utility.yul\":5260:5302   */\n  sstore\n    /* \"#utility.yul\":5341:5342   */\n  0x01\n    /* \"#utility.yul\":5333:5339   */\n  dup3\n    /* \"#utility.yul\":5329:5343   */\n  add\n    /* \"#utility.yul\":5319:5343   */\n  swap2\n  pop\n    /* \"#utility.yul\":5388:5390   */\n  0x20\n    /* \"#utility.yul\":5377:5386   */\n  dup6\n    /* \"#utility.yul\":5373:5391   */\n  add\n    /* \"#utility.yul\":5360:5391   */\n  swap5\n  pop\n    /* \"#utility.yul\":5234:5238   */\n  0x20\n    /* \"#utility.yul\":5231:5232   */\n  dup2\n    /* \"#utility.yul\":5227:5239   */\n  add\n    /* \"#utility.yul\":5222:5239   */\n  swap1\n  pop\n    /* \"#utility.yul\":5197:5405   */\n  jump(tag_99)\ntag_101:\n    /* \"#utility.yul\":5433:5439   */\n  dup7\n    /* \"#utility.yul\":5424:5431   */\n  dup4\n    /* \"#utility.yul\":5421:5440   */\n  lt\n    /* \"#utility.yul\":5418:5597   */\n  iszero\n  tag_102\n  jumpi\n    /* \"#utility.yul\":5491:5500   */\n  dup5\n    /* \"#utility.yul\":5486:5489   */\n  dup10\n    /* \"#utility.yul\":5482:5501   */\n  add\n    /* \"#utility.yul\":5476:5502   */\n  mload\n    /* \"#utility.yul\":5534:5582   */\n  tag_103\n    /* \"#utility.yul\":5576:5580   */\n  0x1f\n    /* \"#utility.yul\":5568:5574   */\n  dup10\n    /* \"#utility.yul\":5564:5581   */\n  and\n    /* \"#utility.yul\":5553:5562   */\n  dup3\n    /* \"#utility.yul\":5534:5582   */\n  tag_31\n  jump\t// in\ntag_103:\n    /* \"#utility.yul\":5526:5532   */\n  dup4\n    /* \"#utility.yul\":5519:5583   */\n  sstore\n    /* \"#utility.yul\":5441:5597   */\n  pop\n    /* \"#utility.yul\":5418:5597   */\ntag_102:\n    /* \"#utility.yul\":5643:5644   */\n  0x01\n    /* \"#utility.yul\":5639:5640   */\n  0x02\n    /* \"#utility.yul\":5631:5637   */\n  dup9\n    /* \"#utility.yul\":5627:5641   */\n  mul\n    /* \"#utility.yul\":5623:5645   */\n  add\n    /* \"#utility.yul\":5617:5621   */\n  dup9\n    /* \"#utility.yul\":5610:5646   */\n  sstore\n    /* \"#utility.yul\":5045:5656   */\n  pop\n  pop\n  pop\n    /* \"#utility.yul\":5008:5895   */\ntag_94:\n  pop\n    /* \"#utility.yul\":4598:5901   */\n  pop\n  pop\n  pop\n    /* \"#utility.yul\":4506:5901   */\n  pop\n  pop\n  jump\t// out\n    /* \"cryptoErcConcept.sol\":61:4702  contract UjjwalCoin{... */\ntag_9:\n  dataSize(sub_0)\n  dup1\n  dataOffset(sub_0)\n  0x00\n  codecopy\n  0x00\n  return\nstop\n\nsub_0: assembly {\n        /* \"cryptoErcConcept.sol\":61:4702  contract UjjwalCoin{... */\n      mstore(0x40, 0x80)\n      callvalue\n      dup1\n      iszero\n      tag_1\n      jumpi\n      revert(0x00, 0x00)\n    tag_1:\n      pop\n      jumpi(tag_2, lt(calldatasize, 0x04))\n      shr(0xe0, calldataload(0x00))\n      dup1\n      0x42966c68\n      gt\n      tag_14\n      jumpi\n      dup1\n      0x42966c68\n      eq\n      tag_8\n      jumpi\n      dup1\n      0x70a08231\n      eq\n      tag_9\n      jumpi\n      dup1\n      0x95d89b41\n      eq\n      tag_10\n      jumpi\n      dup1\n      0xa0712d68\n      eq\n      tag_11\n      jumpi\n      dup1\n      0xa9059cbb\n      eq\n      tag_12\n      jumpi\n      dup1\n      0xdd62ed3e\n      eq\n      tag_13\n      jumpi\n      jump(tag_2)\n    tag_14:\n      dup1\n      0x06fdde03\n      eq\n      tag_3\n      jumpi\n      dup1\n      0x095ea7b3\n      eq\n      tag_4\n      jumpi\n      dup1\n      0x18160ddd\n      eq\n      tag_5\n      jumpi\n      dup1\n      0x23b872dd\n      eq\n      tag_6\n      jumpi\n      dup1\n      0x313ce567\n      eq\n      tag_7\n      jumpi\n    tag_2:\n      revert(0x00, 0x00)\n        /* \"cryptoErcConcept.sol\":1501:1583  function name() public view returns (string memory){... */\n    tag_3:\n      tag_15\n      tag_16\n      jump\t// in\n    tag_15:\n      mload(0x40)\n      tag_17\n      swap2\n      swap1\n      tag_18\n      jump\t// in\n    tag_17:\n      mload(0x40)\n      dup1\n      swap2\n      sub\n      swap1\n      return\n        /* \"cryptoErcConcept.sol\":3924:4459  function approve(address _spender, uint256 _value) public returns (bool success) {... */\n    tag_4:\n      tag_19\n      0x04\n      dup1\n      calldatasize\n      sub\n      dup2\n      add\n      swap1\n      tag_20\n      swap2\n      swap1\n      tag_21\n      jump\t// in\n    tag_20:\n      tag_22\n      jump\t// in\n    tag_19:\n      mload(0x40)\n      tag_23\n      swap2\n      swap1\n      tag_24\n      jump\t// in\n    tag_23:\n      mload(0x40)\n      dup1\n      swap2\n      sub\n      swap1\n      return\n        /* \"cryptoErcConcept.sol\":1787:1877  function totalSupply() public view returns (uint256){... */\n    tag_5:\n      tag_25\n      tag_26\n      jump\t// in\n    tag_25:\n      mload(0x40)\n      tag_27\n      swap2\n      swap1\n      tag_28\n      jump\t// in\n    tag_27:\n      mload(0x40)\n      dup1\n      swap2\n      sub\n      swap1\n      return\n        /* \"cryptoErcConcept.sol\":3184:3915  function transferFrom(address _from, address _to , uint256 _value )public returns (bool success){... */\n    tag_6:\n      tag_29\n      0x04\n      dup1\n      calldatasize\n      sub\n      dup2\n      add\n      swap1\n      tag_30\n      swap2\n      swap1\n      tag_31\n      jump\t// in\n    tag_30:\n      tag_32\n      jump\t// in\n    tag_29:\n      mload(0x40)\n      tag_33\n      swap2\n      swap1\n      tag_24\n      jump\t// in\n    tag_33:\n      mload(0x40)\n      dup1\n      swap2\n      sub\n      swap1\n      return\n        /* \"cryptoErcConcept.sol\":1681:1763  function decimals() public view returns (uint8){... */\n    tag_7:\n      tag_34\n      tag_35\n      jump\t// in\n    tag_34:\n      mload(0x40)\n      tag_36\n      swap2\n      swap1\n      tag_37\n      jump\t// in\n    tag_36:\n      mload(0x40)\n      dup1\n      swap2\n      sub\n      swap1\n      return\n        /* \"cryptoErcConcept.sol\":1889:2066  function burn(uint amount) public onlyOwner{... */\n    tag_8:\n      tag_38\n      0x04\n      dup1\n      calldatasize\n      sub\n      dup2\n      add\n      swap1\n      tag_39\n      swap2\n      swap1\n      tag_40\n      jump\t// in\n    tag_39:\n      tag_41\n      jump\t// in\n    tag_38:\n      stop\n        /* \"cryptoErcConcept.sol\":2096:2201  function balanceOf(address _owner) public view returns(uint256 balance){... */\n    tag_9:\n      tag_42\n      0x04\n      dup1\n      calldatasize\n      sub\n      dup2\n      add\n      swap1\n      tag_43\n      swap2\n      swap1\n      tag_44\n      jump\t// in\n    tag_43:\n      tag_45\n      jump\t// in\n    tag_42:\n      mload(0x40)\n      tag_46\n      swap2\n      swap1\n      tag_28\n      jump\t// in\n    tag_46:\n      mload(0x40)\n      dup1\n      swap2\n      sub\n      swap1\n      return\n        /* \"cryptoErcConcept.sol\":1589:1675  function symbol() public view returns (string memory){... */\n    tag_10:\n      tag_47\n      tag_48\n      jump\t// in\n    tag_47:\n      mload(0x40)\n      tag_49\n      swap2\n      swap1\n      tag_18\n      jump\t// in\n    tag_49:\n      mload(0x40)\n      dup1\n      swap2\n      sub\n      swap1\n      return\n        /* \"cryptoErcConcept.sol\":2273:2517  function mint(uint amount) public onlyOwner{... */\n    tag_11:\n      tag_50\n      0x04\n      dup1\n      calldatasize\n      sub\n      dup2\n      add\n      swap1\n      tag_51\n      swap2\n      swap1\n      tag_40\n      jump\t// in\n    tag_51:\n      tag_52\n      jump\t// in\n    tag_50:\n      stop\n        /* \"cryptoErcConcept.sol\":2560:3175  function transfer(address _to, uint256 _value) public returns (bool sucess) {... */\n    tag_12:\n      tag_53\n      0x04\n      dup1\n      calldatasize\n      sub\n      dup2\n      add\n      swap1\n      tag_54\n      swap2\n      swap1\n      tag_21\n      jump\t// in\n    tag_54:\n      tag_55\n      jump\t// in\n    tag_53:\n      mload(0x40)\n      tag_56\n      swap2\n      swap1\n      tag_24\n      jump\t// in\n    tag_56:\n      mload(0x40)\n      dup1\n      swap2\n      sub\n      swap1\n      return\n        /* \"cryptoErcConcept.sol\":4558:4692  function allowance(address _owner, address _spender) public view returns (uint256) {... */\n    tag_13:\n      tag_57\n      0x04\n      dup1\n      calldatasize\n      sub\n      dup2\n      add\n      swap1\n      tag_58\n      swap2\n      swap1\n      tag_59\n      jump\t// in\n    tag_58:\n      tag_60\n      jump\t// in\n    tag_57:\n      mload(0x40)\n      tag_61\n      swap2\n      swap1\n      tag_28\n      jump\t// in\n    tag_61:\n      mload(0x40)\n      dup1\n      swap2\n      sub\n      swap1\n      return\n        /* \"cryptoErcConcept.sol\":1501:1583  function name() public view returns (string memory){... */\n    tag_16:\n        /* \"cryptoErcConcept.sol\":1538:1551  string memory */\n      0x60\n        /* \"cryptoErcConcept.sol\":1570:1575  _name */\n      0x03\n        /* \"cryptoErcConcept.sol\":1563:1575  return _name */\n      dup1\n      sload\n      tag_63\n      swap1\n      tag_64\n      jump\t// in\n    tag_63:\n      dup1\n      0x1f\n      add\n      0x20\n      dup1\n      swap2\n      div\n      mul\n      0x20\n      add\n      mload(0x40)\n      swap1\n      dup2\n      add\n      0x40\n      mstore\n      dup1\n      swap3\n      swap2\n      swap1\n      dup2\n      dup2\n      mstore\n      0x20\n      add\n      dup3\n      dup1\n      sload\n      tag_65\n      swap1\n      tag_64\n      jump\t// in\n    tag_65:\n      dup1\n      iszero\n      tag_66\n      jumpi\n      dup1\n      0x1f\n      lt\n      tag_67\n      jumpi\n      0x0100\n      dup1\n      dup4\n      sload\n      div\n      mul\n      dup4\n      mstore\n      swap2\n      0x20\n      add\n      swap2\n      jump(tag_66)\n    tag_67:\n      dup3\n      add\n      swap2\n      swap1\n      0x00\n      mstore\n      keccak256(0x00, 0x20)\n      swap1\n    tag_68:\n      dup2\n      sload\n      dup2\n      mstore\n      swap1\n      0x01\n      add\n      swap1\n      0x20\n      add\n      dup1\n      dup4\n      gt\n      tag_68\n      jumpi\n      dup3\n      swap1\n      sub\n      0x1f\n      and\n      dup3\n      add\n      swap2\n    tag_66:\n      pop\n      pop\n      pop\n      pop\n      pop\n      swap1\n      pop\n        /* \"cryptoErcConcept.sol\":1501:1583  function name() public view returns (string memory){... */\n      swap1\n      jump\t// out\n        /* \"cryptoErcConcept.sol\":3924:4459  function approve(address _spender, uint256 _value) public returns (bool success) {... */\n    tag_22:\n        /* \"cryptoErcConcept.sol\":3991:4003  bool success */\n      0x00\n        /* \"cryptoErcConcept.sol\":4038:4046  _spender */\n      dup3\n        /* \"cryptoErcConcept.sol\":4023:4046  address(0) !=  _spender */\n      0xffffffffffffffffffffffffffffffffffffffff\n      and\n        /* \"cryptoErcConcept.sol\":4031:4032  0 */\n      0x00\n        /* \"cryptoErcConcept.sol\":4023:4046  address(0) !=  _spender */\n      0xffffffffffffffffffffffffffffffffffffffff\n      and\n      sub\n        /* \"cryptoErcConcept.sol\":4015:4066  require(address(0) !=  _spender, \"Invalid address\") */\n      tag_70\n      jumpi\n      mload(0x40)\n      0x08c379a000000000000000000000000000000000000000000000000000000000\n      dup2\n      mstore\n      0x04\n      add\n      tag_71\n      swap1\n      tag_72\n      jump\t// in\n    tag_71:\n      mload(0x40)\n      dup1\n      swap2\n      sub\n      swap1\n      revert\n    tag_70:\n        /* \"cryptoErcConcept.sol\":4194:4200  _value */\n      dup2\n        /* \"cryptoErcConcept.sol\":4170:4178  balances */\n      0x00\n        /* \"cryptoErcConcept.sol\":4170:4190  balances[msg.sender] */\n      0x00\n        /* \"cryptoErcConcept.sol\":4179:4189  msg.sender */\n      caller\n        /* \"cryptoErcConcept.sol\":4170:4190  balances[msg.sender] */\n      0xffffffffffffffffffffffffffffffffffffffff\n      and\n      0xffffffffffffffffffffffffffffffffffffffff\n      and\n      dup2\n      mstore\n      0x20\n      add\n      swap1\n      dup2\n      mstore\n      0x20\n      add\n      0x00\n      keccak256\n      sload\n        /* \"cryptoErcConcept.sol\":4170:4200  balances[msg.sender] >= _value */\n      lt\n      iszero\n        /* \"cryptoErcConcept.sol\":4162:4225  require(balances[msg.sender] >= _value, \"Insufficient balance\") */\n      tag_73\n      jumpi\n      mload(0x40)\n      0x08c379a000000000000000000000000000000000000000000000000000000000\n      dup2\n      mstore\n      0x04\n      add\n      tag_74\n      swap1\n      tag_75\n      jump\t// in\n    tag_74:\n      mload(0x40)\n      dup1\n      swap2\n      sub\n      swap1\n      revert\n    tag_73:\n        /* \"cryptoErcConcept.sol\":4268:4274  _value */\n      dup2\n        /* \"cryptoErcConcept.sol\":4236:4243  allowed */\n      0x06\n        /* \"cryptoErcConcept.sol\":4236:4255  allowed[msg.sender] */\n      0x00\n        /* \"cryptoErcConcept.sol\":4244:4254  msg.sender */\n      caller\n        /* \"cryptoErcConcept.sol\":4236:4255  allowed[msg.sender] */\n      0xffffffffffffffffffffffffffffffffffffffff\n      and\n      0xffffffffffffffffffffffffffffffffffffffff\n      and\n      dup2\n      mstore\n      0x20\n      add\n      swap1\n      dup2\n      mstore\n      0x20\n      add\n      0x00\n      keccak256\n        /* \"cryptoErcConcept.sol\":4236:4265  allowed[msg.sender][_spender] */\n      0x00\n        /* \"cryptoErcConcept.sol\":4256:4264  _spender */\n      dup6\n        /* \"cryptoErcConcept.sol\":4236:4265  allowed[msg.sender][_spender] */\n      0xffffffffffffffffffffffffffffffffffffffff\n      and\n      0xffffffffffffffffffffffffffffffffffffffff\n      and\n      dup2\n      mstore\n      0x20\n      add\n      swap1\n      dup2\n      mstore\n      0x20\n      add\n      0x00\n      keccak256\n        /* \"cryptoErcConcept.sol\":4236:4274  allowed[msg.sender][_spender] = _value */\n      dup2\n      swap1\n      sstore\n      pop\n        /* \"cryptoErcConcept.sol\":4360:4368  _spender */\n      dup3\n        /* \"cryptoErcConcept.sol\":4339:4377  Approval(msg.sender, _spender, _value) */\n      0xffffffffffffffffffffffffffffffffffffffff\n      and\n        /* \"cryptoErcConcept.sol\":4348:4358  msg.sender */\n      caller\n        /* \"cryptoErcConcept.sol\":4339:4377  Approval(msg.sender, _spender, _value) */\n      0xffffffffffffffffffffffffffffffffffffffff\n      and\n      0x8c5be1e5ebec7d5bd14f71427d1e84f3dd0314c0f7b2291e5b200ac8c7c3b925\n        /* \"cryptoErcConcept.sol\":4370:4376  _value */\n      dup5\n        /* \"cryptoErcConcept.sol\":4339:4377  Approval(msg.sender, _spender, _value) */\n      mload(0x40)\n      tag_76\n      swap2\n      swap1\n      tag_28\n      jump\t// in\n    tag_76:\n      mload(0x40)\n      dup1\n      swap2\n      sub\n      swap1\n      log3\n        /* \"cryptoErcConcept.sol\":4395:4399  true */\n      0x01\n        /* \"cryptoErcConcept.sol\":4388:4399  return true */\n      swap1\n      pop\n        /* \"cryptoErcConcept.sol\":3924:4459  function approve(address _spender, uint256 _value) public returns (bool success) {... */\n      swap3\n      swap2\n      pop\n      pop\n      jump\t// out\n        /* \"cryptoErcConcept.sol\":1787:1877  function totalSupply() public view returns (uint256){... */\n    tag_26:\n        /* \"cryptoErcConcept.sol\":1831:1838  uint256 */\n      0x00\n        /* \"cryptoErcConcept.sol\":1857:1869  _totalSupply */\n      sload(0x02)\n        /* \"cryptoErcConcept.sol\":1850:1869  return _totalSupply */\n      swap1\n      pop\n        /* \"cryptoErcConcept.sol\":1787:1877  function totalSupply() public view returns (uint256){... */\n      swap1\n      jump\t// out\n        /* \"cryptoErcConcept.sol\":3184:3915  function transferFrom(address _from, address _to , uint256 _value )public returns (bool success){... */\n    tag_32:\n        /* \"cryptoErcConcept.sol\":3267:3279  bool success */\n      0x00\n        /* \"cryptoErcConcept.sol\":3318:3324  _value */\n      dup2\n        /* \"cryptoErcConcept.sol\":3299:3307  balances */\n      0x00\n        /* \"cryptoErcConcept.sol\":3299:3314  balances[_from] */\n      0x00\n        /* \"cryptoErcConcept.sol\":3308:3313  _from */\n      dup7\n        /* \"cryptoErcConcept.sol\":3299:3314  balances[_from] */\n      0xffffffffffffffffffffffffffffffffffffffff\n      and\n      0xffffffffffffffffffffffffffffffffffffffff\n      and\n      dup2\n      mstore\n      0x20\n      add\n      swap1\n      dup2\n      mstore\n      0x20\n      add\n      0x00\n      keccak256\n      sload\n        /* \"cryptoErcConcept.sol\":3299:3324  balances[_from] >= _value */\n      lt\n      iszero\n        /* \"cryptoErcConcept.sol\":3291:3349  require(balances[_from] >= _value, \"Insufficient balance\") */\n      tag_79\n      jumpi\n      mload(0x40)\n      0x08c379a000000000000000000000000000000000000000000000000000000000\n      dup2\n      mstore\n      0x04\n      add\n      tag_80\n      swap1\n      tag_75\n      jump\t// in\n    tag_80:\n      mload(0x40)\n      dup1\n      swap2\n      sub\n      swap1\n      revert\n    tag_79:\n        /* \"cryptoErcConcept.sol\":3440:3446  _value */\n      dup2\n        /* \"cryptoErcConcept.sol\":3410:3417  allowed */\n      0x06\n        /* \"cryptoErcConcept.sol\":3410:3424  allowed[_from] */\n      0x00\n        /* \"cryptoErcConcept.sol\":3418:3423  _from */\n      dup7\n        /* \"cryptoErcConcept.sol\":3410:3424  allowed[_from] */\n      0xffffffffffffffffffffffffffffffffffffffff\n      and\n      0xffffffffffffffffffffffffffffffffffffffff\n      and\n      dup2\n      mstore\n      0x20\n      add\n      swap1\n      dup2\n      mstore\n      0x20\n      add\n      0x00\n      keccak256\n        /* \"cryptoErcConcept.sol\":3410:3436  allowed[_from][msg.sender] */\n      0x00\n        /* \"cryptoErcConcept.sol\":3425:3435  msg.sender */\n      caller\n        /* \"cryptoErcConcept.sol\":3410:3436  allowed[_from][msg.sender] */\n      0xffffffffffffffffffffffffffffffffffffffff\n      and\n      0xffffffffffffffffffffffffffffffffffffffff\n      and\n      dup2\n      mstore\n      0x20\n      add\n      swap1\n      dup2\n      mstore\n      0x20\n      add\n      0x00\n      keccak256\n      sload\n        /* \"cryptoErcConcept.sol\":3410:3446  allowed[_from][msg.sender] >= _value */\n      lt\n      iszero\n        /* \"cryptoErcConcept.sol\":3402:3473  require(allowed[_from][msg.sender] >= _value, \"Insufficient allowance\") */\n      tag_81\n      jumpi\n      mload(0x40)\n      0x08c379a000000000000000000000000000000000000000000000000000000000\n      dup2\n      mstore\n      0x04\n      add\n      tag_82\n      swap1\n      tag_83\n      jump\t// in\n    tag_82:\n      mload(0x40)\n      dup1\n      swap2\n      sub\n      swap1\n      revert\n    tag_81:\n        /* \"cryptoErcConcept.sol\":3553:3556  _to */\n      dup3\n        /* \"cryptoErcConcept.sol\":3539:3556  address(0) != _to */\n      0xffffffffffffffffffffffffffffffffffffffff\n      and\n        /* \"cryptoErcConcept.sol\":3547:3548  0 */\n      0x00\n        /* \"cryptoErcConcept.sol\":3539:3556  address(0) != _to */\n      0xffffffffffffffffffffffffffffffffffffffff\n      and\n      sub\n        /* \"cryptoErcConcept.sol\":3531:3576  require(address(0) != _to, \"Invalid address\") */\n      tag_84\n      jumpi\n      mload(0x40)\n      0x08c379a000000000000000000000000000000000000000000000000000000000\n      dup2\n      mstore\n      0x04\n      add\n      tag_85\n      swap1\n      tag_72\n      jump\t// in\n    tag_85:\n      mload(0x40)\n      dup1\n      swap2\n      sub\n      swap1\n      revert\n    tag_84:\n        /* \"cryptoErcConcept.sol\":3606:3612  _value */\n      dup2\n        /* \"cryptoErcConcept.sol\":3587:3595  balances */\n      0x00\n        /* \"cryptoErcConcept.sol\":3587:3602  balances[_from] */\n      0x00\n        /* \"cryptoErcConcept.sol\":3596:3601  _from */\n      dup7\n        /* \"cryptoErcConcept.sol\":3587:3602  balances[_from] */\n      0xffffffffffffffffffffffffffffffffffffffff\n      and\n      0xffffffffffffffffffffffffffffffffffffffff\n      and\n      dup2\n      mstore\n      0x20\n      add\n      swap1\n      dup2\n      mstore\n      0x20\n      add\n      0x00\n      keccak256\n      0x00\n        /* \"cryptoErcConcept.sol\":3587:3612  balances[_from] -= _value */\n      dup3\n      dup3\n      sload\n      tag_86\n      swap2\n      swap1\n      tag_87\n      jump\t// in\n    tag_86:\n      swap3\n      pop\n      pop\n      dup2\n      swap1\n      sstore\n      pop\n        /* \"cryptoErcConcept.sol\":3687:3693  _value */\n      dup2\n        /* \"cryptoErcConcept.sol\":3670:3678  balances */\n      0x00\n        /* \"cryptoErcConcept.sol\":3670:3683  balances[_to] */\n      0x00\n        /* \"cryptoErcConcept.sol\":3679:3682  _to */\n      dup6\n        /* \"cryptoErcConcept.sol\":3670:3683  balances[_to] */\n      0xffffffffffffffffffffffffffffffffffffffff\n      and\n      0xffffffffffffffffffffffffffffffffffffffff\n      and\n      dup2\n      mstore\n      0x20\n      add\n      swap1\n      dup2\n      mstore\n      0x20\n      add\n      0x00\n      keccak256\n      0x00\n        /* \"cryptoErcConcept.sol\":3670:3693  balances[_to] += _value */\n      dup3\n      dup3\n      sload\n      tag_88\n      swap2\n      swap1\n      tag_89\n      jump\t// in\n    tag_88:\n      swap3\n      pop\n      pop\n      dup2\n      swap1\n      sstore\n      pop\n        /* \"cryptoErcConcept.sol\":3782:3788  _value */\n      dup2\n        /* \"cryptoErcConcept.sol\":3752:3759  allowed */\n      0x06\n        /* \"cryptoErcConcept.sol\":3752:3766  allowed[_from] */\n      0x00\n        /* \"cryptoErcConcept.sol\":3760:3765  _from */\n      dup7\n        /* \"cryptoErcConcept.sol\":3752:3766  allowed[_from] */\n      0xffffffffffffffffffffffffffffffffffffffff\n      and\n      0xffffffffffffffffffffffffffffffffffffffff\n      and\n      dup2\n      mstore\n      0x20\n      add\n      swap1\n      dup2\n      mstore\n      0x20\n      add\n      0x00\n      keccak256\n        /* \"cryptoErcConcept.sol\":3752:3778  allowed[_from][msg.sender] */\n      0x00\n        /* \"cryptoErcConcept.sol\":3767:3777  msg.sender */\n      caller\n        /* \"cryptoErcConcept.sol\":3752:3778  allowed[_from][msg.sender] */\n      0xffffffffffffffffffffffffffffffffffffffff\n      and\n      0xffffffffffffffffffffffffffffffffffffffff\n      and\n      dup2\n      mstore\n      0x20\n      add\n      swap1\n      dup2\n      mstore\n      0x20\n      add\n      0x00\n      keccak256\n      0x00\n        /* \"cryptoErcConcept.sol\":3752:3788  allowed[_from][msg.sender] -= _value */\n      dup3\n      dup3\n      sload\n      tag_90\n      swap2\n      swap1\n      tag_87\n      jump\t// in\n    tag_90:\n      swap3\n      pop\n      pop\n      dup2\n      swap1\n      sstore\n      pop\n        /* \"cryptoErcConcept.sol\":3872:3875  _to */\n      dup3\n        /* \"cryptoErcConcept.sol\":3856:3884  Transfer(_from, _to, _value) */\n      0xffffffffffffffffffffffffffffffffffffffff\n      and\n        /* \"cryptoErcConcept.sol\":3865:3870  _from */\n      dup5\n        /* \"cryptoErcConcept.sol\":3856:3884  Transfer(_from, _to, _value) */\n      0xffffffffffffffffffffffffffffffffffffffff\n      and\n      0xddf252ad1be2c89b69c2b068fc378daa952ba7f163c4a11628f55a4df523b3ef\n        /* \"cryptoErcConcept.sol\":3877:3883  _value */\n      dup5\n        /* \"cryptoErcConcept.sol\":3856:3884  Transfer(_from, _to, _value) */\n      mload(0x40)\n      tag_91\n      swap2\n      swap1\n      tag_28\n      jump\t// in\n    tag_91:\n      mload(0x40)\n      dup1\n      swap2\n      sub\n      swap1\n      log3\n        /* \"cryptoErcConcept.sol\":3902:3906  true */\n      0x01\n        /* \"cryptoErcConcept.sol\":3895:3906  return true */\n      swap1\n      pop\n        /* \"cryptoErcConcept.sol\":3184:3915  function transferFrom(address _from, address _to , uint256 _value )public returns (bool success){... */\n      swap4\n      swap3\n      pop\n      pop\n      pop\n      jump\t// out\n        /* \"cryptoErcConcept.sol\":1681:1763  function decimals() public view returns (uint8){... */\n    tag_35:\n        /* \"cryptoErcConcept.sol\":1722:1727  uint8 */\n      0x00\n        /* \"cryptoErcConcept.sol\":1746:1755  _decimals */\n      0x05\n      0x00\n      swap1\n      sload\n      swap1\n      0x0100\n      exp\n      swap1\n      div\n      0xff\n      and\n        /* \"cryptoErcConcept.sol\":1739:1755  return _decimals */\n      swap1\n      pop\n        /* \"cryptoErcConcept.sol\":1681:1763  function decimals() public view returns (uint8){... */\n      swap1\n      jump\t// out\n        /* \"cryptoErcConcept.sol\":1889:2066  function burn(uint amount) public onlyOwner{... */\n    tag_41:\n        /* \"cryptoErcConcept.sol\":872:882  msg.sender */\n      caller\n        /* \"cryptoErcConcept.sol\":863:882  owner == msg.sender */\n      0xffffffffffffffffffffffffffffffffffffffff\n      and\n        /* \"cryptoErcConcept.sol\":863:868  owner */\n      0x01\n      0x00\n      swap1\n      sload\n      swap1\n      0x0100\n      exp\n      swap1\n      div\n      0xffffffffffffffffffffffffffffffffffffffff\n      and\n        /* \"cryptoErcConcept.sol\":863:882  owner == msg.sender */\n      0xffffffffffffffffffffffffffffffffffffffff\n      and\n      eq\n        /* \"cryptoErcConcept.sol\":855:905  require(owner == msg.sender , \"You are not owner\") */\n      tag_94\n      jumpi\n      mload(0x40)\n      0x08c379a000000000000000000000000000000000000000000000000000000000\n      dup2\n      mstore\n      0x04\n      add\n      tag_95\n      swap1\n      tag_96\n      jump\t// in\n    tag_95:\n      mload(0x40)\n      dup1\n      swap2\n      sub\n      swap1\n      revert\n    tag_94:\n        /* \"cryptoErcConcept.sol\":1962:1968  amount */\n      dup1\n        /* \"cryptoErcConcept.sol\":1943:1951  balances */\n      0x00\n        /* \"cryptoErcConcept.sol\":1943:1958  balances[owner] */\n      0x00\n        /* \"cryptoErcConcept.sol\":1952:1957  owner */\n      0x01\n      0x00\n      swap1\n      sload\n      swap1\n      0x0100\n      exp\n      swap1\n      div\n      0xffffffffffffffffffffffffffffffffffffffff\n      and\n        /* \"cryptoErcConcept.sol\":1943:1958  balances[owner] */\n      0xffffffffffffffffffffffffffffffffffffffff\n      and\n      0xffffffffffffffffffffffffffffffffffffffff\n      and\n      dup2\n      mstore\n      0x20\n      add\n      swap1\n      dup2\n      mstore\n      0x20\n      add\n      0x00\n      keccak256\n      0x00\n        /* \"cryptoErcConcept.sol\":1943:1968  balances[owner] -= amount */\n      dup3\n      dup3\n      sload\n      tag_98\n      swap2\n      swap1\n      tag_87\n      jump\t// in\n    tag_98:\n      swap3\n      pop\n      pop\n      dup2\n      swap1\n      sstore\n      pop\n        /* \"cryptoErcConcept.sol\":1995:2001  amount */\n      dup1\n        /* \"cryptoErcConcept.sol\":1979:1991  _totalSupply */\n      0x02\n      0x00\n        /* \"cryptoErcConcept.sol\":1979:2001  _totalSupply -= amount */\n      dup3\n      dup3\n      sload\n      tag_99\n      swap2\n      swap1\n      tag_87\n      jump\t// in\n    tag_99:\n      swap3\n      pop\n      pop\n      dup2\n      swap1\n      sstore\n      pop\n        /* \"cryptoErcConcept.sol\":2046:2047  0 */\n      0x00\n        /* \"cryptoErcConcept.sol\":2017:2057  Transfer( msg.sender,address(0), amount) */\n      0xffffffffffffffffffffffffffffffffffffffff\n      and\n        /* \"cryptoErcConcept.sol\":2027:2037  msg.sender */\n      caller\n        /* \"cryptoErcConcept.sol\":2017:2057  Transfer( msg.sender,address(0), amount) */\n      0xffffffffffffffffffffffffffffffffffffffff\n      and\n      0xddf252ad1be2c89b69c2b068fc378daa952ba7f163c4a11628f55a4df523b3ef\n        /* \"cryptoErcConcept.sol\":2050:2056  amount */\n      dup4\n        /* \"cryptoErcConcept.sol\":2017:2057  Transfer( msg.sender,address(0), amount) */\n      mload(0x40)\n      tag_100\n      swap2\n      swap1\n      tag_28\n      jump\t// in\n    tag_100:\n      mload(0x40)\n      dup1\n      swap2\n      sub\n      swap1\n      log3\n        /* \"cryptoErcConcept.sol\":1889:2066  function burn(uint amount) public onlyOwner{... */\n      pop\n      jump\t// out\n        /* \"cryptoErcConcept.sol\":2096:2201  function balanceOf(address _owner) public view returns(uint256 balance){... */\n    tag_45:\n        /* \"cryptoErcConcept.sol\":2151:2166  uint256 balance */\n      0x00\n        /* \"cryptoErcConcept.sol\":2181:2189  balances */\n      0x00\n        /* \"cryptoErcConcept.sol\":2181:2197  balances[_owner] */\n      0x00\n        /* \"cryptoErcConcept.sol\":2190:2196  _owner */\n      dup4\n        /* \"cryptoErcConcept.sol\":2181:2197  balances[_owner] */\n      0xffffffffffffffffffffffffffffffffffffffff\n      and\n      0xffffffffffffffffffffffffffffffffffffffff\n      and\n      dup2\n      mstore\n      0x20\n      add\n      swap1\n      dup2\n      mstore\n      0x20\n      add\n      0x00\n      keccak256\n      sload\n        /* \"cryptoErcConcept.sol\":2174:2197  return balances[_owner] */\n      swap1\n      pop\n        /* \"cryptoErcConcept.sol\":2096:2201  function balanceOf(address _owner) public view returns(uint256 balance){... */\n      swap2\n      swap1\n      pop\n      jump\t// out\n        /* \"cryptoErcConcept.sol\":1589:1675  function symbol() public view returns (string memory){... */\n    tag_48:\n        /* \"cryptoErcConcept.sol\":1628:1641  string memory */\n      0x60\n        /* \"cryptoErcConcept.sol\":1660:1667  _symbol */\n      0x04\n        /* \"cryptoErcConcept.sol\":1653:1667  return _symbol */\n      dup1\n      sload\n      tag_103\n      swap1\n      tag_64\n      jump\t// in\n    tag_103:\n      dup1\n      0x1f\n      add\n      0x20\n      dup1\n      swap2\n      div\n      mul\n      0x20\n      add\n      mload(0x40)\n      swap1\n      dup2\n      add\n      0x40\n      mstore\n      dup1\n      swap3\n      swap2\n      swap1\n      dup2\n      dup2\n      mstore\n      0x20\n      add\n      dup3\n      dup1\n      sload\n      tag_104\n      swap1\n      tag_64\n      jump\t// in\n    tag_104:\n      dup1\n      iszero\n      tag_105\n      jumpi\n      dup1\n      0x1f\n      lt\n      tag_106\n      jumpi\n      0x0100\n      dup1\n      dup4\n      sload\n      div\n      mul\n      dup4\n      mstore\n      swap2\n      0x20\n      add\n      swap2\n      jump(tag_105)\n    tag_106:\n      dup3\n      add\n      swap2\n      swap1\n      0x00\n      mstore\n      keccak256(0x00, 0x20)\n      swap1\n    tag_107:\n      dup2\n      sload\n      dup2\n      mstore\n      swap1\n      0x01\n      add\n      swap1\n      0x20\n      add\n      dup1\n      dup4\n      gt\n      tag_107\n      jumpi\n      dup3\n      swap1\n      sub\n      0x1f\n      and\n      dup3\n      add\n      swap2\n    tag_105:\n      pop\n      pop\n      pop\n      pop\n      pop\n      swap1\n      pop\n        /* \"cryptoErcConcept.sol\":1589:1675  function symbol() public view returns (string memory){... */\n      swap1\n      jump\t// out\n        /* \"cryptoErcConcept.sol\":2273:2517  function mint(uint amount) public onlyOwner{... */\n    tag_52:\n        /* \"cryptoErcConcept.sol\":872:882  msg.sender */\n      caller\n        /* \"cryptoErcConcept.sol\":863:882  owner == msg.sender */\n      0xffffffffffffffffffffffffffffffffffffffff\n      and\n        /* \"cryptoErcConcept.sol\":863:868  owner */\n      0x01\n      0x00\n      swap1\n      sload\n      swap1\n      0x0100\n      exp\n      swap1\n      div\n      0xffffffffffffffffffffffffffffffffffffffff\n      and\n        /* \"cryptoErcConcept.sol\":863:882  owner == msg.sender */\n      0xffffffffffffffffffffffffffffffffffffffff\n      and\n      eq\n        /* \"cryptoErcConcept.sol\":855:905  require(owner == msg.sender , \"You are not owner\") */\n      tag_109\n      jumpi\n      mload(0x40)\n      0x08c379a000000000000000000000000000000000000000000000000000000000\n      dup2\n      mstore\n      0x04\n      add\n      tag_110\n      swap1\n      tag_96\n      jump\t// in\n    tag_110:\n      mload(0x40)\n      dup1\n      swap2\n      sub\n      swap1\n      revert\n    tag_109:\n        /* \"cryptoErcConcept.sol\":2346:2352  amount */\n      dup1\n        /* \"cryptoErcConcept.sol\":2327:2335  balances */\n      0x00\n        /* \"cryptoErcConcept.sol\":2327:2342  balances[owner] */\n      0x00\n        /* \"cryptoErcConcept.sol\":2336:2341  owner */\n      0x01\n      0x00\n      swap1\n      sload\n      swap1\n      0x0100\n      exp\n      swap1\n      div\n      0xffffffffffffffffffffffffffffffffffffffff\n      and\n        /* \"cryptoErcConcept.sol\":2327:2342  balances[owner] */\n      0xffffffffffffffffffffffffffffffffffffffff\n      and\n      0xffffffffffffffffffffffffffffffffffffffff\n      and\n      dup2\n      mstore\n      0x20\n      add\n      swap1\n      dup2\n      mstore\n      0x20\n      add\n      0x00\n      keccak256\n      0x00\n        /* \"cryptoErcConcept.sol\":2327:2352  balances[owner] += amount */\n      dup3\n      dup3\n      sload\n      tag_112\n      swap2\n      swap1\n      tag_89\n      jump\t// in\n    tag_112:\n      swap3\n      pop\n      pop\n      dup2\n      swap1\n      sstore\n      pop\n        /* \"cryptoErcConcept.sol\":2435:2445  msg.sender */\n      caller\n        /* \"cryptoErcConcept.sol\":2414:2454  Transfer(address(0), msg.sender, amount) */\n      0xffffffffffffffffffffffffffffffffffffffff\n      and\n        /* \"cryptoErcConcept.sol\":2431:2432  0 */\n      0x00\n        /* \"cryptoErcConcept.sol\":2414:2454  Transfer(address(0), msg.sender, amount) */\n      0xffffffffffffffffffffffffffffffffffffffff\n      and\n      0xddf252ad1be2c89b69c2b068fc378daa952ba7f163c4a11628f55a4df523b3ef\n        /* \"cryptoErcConcept.sol\":2447:2453  amount */\n      dup4\n        /* \"cryptoErcConcept.sol\":2414:2454  Transfer(address(0), msg.sender, amount) */\n      mload(0x40)\n      tag_113\n      swap2\n      swap1\n      tag_28\n      jump\t// in\n    tag_113:\n      mload(0x40)\n      dup1\n      swap2\n      sub\n      swap1\n      log3\n        /* \"cryptoErcConcept.sol\":2482:2488  amount */\n      dup1\n        /* \"cryptoErcConcept.sol\":2466:2478  _totalSupply */\n      0x02\n      0x00\n        /* \"cryptoErcConcept.sol\":2466:2488  _totalSupply -= amount */\n      dup3\n      dup3\n      sload\n      tag_114\n      swap2\n      swap1\n      tag_87\n      jump\t// in\n    tag_114:\n      swap3\n      pop\n      pop\n      dup2\n      swap1\n      sstore\n      pop\n        /* \"cryptoErcConcept.sol\":2273:2517  function mint(uint amount) public onlyOwner{... */\n      pop\n      jump\t// out\n        /* \"cryptoErcConcept.sol\":2560:3175  function transfer(address _to, uint256 _value) public returns (bool sucess) {... */\n    tag_55:\n        /* \"cryptoErcConcept.sol\":2623:2634  bool sucess */\n      0x00\n        /* \"cryptoErcConcept.sol\":2730:2736  _value */\n      dup2\n        /* \"cryptoErcConcept.sol\":2706:2714  balances */\n      0x00\n        /* \"cryptoErcConcept.sol\":2706:2726  balances[msg.sender] */\n      0x00\n        /* \"cryptoErcConcept.sol\":2715:2725  msg.sender */\n      caller\n        /* \"cryptoErcConcept.sol\":2706:2726  balances[msg.sender] */\n      0xffffffffffffffffffffffffffffffffffffffff\n      and\n      0xffffffffffffffffffffffffffffffffffffffff\n      and\n      dup2\n      mstore\n      0x20\n      add\n      swap1\n      dup2\n      mstore\n      0x20\n      add\n      0x00\n      keccak256\n      sload\n        /* \"cryptoErcConcept.sol\":2706:2736  balances[msg.sender] >= _value */\n      lt\n      iszero\n        /* \"cryptoErcConcept.sol\":2698:2761  require(balances[msg.sender] >= _value, \"Insufficient balance\") */\n      tag_116\n      jumpi\n      mload(0x40)\n      0x08c379a000000000000000000000000000000000000000000000000000000000\n      dup2\n      mstore\n      0x04\n      add\n      tag_117\n      swap1\n      tag_75\n      jump\t// in\n    tag_117:\n      mload(0x40)\n      dup1\n      swap2\n      sub\n      swap1\n      revert\n    tag_116:\n        /* \"cryptoErcConcept.sol\":2867:2870  _to */\n      dup3\n        /* \"cryptoErcConcept.sol\":2853:2870  address(0) != _to */\n      0xffffffffffffffffffffffffffffffffffffffff\n      and\n        /* \"cryptoErcConcept.sol\":2861:2862  0 */\n      0x00\n        /* \"cryptoErcConcept.sol\":2853:2870  address(0) != _to */\n      0xffffffffffffffffffffffffffffffffffffffff\n      and\n      sub\n        /* \"cryptoErcConcept.sol\":2845:2890  require(address(0) != _to, \"Invalid address\") */\n      tag_118\n      jumpi\n      mload(0x40)\n      0x08c379a000000000000000000000000000000000000000000000000000000000\n      dup2\n      mstore\n      0x04\n      add\n      tag_119\n      swap1\n      tag_72\n      jump\t// in\n    tag_119:\n      mload(0x40)\n      dup1\n      swap2\n      sub\n      swap1\n      revert\n    tag_118:\n        /* \"cryptoErcConcept.sol\":2959:2965  _value */\n      dup2\n        /* \"cryptoErcConcept.sol\":2935:2943  balances */\n      0x00\n        /* \"cryptoErcConcept.sol\":2935:2955  balances[msg.sender] */\n      0x00\n        /* \"cryptoErcConcept.sol\":2944:2954  msg.sender */\n      caller\n        /* \"cryptoErcConcept.sol\":2935:2955  balances[msg.sender] */\n      0xffffffffffffffffffffffffffffffffffffffff\n      and\n      0xffffffffffffffffffffffffffffffffffffffff\n      and\n      dup2\n      mstore\n      0x20\n      add\n      swap1\n      dup2\n      mstore\n      0x20\n      add\n      0x00\n      keccak256\n      0x00\n        /* \"cryptoErcConcept.sol\":2935:2965  balances[msg.sender] -= _value */\n      dup3\n      dup3\n      sload\n      tag_120\n      swap2\n      swap1\n      tag_87\n      jump\t// in\n    tag_120:\n      swap3\n      pop\n      pop\n      dup2\n      swap1\n      sstore\n      pop\n        /* \"cryptoErcConcept.sol\":3040:3046  _value */\n      dup2\n        /* \"cryptoErcConcept.sol\":3023:3031  balances */\n      0x00\n        /* \"cryptoErcConcept.sol\":3023:3036  balances[_to] */\n      0x00\n        /* \"cryptoErcConcept.sol\":3032:3035  _to */\n      dup6\n        /* \"cryptoErcConcept.sol\":3023:3036  balances[_to] */\n      0xffffffffffffffffffffffffffffffffffffffff\n      and\n      0xffffffffffffffffffffffffffffffffffffffff\n      and\n      dup2\n      mstore\n      0x20\n      add\n      swap1\n      dup2\n      mstore\n      0x20\n      add\n      0x00\n      keccak256\n      0x00\n        /* \"cryptoErcConcept.sol\":3023:3046  balances[_to] += _value */\n      dup3\n      dup3\n      sload\n      tag_121\n      swap2\n      swap1\n      tag_89\n      jump\t// in\n    tag_121:\n      swap3\n      pop\n      pop\n      dup2\n      swap1\n      sstore\n      pop\n        /* \"cryptoErcConcept.sol\":3133:3136  _to */\n      dup3\n        /* \"cryptoErcConcept.sol\":3112:3145  Transfer(msg.sender, _to, _value) */\n      0xffffffffffffffffffffffffffffffffffffffff\n      and\n        /* \"cryptoErcConcept.sol\":3121:3131  msg.sender */\n      caller\n        /* \"cryptoErcConcept.sol\":3112:3145  Transfer(msg.sender, _to, _value) */\n      0xffffffffffffffffffffffffffffffffffffffff\n      and\n      0xddf252ad1be2c89b69c2b068fc378daa952ba7f163c4a11628f55a4df523b3ef\n        /* \"cryptoErcConcept.sol\":3138:3144  _value */\n      dup5\n        /* \"cryptoErcConcept.sol\":3112:3145  Transfer(msg.sender, _to, _value) */\n      mload(0x40)\n      tag_122\n      swap2\n      swap1\n      tag_28\n      jump\t// in\n    tag_122:\n      mload(0x40)\n      dup1\n      swap2\n      sub\n      swap1\n      log3\n        /* \"cryptoErcConcept.sol\":3163:3167  true */\n      0x01\n        /* \"cryptoErcConcept.sol\":3156:3167  return true */\n      swap1\n      pop\n        /* \"cryptoErcConcept.sol\":2560:3175  function transfer(address _to, uint256 _value) public returns (bool sucess) {... */\n      swap3\n      swap2\n      pop\n      pop\n      jump\t// out\n        /* \"cryptoErcConcept.sol\":4558:4692  function allowance(address _owner, address _spender) public view returns (uint256) {... */\n    tag_60:\n        /* \"cryptoErcConcept.sol\":4632:4639  uint256 */\n      0x00\n        /* \"cryptoErcConcept.sol\":4659:4666  allowed */\n      0x06\n        /* \"cryptoErcConcept.sol\":4659:4674  allowed[_owner] */\n      0x00\n        /* \"cryptoErcConcept.sol\":4667:4673  _owner */\n      dup5\n        /* \"cryptoErcConcept.sol\":4659:4674  allowed[_owner] */\n      0xffffffffffffffffffffffffffffffffffffffff\n      and\n      0xffffffffffffffffffffffffffffffffffffffff\n      and\n      dup2\n      mstore\n      0x20\n      add\n      swap1\n      dup2\n      mstore\n      0x20\n      add\n      0x00\n      keccak256\n        /* \"cryptoErcConcept.sol\":4659:4684  allowed[_owner][_spender] */\n      0x00\n        /* \"cryptoErcConcept.sol\":4675:4683  _spender */\n      dup4\n        /* \"cryptoErcConcept.sol\":4659:4684  allowed[_owner][_spender] */\n      0xffffffffffffffffffffffffffffffffffffffff\n      and\n      0xffffffffffffffffffffffffffffffffffffffff\n      and\n      dup2\n      mstore\n      0x20\n      add\n      swap1\n      dup2\n      mstore\n      0x20\n      add\n      0x00\n      keccak256\n      sload\n        /* \"cryptoErcConcept.sol\":4652:4684  return allowed[_owner][_spender] */\n      swap1\n      pop\n        /* \"cryptoErcConcept.sol\":4558:4692  function allowance(address _owner, address _spender) public view returns (uint256) {... */\n      swap3\n      swap2\n      pop\n      pop\n      jump\t// out\n        /* \"#utility.yul\":7:106   */\n    tag_124:\n        /* \"#utility.yul\":59:65   */\n      0x00\n        /* \"#utility.yul\":93:98   */\n      dup2\n        /* \"#utility.yul\":87:99   */\n      mload\n        /* \"#utility.yul\":77:99   */\n      swap1\n      pop\n        /* \"#utility.yul\":7:106   */\n      swap2\n      swap1\n      pop\n      jump\t// out\n        /* \"#utility.yul\":112:281   */\n    tag_125:\n        /* \"#utility.yul\":196:207   */\n      0x00\n        /* \"#utility.yul\":230:236   */\n      dup3\n        /* \"#utility.yul\":225:228   */\n      dup3\n        /* \"#utility.yul\":218:237   */\n      mstore\n        /* \"#utility.yul\":270:274   */\n      0x20\n        /* \"#utility.yul\":265:268   */\n      dup3\n        /* \"#utility.yul\":261:275   */\n      add\n        /* \"#utility.yul\":246:275   */\n      swap1\n      pop\n        /* \"#utility.yul\":112:281   */\n      swap3\n      swap2\n      pop\n      pop\n      jump\t// out\n        /* \"#utility.yul\":287:426   */\n    tag_126:\n        /* \"#utility.yul\":376:382   */\n      dup3\n        /* \"#utility.yul\":371:374   */\n      dup2\n        /* \"#utility.yul\":366:369   */\n      dup4\n        /* \"#utility.yul\":360:383   */\n      mcopy\n        /* \"#utility.yul\":417:418   */\n      0x00\n        /* \"#utility.yul\":408:414   */\n      dup4\n        /* \"#utility.yul\":403:406   */\n      dup4\n        /* \"#utility.yul\":399:415   */\n      add\n        /* \"#utility.yul\":392:419   */\n      mstore\n        /* \"#utility.yul\":287:426   */\n      pop\n      pop\n      pop\n      jump\t// out\n        /* \"#utility.yul\":432:534   */\n    tag_127:\n        /* \"#utility.yul\":473:479   */\n      0x00\n        /* \"#utility.yul\":524:526   */\n      0x1f\n        /* \"#utility.yul\":520:527   */\n      not\n        /* \"#utility.yul\":515:517   */\n      0x1f\n        /* \"#utility.yul\":508:513   */\n      dup4\n        /* \"#utility.yul\":504:518   */\n      add\n        /* \"#utility.yul\":500:528   */\n      and\n        /* \"#utility.yul\":490:528   */\n      swap1\n      pop\n        /* \"#utility.yul\":432:534   */\n      swap2\n      swap1\n      pop\n      jump\t// out\n        /* \"#utility.yul\":540:917   */\n    tag_128:\n        /* \"#utility.yul\":628:631   */\n      0x00\n        /* \"#utility.yul\":656:695   */\n      tag_160\n        /* \"#utility.yul\":689:694   */\n      dup3\n        /* \"#utility.yul\":656:695   */\n      tag_124\n      jump\t// in\n    tag_160:\n        /* \"#utility.yul\":711:782   */\n      tag_161\n        /* \"#utility.yul\":775:781   */\n      dup2\n        /* \"#utility.yul\":770:773   */\n      dup6\n        /* \"#utility.yul\":711:782   */\n      tag_125\n      jump\t// in\n    tag_161:\n        /* \"#utility.yul\":704:782   */\n      swap4\n      pop\n        /* \"#utility.yul\":791:856   */\n      tag_162\n        /* \"#utility.yul\":849:855   */\n      dup2\n        /* \"#utility.yul\":844:847   */\n      dup6\n        /* \"#utility.yul\":837:841   */\n      0x20\n        /* \"#utility.yul\":830:835   */\n      dup7\n        /* \"#utility.yul\":826:842   */\n      add\n        /* \"#utility.yul\":791:856   */\n      tag_126\n      jump\t// in\n    tag_162:\n        /* \"#utility.yul\":881:910   */\n      tag_163\n        /* \"#utility.yul\":903:909   */\n      dup2\n        /* \"#utility.yul\":881:910   */\n      tag_127\n      jump\t// in\n    tag_163:\n        /* \"#utility.yul\":876:879   */\n      dup5\n        /* \"#utility.yul\":872:911   */\n      add\n        /* \"#utility.yul\":865:911   */\n      swap2\n      pop\n        /* \"#utility.yul\":632:917   */\n      pop\n        /* \"#utility.yul\":540:917   */\n      swap3\n      swap2\n      pop\n      pop\n      jump\t// out\n        /* \"#utility.yul\":923:1236   */\n    tag_18:\n        /* \"#utility.yul\":1036:1040   */\n      0x00\n        /* \"#utility.yul\":1074:1076   */\n      0x20\n        /* \"#utility.yul\":1063:1072   */\n      dup3\n        /* \"#utility.yul\":1059:1077   */\n      add\n        /* \"#utility.yul\":1051:1077   */\n      swap1\n      pop\n        /* \"#utility.yul\":1123:1132   */\n      dup2\n        /* \"#utility.yul\":1117:1121   */\n      dup2\n        /* \"#utility.yul\":1113:1133   */\n      sub\n        /* \"#utility.yul\":1109:1110   */\n      0x00\n        /* \"#utility.yul\":1098:1107   */\n      dup4\n        /* \"#utility.yul\":1094:1111   */\n      add\n        /* \"#utility.yul\":1087:1134   */\n      mstore\n        /* \"#utility.yul\":1151:1229   */\n      tag_165\n        /* \"#utility.yul\":1224:1228   */\n      dup2\n        /* \"#utility.yul\":1215:1221   */\n      dup5\n        /* \"#utility.yul\":1151:1229   */\n      tag_128\n      jump\t// in\n    tag_165:\n        /* \"#utility.yul\":1143:1229   */\n      swap1\n      pop\n        /* \"#utility.yul\":923:1236   */\n      swap3\n      swap2\n      pop\n      pop\n      jump\t// out\n        /* \"#utility.yul\":1323:1440   */\n    tag_130:\n        /* \"#utility.yul\":1432:1433   */\n      0x00\n        /* \"#utility.yul\":1429:1430   */\n      0x00\n        /* \"#utility.yul\":1422:1434   */\n      revert\n        /* \"#utility.yul\":1569:1695   */\n    tag_132:\n        /* \"#utility.yul\":1606:1613   */\n      0x00\n        /* \"#utility.yul\":1646:1688   */\n      0xffffffffffffffffffffffffffffffffffffffff\n        /* \"#utility.yul\":1639:1644   */\n      dup3\n        /* \"#utility.yul\":1635:1689   */\n      and\n        /* \"#utility.yul\":1624:1689   */\n      swap1\n      pop\n        /* \"#utility.yul\":1569:1695   */\n      swap2\n      swap1\n      pop\n      jump\t// out\n        /* \"#utility.yul\":1701:1797   */\n    tag_133:\n        /* \"#utility.yul\":1738:1745   */\n      0x00\n        /* \"#utility.yul\":1767:1791   */\n      tag_171\n        /* \"#utility.yul\":1785:1790   */\n      dup3\n        /* \"#utility.yul\":1767:1791   */\n      tag_132\n      jump\t// in\n    tag_171:\n        /* \"#utility.yul\":1756:1791   */\n      swap1\n      pop\n        /* \"#utility.yul\":1701:1797   */\n      swap2\n      swap1\n      pop\n      jump\t// out\n        /* \"#utility.yul\":1803:1925   */\n    tag_134:\n        /* \"#utility.yul\":1876:1900   */\n      tag_173\n        /* \"#utility.yul\":1894:1899   */\n      dup2\n        /* \"#utility.yul\":1876:1900   */\n      tag_133\n      jump\t// in\n    tag_173:\n        /* \"#utility.yul\":1869:1874   */\n      dup2\n        /* \"#utility.yul\":1866:1901   */\n      eq\n        /* \"#utility.yul\":1856:1919   */\n      tag_174\n      jumpi\n        /* \"#utility.yul\":1915:1916   */\n      0x00\n        /* \"#utility.yul\":1912:1913   */\n      0x00\n        /* \"#utility.yul\":1905:1917   */\n      revert\n        /* \"#utility.yul\":1856:1919   */\n    tag_174:\n        /* \"#utility.yul\":1803:1925   */\n      pop\n      jump\t// out\n        /* \"#utility.yul\":1931:2070   */\n    tag_135:\n        /* \"#utility.yul\":1977:1982   */\n      0x00\n        /* \"#utility.yul\":2015:2021   */\n      dup2\n        /* \"#utility.yul\":2002:2022   */\n      calldataload\n        /* \"#utility.yul\":1993:2022   */\n      swap1\n      pop\n        /* \"#utility.yul\":2031:2064   */\n      tag_176\n        /* \"#utility.yul\":2058:2063   */\n      dup2\n        /* \"#utility.yul\":2031:2064   */\n      tag_134\n      jump\t// in\n    tag_176:\n        /* \"#utility.yul\":1931:2070   */\n      swap3\n      swap2\n      pop\n      pop\n      jump\t// out\n        /* \"#utility.yul\":2076:2153   */\n    tag_136:\n        /* \"#utility.yul\":2113:2120   */\n      0x00\n        /* \"#utility.yul\":2142:2147   */\n      dup2\n        /* \"#utility.yul\":2131:2147   */\n      swap1\n      pop\n        /* \"#utility.yul\":2076:2153   */\n      swap2\n      swap1\n      pop\n      jump\t// out\n        /* \"#utility.yul\":2159:2281   */\n    tag_137:\n        /* \"#utility.yul\":2232:2256   */\n      tag_179\n        /* \"#utility.yul\":2250:2255   */\n      dup2\n        /* \"#utility.yul\":2232:2256   */\n      tag_136\n      jump\t// in\n    tag_179:\n        /* \"#utility.yul\":2225:2230   */\n      dup2\n        /* \"#utility.yul\":2222:2257   */\n      eq\n        /* \"#utility.yul\":2212:2275   */\n      tag_180\n      jumpi\n        /* \"#utility.yul\":2271:2272   */\n      0x00\n        /* \"#utility.yul\":2268:2269   */\n      0x00\n        /* \"#utility.yul\":2261:2273   */\n      revert\n        /* \"#utility.yul\":2212:2275   */\n    tag_180:\n        /* \"#utility.yul\":2159:2281   */\n      pop\n      jump\t// out\n        /* \"#utility.yul\":2287:2426   */\n    tag_138:\n        /* \"#utility.yul\":2333:2338   */\n      0x00\n        /* \"#utility.yul\":2371:2377   */\n      dup2\n        /* \"#utility.yul\":2358:2378   */\n      calldataload\n        /* \"#utility.yul\":2349:2378   */\n      swap1\n      pop\n        /* \"#utility.yul\":2387:2420   */\n      tag_182\n        /* \"#utility.yul\":2414:2419   */\n      dup2\n        /* \"#utility.yul\":2387:2420   */\n      tag_137\n      jump\t// in\n    tag_182:\n        /* \"#utility.yul\":2287:2426   */\n      swap3\n      swap2\n      pop\n      pop\n      jump\t// out\n        /* \"#utility.yul\":2432:2906   */\n    tag_21:\n        /* \"#utility.yul\":2500:2506   */\n      0x00\n        /* \"#utility.yul\":2508:2514   */\n      0x00\n        /* \"#utility.yul\":2557:2559   */\n      0x40\n        /* \"#utility.yul\":2545:2554   */\n      dup4\n        /* \"#utility.yul\":2536:2543   */\n      dup6\n        /* \"#utility.yul\":2532:2555   */\n      sub\n        /* \"#utility.yul\":2528:2560   */\n      slt\n        /* \"#utility.yul\":2525:2644   */\n      iszero\n      tag_184\n      jumpi\n        /* \"#utility.yul\":2563:2642   */\n      tag_185\n      tag_130\n      jump\t// in\n    tag_185:\n        /* \"#utility.yul\":2525:2644   */\n    tag_184:\n        /* \"#utility.yul\":2683:2684   */\n      0x00\n        /* \"#utility.yul\":2708:2761   */\n      tag_186\n        /* \"#utility.yul\":2753:2760   */\n      dup6\n        /* \"#utility.yul\":2744:2750   */\n      dup3\n        /* \"#utility.yul\":2733:2742   */\n      dup7\n        /* \"#utility.yul\":2729:2751   */\n      add\n        /* \"#utility.yul\":2708:2761   */\n      tag_135\n      jump\t// in\n    tag_186:\n        /* \"#utility.yul\":2698:2761   */\n      swap3\n      pop\n        /* \"#utility.yul\":2654:2771   */\n      pop\n        /* \"#utility.yul\":2810:2812   */\n      0x20\n        /* \"#utility.yul\":2836:2889   */\n      tag_187\n        /* \"#utility.yul\":2881:2888   */\n      dup6\n        /* \"#utility.yul\":2872:2878   */\n      dup3\n        /* \"#utility.yul\":2861:2870   */\n      dup7\n        /* \"#utility.yul\":2857:2879   */\n      add\n        /* \"#utility.yul\":2836:2889   */\n      tag_138\n      jump\t// in\n    tag_187:\n        /* \"#utility.yul\":2826:2889   */\n      swap2\n      pop\n        /* \"#utility.yul\":2781:2899   */\n      pop\n        /* \"#utility.yul\":2432:2906   */\n      swap3\n      pop\n      swap3\n      swap1\n      pop\n      jump\t// out\n        /* \"#utility.yul\":2912:3002   */\n    tag_139:\n        /* \"#utility.yul\":2946:2953   */\n      0x00\n        /* \"#utility.yul\":2989:2994   */\n      dup2\n        /* \"#utility.yul\":2982:2995   */\n      iszero\n        /* \"#utility.yul\":2975:2996   */\n      iszero\n        /* \"#utility.yul\":2964:2996   */\n      swap1\n      pop\n        /* \"#utility.yul\":2912:3002   */\n      swap2\n      swap1\n      pop\n      jump\t// out\n        /* \"#utility.yul\":3008:3117   */\n    tag_140:\n        /* \"#utility.yul\":3089:3110   */\n      tag_190\n        /* \"#utility.yul\":3104:3109   */\n      dup2\n        /* \"#utility.yul\":3089:3110   */\n      tag_139\n      jump\t// in\n    tag_190:\n        /* \"#utility.yul\":3084:3087   */\n      dup3\n        /* \"#utility.yul\":3077:3111   */\n      mstore\n        /* \"#utility.yul\":3008:3117   */\n      pop\n      pop\n      jump\t// out\n        /* \"#utility.yul\":3123:3333   */\n    tag_24:\n        /* \"#utility.yul\":3210:3214   */\n      0x00\n        /* \"#utility.yul\":3248:3250   */\n      0x20\n        /* \"#utility.yul\":3237:3246   */\n      dup3\n        /* \"#utility.yul\":3233:3251   */\n      add\n        /* \"#utility.yul\":3225:3251   */\n      swap1\n      pop\n        /* \"#utility.yul\":3261:3326   */\n      tag_192\n        /* \"#utility.yul\":3323:3324   */\n      0x00\n        /* \"#utility.yul\":3312:3321   */\n      dup4\n        /* \"#utility.yul\":3308:3325   */\n      add\n        /* \"#utility.yul\":3299:3305   */\n      dup5\n        /* \"#utility.yul\":3261:3326   */\n      tag_140\n      jump\t// in\n    tag_192:\n        /* \"#utility.yul\":3123:3333   */\n      swap3\n      swap2\n      pop\n      pop\n      jump\t// out\n        /* \"#utility.yul\":3339:3457   */\n    tag_141:\n        /* \"#utility.yul\":3426:3450   */\n      tag_194\n        /* \"#utility.yul\":3444:3449   */\n      dup2\n        /* \"#utility.yul\":3426:3450   */\n      tag_136\n      jump\t// in\n    tag_194:\n        /* \"#utility.yul\":3421:3424   */\n      dup3\n        /* \"#utility.yul\":3414:3451   */\n      mstore\n        /* \"#utility.yul\":3339:3457   */\n      pop\n      pop\n      jump\t// out\n        /* \"#utility.yul\":3463:3685   */\n    tag_28:\n        /* \"#utility.yul\":3556:3560   */\n      0x00\n        /* \"#utility.yul\":3594:3596   */\n      0x20\n        /* \"#utility.yul\":3583:3592   */\n      dup3\n        /* \"#utility.yul\":3579:3597   */\n      add\n        /* \"#utility.yul\":3571:3597   */\n      swap1\n      pop\n        /* \"#utility.yul\":3607:3678   */\n      tag_196\n        /* \"#utility.yul\":3675:3676   */\n      0x00\n        /* \"#utility.yul\":3664:3673   */\n      dup4\n        /* \"#utility.yul\":3660:3677   */\n      add\n        /* \"#utility.yul\":3651:3657   */\n      dup5\n        /* \"#utility.yul\":3607:3678   */\n      tag_141\n      jump\t// in\n    tag_196:\n        /* \"#utility.yul\":3463:3685   */\n      swap3\n      swap2\n      pop\n      pop\n      jump\t// out\n        /* \"#utility.yul\":3691:4310   */\n    tag_31:\n        /* \"#utility.yul\":3768:3774   */\n      0x00\n        /* \"#utility.yul\":3776:3782   */\n      0x00\n        /* \"#utility.yul\":3784:3790   */\n      0x00\n        /* \"#utility.yul\":3833:3835   */\n      0x60\n        /* \"#utility.yul\":3821:3830   */\n      dup5\n        /* \"#utility.yul\":3812:3819   */\n      dup7\n        /* \"#utility.yul\":3808:3831   */\n      sub\n        /* \"#utility.yul\":3804:3836   */\n      slt\n        /* \"#utility.yul\":3801:3920   */\n      iszero\n      tag_198\n      jumpi\n        /* \"#utility.yul\":3839:3918   */\n      tag_199\n      tag_130\n      jump\t// in\n    tag_199:\n        /* \"#utility.yul\":3801:3920   */\n    tag_198:\n        /* \"#utility.yul\":3959:3960   */\n      0x00\n        /* \"#utility.yul\":3984:4037   */\n      tag_200\n        /* \"#utility.yul\":4029:4036   */\n      dup7\n        /* \"#utility.yul\":4020:4026   */\n      dup3\n        /* \"#utility.yul\":4009:4018   */\n      dup8\n        /* \"#utility.yul\":4005:4027   */\n      add\n        /* \"#utility.yul\":3984:4037   */\n      tag_135\n      jump\t// in\n    tag_200:\n        /* \"#utility.yul\":3974:4037   */\n      swap4\n      pop\n        /* \"#utility.yul\":3930:4047   */\n      pop\n        /* \"#utility.yul\":4086:4088   */\n      0x20\n        /* \"#utility.yul\":4112:4165   */\n      tag_201\n        /* \"#utility.yul\":4157:4164   */\n      dup7\n        /* \"#utility.yul\":4148:4154   */\n      dup3\n        /* \"#utility.yul\":4137:4146   */\n      dup8\n        /* \"#utility.yul\":4133:4155   */\n      add\n        /* \"#utility.yul\":4112:4165   */\n      tag_135\n      jump\t// in\n    tag_201:\n        /* \"#utility.yul\":4102:4165   */\n      swap3\n      pop\n        /* \"#utility.yul\":4057:4175   */\n      pop\n        /* \"#utility.yul\":4214:4216   */\n      0x40\n        /* \"#utility.yul\":4240:4293   */\n      tag_202\n        /* \"#utility.yul\":4285:4292   */\n      dup7\n        /* \"#utility.yul\":4276:4282   */\n      dup3\n        /* \"#utility.yul\":4265:4274   */\n      dup8\n        /* \"#utility.yul\":4261:4283   */\n      add\n        /* \"#utility.yul\":4240:4293   */\n      tag_138\n      jump\t// in\n    tag_202:\n        /* \"#utility.yul\":4230:4293   */\n      swap2\n      pop\n        /* \"#utility.yul\":4185:4303   */\n      pop\n        /* \"#utility.yul\":3691:4310   */\n      swap3\n      pop\n      swap3\n      pop\n      swap3\n      jump\t// out\n        /* \"#utility.yul\":4316:4402   */\n    tag_142:\n        /* \"#utility.yul\":4351:4358   */\n      0x00\n        /* \"#utility.yul\":4391:4395   */\n      0xff\n        /* \"#utility.yul\":4384:4389   */\n      dup3\n        /* \"#utility.yul\":4380:4396   */\n      and\n        /* \"#utility.yul\":4369:4396   */\n      swap1\n      pop\n        /* \"#utility.yul\":4316:4402   */\n      swap2\n      swap1\n      pop\n      jump\t// out\n        /* \"#utility.yul\":4408:4520   */\n    tag_143:\n        /* \"#utility.yul\":4491:4513   */\n      tag_205\n        /* \"#utility.yul\":4507:4512   */\n      dup2\n        /* \"#utility.yul\":4491:4513   */\n      tag_142\n      jump\t// in\n    tag_205:\n        /* \"#utility.yul\":4486:4489   */\n      dup3\n        /* \"#utility.yul\":4479:4514   */\n      mstore\n        /* \"#utility.yul\":4408:4520   */\n      pop\n      pop\n      jump\t// out\n        /* \"#utility.yul\":4526:4740   */\n    tag_37:\n        /* \"#utility.yul\":4615:4619   */\n      0x00\n        /* \"#utility.yul\":4653:4655   */\n      0x20\n        /* \"#utility.yul\":4642:4651   */\n      dup3\n        /* \"#utility.yul\":4638:4656   */\n      add\n        /* \"#utility.yul\":4630:4656   */\n      swap1\n      pop\n        /* \"#utility.yul\":4666:4733   */\n      tag_207\n        /* \"#utility.yul\":4730:4731   */\n      0x00\n        /* \"#utility.yul\":4719:4728   */\n      dup4\n        /* \"#utility.yul\":4715:4732   */\n      add\n        /* \"#utility.yul\":4706:4712   */\n      dup5\n        /* \"#utility.yul\":4666:4733   */\n      tag_143\n      jump\t// in\n    tag_207:\n        /* \"#utility.yul\":4526:4740   */\n      swap3\n      swap2\n      pop\n      pop\n      jump\t// out\n        /* \"#utility.yul\":4746:5075   */\n    tag_40:\n        /* \"#utility.yul\":4805:4811   */\n      0x00\n        /* \"#utility.yul\":4854:4856   */\n      0x20\n        /* \"#utility.yul\":4842:4851   */\n      dup3\n        /* \"#utility.yul\":4833:4840   */\n      dup5\n        /* \"#utility.yul\":4829:4852   */\n      sub\n        /* \"#utility.yul\":4825:4857   */\n      slt\n        /* \"#utility.yul\":4822:4941   */\n      iszero\n      tag_209\n      jumpi\n        /* \"#utility.yul\":4860:4939   */\n      tag_210\n      tag_130\n      jump\t// in\n    tag_210:\n        /* \"#utility.yul\":4822:4941   */\n    tag_209:\n        /* \"#utility.yul\":4980:4981   */\n      0x00\n        /* \"#utility.yul\":5005:5058   */\n      tag_211\n        /* \"#utility.yul\":5050:5057   */\n      dup5\n        /* \"#utility.yul\":5041:5047   */\n      dup3\n        /* \"#utility.yul\":5030:5039   */\n      dup6\n        /* \"#utility.yul\":5026:5048   */\n      add\n        /* \"#utility.yul\":5005:5058   */\n      tag_138\n      jump\t// in\n    tag_211:\n        /* \"#utility.yul\":4995:5058   */\n      swap2\n      pop\n        /* \"#utility.yul\":4951:5068   */\n      pop\n        /* \"#utility.yul\":4746:5075   */\n      swap3\n      swap2\n      pop\n      pop\n      jump\t// out\n        /* \"#utility.yul\":5081:5410   */\n    tag_44:\n        /* \"#utility.yul\":5140:5146   */\n      0x00\n        /* \"#utility.yul\":5189:5191   */\n      0x20\n        /* \"#utility.yul\":5177:5186   */\n      dup3\n        /* \"#utility.yul\":5168:5175   */\n      dup5\n        /* \"#utility.yul\":5164:5187   */\n      sub\n        /* \"#utility.yul\":5160:5192   */\n      slt\n        /* \"#utility.yul\":5157:5276   */\n      iszero\n      tag_213\n      jumpi\n        /* \"#utility.yul\":5195:5274   */\n      tag_214\n      tag_130\n      jump\t// in\n    tag_214:\n        /* \"#utility.yul\":5157:5276   */\n    tag_213:\n        /* \"#utility.yul\":5315:5316   */\n      0x00\n        /* \"#utility.yul\":5340:5393   */\n      tag_215\n        /* \"#utility.yul\":5385:5392   */\n      dup5\n        /* \"#utility.yul\":5376:5382   */\n      dup3\n        /* \"#utility.yul\":5365:5374   */\n      dup6\n        /* \"#utility.yul\":5361:5383   */\n      add\n        /* \"#utility.yul\":5340:5393   */\n      tag_135\n      jump\t// in\n    tag_215:\n        /* \"#utility.yul\":5330:5393   */\n      swap2\n      pop\n        /* \"#utility.yul\":5286:5403   */\n      pop\n        /* \"#utility.yul\":5081:5410   */\n      swap3\n      swap2\n      pop\n      pop\n      jump\t// out\n        /* \"#utility.yul\":5416:5890   */\n    tag_59:\n        /* \"#utility.yul\":5484:5490   */\n      0x00\n        /* \"#utility.yul\":5492:5498   */\n      0x00\n        /* \"#utility.yul\":5541:5543   */\n      0x40\n        /* \"#utility.yul\":5529:5538   */\n      dup4\n        /* \"#utility.yul\":5520:5527   */\n      dup6\n        /* \"#utility.yul\":5516:5539   */\n      sub\n        /* \"#utility.yul\":5512:5544   */\n      slt\n        /* \"#utility.yul\":5509:5628   */\n      iszero\n      tag_217\n      jumpi\n        /* \"#utility.yul\":5547:5626   */\n      tag_218\n      tag_130\n      jump\t// in\n    tag_218:\n        /* \"#utility.yul\":5509:5628   */\n    tag_217:\n        /* \"#utility.yul\":5667:5668   */\n      0x00\n        /* \"#utility.yul\":5692:5745   */\n      tag_219\n        /* \"#utility.yul\":5737:5744   */\n      dup6\n        /* \"#utility.yul\":5728:5734   */\n      dup3\n        /* \"#utility.yul\":5717:5726   */\n      dup7\n        /* \"#utility.yul\":5713:5735   */\n      add\n        /* \"#utility.yul\":5692:5745   */\n      tag_135\n      jump\t// in\n    tag_219:\n        /* \"#utility.yul\":5682:5745   */\n      swap3\n      pop\n        /* \"#utility.yul\":5638:5755   */\n      pop\n        /* \"#utility.yul\":5794:5796   */\n      0x20\n        /* \"#utility.yul\":5820:5873   */\n      tag_220\n        /* \"#utility.yul\":5865:5872   */\n      dup6\n        /* \"#utility.yul\":5856:5862   */\n      dup3\n        /* \"#utility.yul\":5845:5854   */\n      dup7\n        /* \"#utility.yul\":5841:5863   */\n      add\n        /* \"#utility.yul\":5820:5873   */\n      tag_135\n      jump\t// in\n    tag_220:\n        /* \"#utility.yul\":5810:5873   */\n      swap2\n      pop\n        /* \"#utility.yul\":5765:5883   */\n      pop\n        /* \"#utility.yul\":5416:5890   */\n      swap3\n      pop\n      swap3\n      swap1\n      pop\n      jump\t// out\n        /* \"#utility.yul\":5896:6076   */\n    tag_144:\n        /* \"#utility.yul\":5944:6021   */\n      0x4e487b7100000000000000000000000000000000000000000000000000000000\n        /* \"#utility.yul\":5941:5942   */\n      0x00\n        /* \"#utility.yul\":5934:6022   */\n      mstore\n        /* \"#utility.yul\":6041:6045   */\n      0x22\n        /* \"#utility.yul\":6038:6039   */\n      0x04\n        /* \"#utility.yul\":6031:6046   */\n      mstore\n        /* \"#utility.yul\":6065:6069   */\n      0x24\n        /* \"#utility.yul\":6062:6063   */\n      0x00\n        /* \"#utility.yul\":6055:6070   */\n      revert\n        /* \"#utility.yul\":6082:6402   */\n    tag_64:\n        /* \"#utility.yul\":6126:6132   */\n      0x00\n        /* \"#utility.yul\":6163:6164   */\n      0x02\n        /* \"#utility.yul\":6157:6161   */\n      dup3\n        /* \"#utility.yul\":6153:6165   */\n      div\n        /* \"#utility.yul\":6143:6165   */\n      swap1\n      pop\n        /* \"#utility.yul\":6210:6211   */\n      0x01\n        /* \"#utility.yul\":6204:6208   */\n      dup3\n        /* \"#utility.yul\":6200:6212   */\n      and\n        /* \"#utility.yul\":6231:6249   */\n      dup1\n        /* \"#utility.yul\":6221:6302   */\n      tag_223\n      jumpi\n        /* \"#utility.yul\":6287:6291   */\n      0x7f\n        /* \"#utility.yul\":6279:6285   */\n      dup3\n        /* \"#utility.yul\":6275:6292   */\n      and\n        /* \"#utility.yul\":6265:6292   */\n      swap2\n      pop\n        /* \"#utility.yul\":6221:6302   */\n    tag_223:\n        /* \"#utility.yul\":6349:6351   */\n      0x20\n        /* \"#utility.yul\":6341:6347   */\n      dup3\n        /* \"#utility.yul\":6338:6352   */\n      lt\n        /* \"#utility.yul\":6318:6336   */\n      dup2\n        /* \"#utility.yul\":6315:6353   */\n      sub\n        /* \"#utility.yul\":6312:6396   */\n      tag_224\n      jumpi\n        /* \"#utility.yul\":6368:6386   */\n      tag_225\n      tag_144\n      jump\t// in\n    tag_225:\n        /* \"#utility.yul\":6312:6396   */\n    tag_224:\n        /* \"#utility.yul\":6133:6402   */\n      pop\n        /* \"#utility.yul\":6082:6402   */\n      swap2\n      swap1\n      pop\n      jump\t// out\n        /* \"#utility.yul\":6408:6573   */\n    tag_145:\n        /* \"#utility.yul\":6548:6565   */\n      0x496e76616c696420616464726573730000000000000000000000000000000000\n        /* \"#utility.yul\":6544:6545   */\n      0x00\n        /* \"#utility.yul\":6536:6542   */\n      dup3\n        /* \"#utility.yul\":6532:6546   */\n      add\n        /* \"#utility.yul\":6525:6566   */\n      mstore\n        /* \"#utility.yul\":6408:6573   */\n      pop\n      jump\t// out\n        /* \"#utility.yul\":6579:6945   */\n    tag_146:\n        /* \"#utility.yul\":6721:6724   */\n      0x00\n        /* \"#utility.yul\":6742:6809   */\n      tag_228\n        /* \"#utility.yul\":6806:6808   */\n      0x0f\n        /* \"#utility.yul\":6801:6804   */\n      dup4\n        /* \"#utility.yul\":6742:6809   */\n      tag_125\n      jump\t// in\n    tag_228:\n        /* \"#utility.yul\":6735:6809   */\n      swap2\n      pop\n        /* \"#utility.yul\":6818:6911   */\n      tag_229\n        /* \"#utility.yul\":6907:6910   */\n      dup3\n        /* \"#utility.yul\":6818:6911   */\n      tag_145\n      jump\t// in\n    tag_229:\n        /* \"#utility.yul\":6936:6938   */\n      0x20\n        /* \"#utility.yul\":6931:6934   */\n      dup3\n        /* \"#utility.yul\":6927:6939   */\n      add\n        /* \"#utility.yul\":6920:6939   */\n      swap1\n      pop\n        /* \"#utility.yul\":6579:6945   */\n      swap2\n      swap1\n      pop\n      jump\t// out\n        /* \"#utility.yul\":6951:7370   */\n    tag_72:\n        /* \"#utility.yul\":7117:7121   */\n      0x00\n        /* \"#utility.yul\":7155:7157   */\n      0x20\n        /* \"#utility.yul\":7144:7153   */\n      dup3\n        /* \"#utility.yul\":7140:7158   */\n      add\n        /* \"#utility.yul\":7132:7158   */\n      swap1\n      pop\n        /* \"#utility.yul\":7204:7213   */\n      dup2\n        /* \"#utility.yul\":7198:7202   */\n      dup2\n        /* \"#utility.yul\":7194:7214   */\n      sub\n        /* \"#utility.yul\":7190:7191   */\n      0x00\n        /* \"#utility.yul\":7179:7188   */\n      dup4\n        /* \"#utility.yul\":7175:7192   */\n      add\n        /* \"#utility.yul\":7168:7215   */\n      mstore\n        /* \"#utility.yul\":7232:7363   */\n      tag_231\n        /* \"#utility.yul\":7358:7362   */\n      dup2\n        /* \"#utility.yul\":7232:7363   */\n      tag_146\n      jump\t// in\n    tag_231:\n        /* \"#utility.yul\":7224:7363   */\n      swap1\n      pop\n        /* \"#utility.yul\":6951:7370   */\n      swap2\n      swap1\n      pop\n      jump\t// out\n        /* \"#utility.yul\":7376:7546   */\n    tag_147:\n        /* \"#utility.yul\":7516:7538   */\n      0x496e73756666696369656e742062616c616e6365000000000000000000000000\n        /* \"#utility.yul\":7512:7513   */\n      0x00\n        /* \"#utility.yul\":7504:7510   */\n      dup3\n        /* \"#utility.yul\":7500:7514   */\n      add\n        /* \"#utility.yul\":7493:7539   */\n      mstore\n        /* \"#utility.yul\":7376:7546   */\n      pop\n      jump\t// out\n        /* \"#utility.yul\":7552:7918   */\n    tag_148:\n        /* \"#utility.yul\":7694:7697   */\n      0x00\n        /* \"#utility.yul\":7715:7782   */\n      tag_234\n        /* \"#utility.yul\":7779:7781   */\n      0x14\n        /* \"#utility.yul\":7774:7777   */\n      dup4\n        /* \"#utility.yul\":7715:7782   */\n      tag_125\n      jump\t// in\n    tag_234:\n        /* \"#utility.yul\":7708:7782   */\n      swap2\n      pop\n        /* \"#utility.yul\":7791:7884   */\n      tag_235\n        /* \"#utility.yul\":7880:7883   */\n      dup3\n        /* \"#utility.yul\":7791:7884   */\n      tag_147\n      jump\t// in\n    tag_235:\n        /* \"#utility.yul\":7909:7911   */\n      0x20\n        /* \"#utility.yul\":7904:7907   */\n      dup3\n        /* \"#utility.yul\":7900:7912   */\n      add\n        /* \"#utility.yul\":7893:7912   */\n      swap1\n      pop\n        /* \"#utility.yul\":7552:7918   */\n      swap2\n      swap1\n      pop\n      jump\t// out\n        /* \"#utility.yul\":7924:8343   */\n    tag_75:\n        /* \"#utility.yul\":8090:8094   */\n      0x00\n        /* \"#utility.yul\":8128:8130   */\n      0x20\n        /* \"#utility.yul\":8117:8126   */\n      dup3\n        /* \"#utility.yul\":8113:8131   */\n      add\n        /* \"#utility.yul\":8105:8131   */\n      swap1\n      pop\n        /* \"#utility.yul\":8177:8186   */\n      dup2\n        /* \"#utility.yul\":8171:8175   */\n      dup2\n        /* \"#utility.yul\":8167:8187   */\n      sub\n        /* \"#utility.yul\":8163:8164   */\n      0x00\n        /* \"#utility.yul\":8152:8161   */\n      dup4\n        /* \"#utility.yul\":8148:8165   */\n      add\n        /* \"#utility.yul\":8141:8188   */\n      mstore\n        /* \"#utility.yul\":8205:8336   */\n      tag_237\n        /* \"#utility.yul\":8331:8335   */\n      dup2\n        /* \"#utility.yul\":8205:8336   */\n      tag_148\n      jump\t// in\n    tag_237:\n        /* \"#utility.yul\":8197:8336   */\n      swap1\n      pop\n        /* \"#utility.yul\":7924:8343   */\n      swap2\n      swap1\n      pop\n      jump\t// out\n        /* \"#utility.yul\":8349:8521   */\n    tag_149:\n        /* \"#utility.yul\":8489:8513   */\n      0x496e73756666696369656e7420616c6c6f77616e636500000000000000000000\n        /* \"#utility.yul\":8485:8486   */\n      0x00\n        /* \"#utility.yul\":8477:8483   */\n      dup3\n        /* \"#utility.yul\":8473:8487   */\n      add\n        /* \"#utility.yul\":8466:8514   */\n      mstore\n        /* \"#utility.yul\":8349:8521   */\n      pop\n      jump\t// out\n        /* \"#utility.yul\":8527:8893   */\n    tag_150:\n        /* \"#utility.yul\":8669:8672   */\n      0x00\n        /* \"#utility.yul\":8690:8757   */\n      tag_240\n        /* \"#utility.yul\":8754:8756   */\n      0x16\n        /* \"#utility.yul\":8749:8752   */\n      dup4\n        /* \"#utility.yul\":8690:8757   */\n      tag_125\n      jump\t// in\n    tag_240:\n        /* \"#utility.yul\":8683:8757   */\n      swap2\n      pop\n        /* \"#utility.yul\":8766:8859   */\n      tag_241\n        /* \"#utility.yul\":8855:8858   */\n      dup3\n        /* \"#utility.yul\":8766:8859   */\n      tag_149\n      jump\t// in\n    tag_241:\n        /* \"#utility.yul\":8884:8886   */\n      0x20\n        /* \"#utility.yul\":8879:8882   */\n      dup3\n        /* \"#utility.yul\":8875:8887   */\n      add\n        /* \"#utility.yul\":8868:8887   */\n      swap1\n      pop\n        /* \"#utility.yul\":8527:8893   */\n      swap2\n      swap1\n      pop\n      jump\t// out\n        /* \"#utility.yul\":8899:9318   */\n    tag_83:\n        /* \"#utility.yul\":9065:9069   */\n      0x00\n        /* \"#utility.yul\":9103:9105   */\n      0x20\n        /* \"#utility.yul\":9092:9101   */\n      dup3\n        /* \"#utility.yul\":9088:9106   */\n      add\n        /* \"#utility.yul\":9080:9106   */\n      swap1\n      pop\n        /* \"#utility.yul\":9152:9161   */\n      dup2\n        /* \"#utility.yul\":9146:9150   */\n      dup2\n        /* \"#utility.yul\":9142:9162   */\n      sub\n        /* \"#utility.yul\":9138:9139   */\n      0x00\n        /* \"#utility.yul\":9127:9136   */\n      dup4\n        /* \"#utility.yul\":9123:9140   */\n      add\n        /* \"#utility.yul\":9116:9163   */\n      mstore\n        /* \"#utility.yul\":9180:9311   */\n      tag_243\n        /* \"#utility.yul\":9306:9310   */\n      dup2\n        /* \"#utility.yul\":9180:9311   */\n      tag_150\n      jump\t// in\n    tag_243:\n        /* \"#utility.yul\":9172:9311   */\n      swap1\n      pop\n        /* \"#utility.yul\":8899:9318   */\n      swap2\n      swap1\n      pop\n      jump\t// out\n        /* \"#utility.yul\":9324:9504   */\n    tag_151:\n        /* \"#utility.yul\":9372:9449   */\n      0x4e487b7100000000000000000000000000000000000000000000000000000000\n        /* \"#utility.yul\":9369:9370   */\n      0x00\n        /* \"#utility.yul\":9362:9450   */\n      mstore\n        /* \"#utility.yul\":9469:9473   */\n      0x11\n        /* \"#utility.yul\":9466:9467   */\n      0x04\n        /* \"#utility.yul\":9459:9474   */\n      mstore\n        /* \"#utility.yul\":9493:9497   */\n      0x24\n        /* \"#utility.yul\":9490:9491   */\n      0x00\n        /* \"#utility.yul\":9483:9498   */\n      revert\n        /* \"#utility.yul\":9510:9704   */\n    tag_87:\n        /* \"#utility.yul\":9550:9554   */\n      0x00\n        /* \"#utility.yul\":9570:9590   */\n      tag_246\n        /* \"#utility.yul\":9588:9589   */\n      dup3\n        /* \"#utility.yul\":9570:9590   */\n      tag_136\n      jump\t// in\n    tag_246:\n        /* \"#utility.yul\":9565:9590   */\n      swap2\n      pop\n        /* \"#utility.yul\":9604:9624   */\n      tag_247\n        /* \"#utility.yul\":9622:9623   */\n      dup4\n        /* \"#utility.yul\":9604:9624   */\n      tag_136\n      jump\t// in\n    tag_247:\n        /* \"#utility.yul\":9599:9624   */\n      swap3\n      pop\n        /* \"#utility.yul\":9648:9649   */\n      dup3\n        /* \"#utility.yul\":9645:9646   */\n      dup3\n        /* \"#utility.yul\":9641:9650   */\n      sub\n        /* \"#utility.yul\":9633:9650   */\n      swap1\n      pop\n        /* \"#utility.yul\":9672:9673   */\n      dup2\n        /* \"#utility.yul\":9666:9670   */\n      dup2\n        /* \"#utility.yul\":9663:9674   */\n      gt\n        /* \"#utility.yul\":9660:9697   */\n      iszero\n      tag_248\n      jumpi\n        /* \"#utility.yul\":9677:9695   */\n      tag_249\n      tag_151\n      jump\t// in\n    tag_249:\n        /* \"#utility.yul\":9660:9697   */\n    tag_248:\n        /* \"#utility.yul\":9510:9704   */\n      swap3\n      swap2\n      pop\n      pop\n      jump\t// out\n        /* \"#utility.yul\":9710:9901   */\n    tag_89:\n        /* \"#utility.yul\":9750:9753   */\n      0x00\n        /* \"#utility.yul\":9769:9789   */\n      tag_251\n        /* \"#utility.yul\":9787:9788   */\n      dup3\n        /* \"#utility.yul\":9769:9789   */\n      tag_136\n      jump\t// in\n    tag_251:\n        /* \"#utility.yul\":9764:9789   */\n      swap2\n      pop\n        /* \"#utility.yul\":9803:9823   */\n      tag_252\n        /* \"#utility.yul\":9821:9822   */\n      dup4\n        /* \"#utility.yul\":9803:9823   */\n      tag_136\n      jump\t// in\n    tag_252:\n        /* \"#utility.yul\":9798:9823   */\n      swap3\n      pop\n        /* \"#utility.yul\":9846:9847   */\n      dup3\n        /* \"#utility.yul\":9843:9844   */\n      dup3\n        /* \"#utility.yul\":9839:9848   */\n      add\n        /* \"#utility.yul\":9832:9848   */\n      swap1\n      pop\n        /* \"#utility.yul\":9867:9870   */\n      dup1\n        /* \"#utility.yul\":9864:9865   */\n      dup3\n        /* \"#utility.yul\":9861:9871   */\n      gt\n        /* \"#utility.yul\":9858:9894   */\n      iszero\n      tag_253\n      jumpi\n        /* \"#utility.yul\":9874:9892   */\n      tag_254\n      tag_151\n      jump\t// in\n    tag_254:\n        /* \"#utility.yul\":9858:9894   */\n    tag_253:\n        /* \"#utility.yul\":9710:9901   */\n      swap3\n      swap2\n      pop\n      pop\n      jump\t// out\n        /* \"#utility.yul\":9907:10074   */\n    tag_152:\n        /* \"#utility.yul\":10047:10066   */\n      0x596f7520617265206e6f74206f776e6572000000000000000000000000000000\n        /* \"#utility.yul\":10043:10044   */\n      0x00\n        /* \"#utility.yul\":10035:10041   */\n      dup3\n        /* \"#utility.yul\":10031:10045   */\n      add\n        /* \"#utility.yul\":10024:10067   */\n      mstore\n        /* \"#utility.yul\":9907:10074   */\n      pop\n      jump\t// out\n        /* \"#utility.yul\":10080:10446   */\n    tag_153:\n        /* \"#utility.yul\":10222:10225   */\n      0x00\n        /* \"#utility.yul\":10243:10310   */\n      tag_257\n        /* \"#utility.yul\":10307:10309   */\n      0x11\n        /* \"#utility.yul\":10302:10305   */\n      dup4\n        /* \"#utility.yul\":10243:10310   */\n      tag_125\n      jump\t// in\n    tag_257:\n        /* \"#utility.yul\":10236:10310   */\n      swap2\n      pop\n        /* \"#utility.yul\":10319:10412   */\n      tag_258\n        /* \"#utility.yul\":10408:10411   */\n      dup3\n        /* \"#utility.yul\":10319:10412   */\n      tag_152\n      jump\t// in\n    tag_258:\n        /* \"#utility.yul\":10437:10439   */\n      0x20\n        /* \"#utility.yul\":10432:10435   */\n      dup3\n        /* \"#utility.yul\":10428:10440   */\n      add\n        /* \"#utility.yul\":10421:10440   */\n      swap1\n      pop\n        /* \"#utility.yul\":10080:10446   */\n      swap2\n      swap1\n      pop\n      jump\t// out\n        /* \"#utility.yul\":10452:10871   */\n    tag_96:\n        /* \"#utility.yul\":10618:10622   */\n      0x00\n        /* \"#utility.yul\":10656:10658   */\n      0x20\n        /* \"#utility.yul\":10645:10654   */\n      dup3\n        /* \"#utility.yul\":10641:10659   */\n      add\n        /* \"#utility.yul\":10633:10659   */\n      swap1\n      pop\n        /* \"#utility.yul\":10705:10714   */\n      dup2\n        /* \"#utility.yul\":10699:10703   */\n      dup2\n        /* \"#utility.yul\":10695:10715   */\n      sub\n        /* \"#utility.yul\":10691:10692   */\n      0x00\n        /* \"#utility.yul\":10680:10689   */\n      dup4\n        /* \"#utility.yul\":10676:10693   */\n      add\n        /* \"#utility.yul\":10669:10716   */\n      mstore\n        /* \"#utility.yul\":10733:10864   */\n      tag_260\n        /* \"#utility.yul\":10859:10863   */\n      dup2\n        /* \"#utility.yul\":10733:10864   */\n      tag_153\n      jump\t// in\n    tag_260:\n        /* \"#utility.yul\":10725:10864   */\n      swap1\n      pop\n        /* \"#utility.yul\":10452:10871   */\n      swap2\n      swap1\n      pop\n      jump\t// out\n\n    auxdata: 0xa26469706673582212202f367165ae506bae553a1a53d344e437f609b9c40ef5412a4006a76a02c38c3364736f6c634300081f0033\n}\n",
				"bytecode": {
					"linkReferences": {},
					"object": "608060405234801561000f575f5ffd5b503360015f6101000a81548173ffffffffffffffffffffffffffffffffffffffff021916908373ffffffffffffffffffffffffffffffffffffffff1602179055503373ffffffffffffffffffffffffffffffffffffffff165f73ffffffffffffffffffffffffffffffffffffffff167fddf252ad1be2c89b69c2b068fc378daa952ba7f163c4a11628f55a4df523b3ef6103e86040516100af91906101f8565b60405180910390a36103e85f5f3373ffffffffffffffffffffffffffffffffffffffff1673ffffffffffffffffffffffffffffffffffffffff1681526020019081526020015f20819055506103e86002819055506040518060400160405280600a81526020017f556a6a77616c436f696e0000000000000000000000000000000000000000000081525060039081610147919061043c565b506040518060400160405280600381526020017f554a4300000000000000000000000000000000000000000000000000000000008152506004908161018c919061043c565b50601260055f6101000a81548160ff021916908360ff16021790555061050b565b5f819050919050565b5f819050919050565b5f819050919050565b5f6101e26101dd6101d8846101ad565b6101bf565b6101b6565b9050919050565b6101f2816101c8565b82525050565b5f60208201905061020b5f8301846101e9565b92915050565b5f81519050919050565b7f4e487b71000000000000000000000000000000000000000000000000000000005f52604160045260245ffd5b7f4e487b71000000000000000000000000000000000000000000000000000000005f52602260045260245ffd5b5f600282049050600182168061028c57607f821691505b60208210810361029f5761029e610248565b5b50919050565b5f819050815f5260205f209050919050565b5f6020601f8301049050919050565b5f82821b905092915050565b5f600883026103017fffffffffffffffffffffffffffffffffffffffffffffffffffffffffffffffff826102c6565b61030b86836102c6565b95508019841693508086168417925050509392505050565b5f61033d610338610333846101b6565b6101bf565b6101b6565b9050919050565b5f819050919050565b61035683610323565b61036a61036282610344565b8484546102d2565b825550505050565b5f5f905090565b610381610372565b61038c81848461034d565b505050565b5b818110156103af576103a45f82610379565b600181019050610392565b5050565b601f8211156103f4576103c5816102a5565b6103ce846102b7565b810160208510156103dd578190505b6103f16103e9856102b7565b830182610391565b50505b505050565b5f82821c905092915050565b5f6104145f19846008026103f9565b1980831691505092915050565b5f61042c8383610405565b9150826002028217905092915050565b61044582610211565b67ffffffffffffffff81111561045e5761045d61021b565b5b6104688254610275565b6104738282856103b3565b5f60209050601f8311600181146104a4575f8415610492578287015190505b61049c8582610421565b865550610503565b601f1984166104b2866102a5565b5f5b828110156104d9578489015182556001820191506020850194506020810190506104b4565b868310156104f657848901516104f2601f891682610405565b8355505b6001600288020188555050505b505050505050565b611412806105185f395ff3fe608060405234801561000f575f5ffd5b50600436106100a7575f3560e01c806342966c681161006f57806342966c681461016557806370a082311461018157806395d89b41146101b1578063a0712d68146101cf578063a9059cbb146101eb578063dd62ed3e1461021b576100a7565b806306fdde03146100ab578063095ea7b3146100c957806318160ddd146100f957806323b872dd14610117578063313ce56714610147575b5f5ffd5b6100b361024b565b6040516100c09190610eea565b60405180910390f35b6100e360048036038101906100de9190610f9b565b6102db565b6040516100f09190610ff3565b60405180910390f35b6101016104b5565b60405161010e919061101b565b60405180910390f35b610131600480360381019061012c9190611034565b6104be565b60405161013e9190610ff3565b60405180910390f35b61014f610809565b60405161015c919061109f565b60405180910390f35b61017f600480360381019061017a91906110b8565b61081e565b005b61019b600480360381019061019691906110e3565b6109a0565b6040516101a8919061101b565b60405180910390f35b6101b96109e5565b6040516101c69190610eea565b60405180910390f35b6101e960048036038101906101e491906110b8565b610a75565b005b61020560048036038101906102009190610f9b565b610bf7565b6040516102129190610ff3565b60405180910390f35b6102356004803603810190610230919061110e565b610df8565b604051610242919061101b565b60405180910390f35b60606003805461025a90611179565b80601f016020809104026020016040519081016040528092919081815260200182805461028690611179565b80156102d15780601f106102a8576101008083540402835291602001916102d1565b820191905f5260205f20905b8154815290600101906020018083116102b457829003601f168201915b5050505050905090565b5f8273ffffffffffffffffffffffffffffffffffffffff165f73ffffffffffffffffffffffffffffffffffffffff160361034a576040517f08c379a0000000000000000000000000000000000000000000000000000000008152600401610341906111f3565b60405180910390fd5b815f5f3373ffffffffffffffffffffffffffffffffffffffff1673ffffffffffffffffffffffffffffffffffffffff1681526020019081526020015f205410156103c9576040517f08c379a00000000000000000000000000000000000000000000000000000000081526004016103c09061125b565b60405180910390fd5b8160065f3373ffffffffffffffffffffffffffffffffffffffff1673ffffffffffffffffffffffffffffffffffffffff1681526020019081526020015f205f8573ffffffffffffffffffffffffffffffffffffffff1673ffffffffffffffffffffffffffffffffffffffff1681526020019081526020015f20819055508273ffffffffffffffffffffffffffffffffffffffff163373ffffffffffffffffffffffffffffffffffffffff167f8c5be1e5ebec7d5bd14f71427d1e84f3dd0314c0f7b2291e5b200ac8c7c3b925846040516104a3919061101b565b60405180910390a36001905092915050565b5f600254905090565b5f815f5f8673ffffffffffffffffffffffffffffffffffffffff1673ffffffffffffffffffffffffffffffffffffffff1681526020019081526020015f2054101561053e576040517f08c379a00000000000000000000000000000000000000000000000000000000081526004016105359061125b565b60405180910390fd5b8160065f8673ffffffffffffffffffffffffffffffffffffffff1673ffffffffffffffffffffffffffffffffffffffff1681526020019081526020015f205f3373ffffffffffffffffffffffffffffffffffffffff1673ffffffffffffffffffffffffffffffffffffffff1681526020019081526020015f205410156105f9576040517f08c379a00000000000000000000000000000000000000000000000000000000081526004016105f0906112c3565b60405180910390fd5b8273ffffffffffffffffffffffffffffffffffffffff165f73ffffffffffffffffffffffffffffffffffffffff1603610667576040517f08c379a000000000000000000000000000000000000000000000000000000000815260040161065e906111f3565b60405180910390fd5b815f5f8673ffffffffffffffffffffffffffffffffffffffff1673ffffffffffffffffffffffffffffffffffffffff1681526020019081526020015f205f8282546106b2919061130e565b92505081905550815f5f8573ffffffffffffffffffffffffffffffffffffffff1673ffffffffffffffffffffffffffffffffffffffff1681526020019081526020015f205f8282546107049190611341565b925050819055508160065f8673ffffffffffffffffffffffffffffffffffffffff1673ffffffffffffffffffffffffffffffffffffffff1681526020019081526020015f205f3373ffffffffffffffffffffffffffffffffffffffff1673ffffffffffffffffffffffffffffffffffffffff1681526020019081526020015f205f828254610792919061130e565b925050819055508273ffffffffffffffffffffffffffffffffffffffff168473ffffffffffffffffffffffffffffffffffffffff167fddf252ad1be2c89b69c2b068fc378daa952ba7f163c4a11628f55a4df523b3ef846040516107f6919061101b565b60405180910390a3600190509392505050565b5f60055f9054906101000a900460ff16905090565b3373ffffffffffffffffffffffffffffffffffffffff1660015f9054906101000a900473ffffffffffffffffffffffffffffffffffffffff1673ffffffffffffffffffffffffffffffffffffffff16146108ad576040517f08c379a00000000000000000000000000000000000000000000000000000000081526004016108a4906113be565b60405180910390fd5b805f5f60015f9054906101000a900473ffffffffffffffffffffffffffffffffffffffff1673ffffffffffffffffffffffffffffffffffffffff1673ffffffffffffffffffffffffffffffffffffffff1681526020019081526020015f205f828254610919919061130e565b925050819055508060025f828254610931919061130e565b925050819055505f73ffffffffffffffffffffffffffffffffffffffff163373ffffffffffffffffffffffffffffffffffffffff167fddf252ad1be2c89b69c2b068fc378daa952ba7f163c4a11628f55a4df523b3ef83604051610995919061101b565b60405180910390a350565b5f5f5f8373ffffffffffffffffffffffffffffffffffffffff1673ffffffffffffffffffffffffffffffffffffffff1681526020019081526020015f20549050919050565b6060600480546109f490611179565b80601f0160208091040260200160405190810160405280929190818152602001828054610a2090611179565b8015610a6b5780601f10610a4257610100808354040283529160200191610a6b565b820191905f5260205f20905b815481529060010190602001808311610a4e57829003601f168201915b5050505050905090565b3373ffffffffffffffffffffffffffffffffffffffff1660015f9054906101000a900473ffffffffffffffffffffffffffffffffffffffff1673ffffffffffffffffffffffffffffffffffffffff1614610b04576040517f08c379a0000000000000000000000000000000000000000000000000000000008152600401610afb906113be565b60405180910390fd5b805f5f60015f9054906101000a900473ffffffffffffffffffffffffffffffffffffffff1673ffffffffffffffffffffffffffffffffffffffff1673ffffffffffffffffffffffffffffffffffffffff1681526020019081526020015f205f828254610b709190611341565b925050819055503373ffffffffffffffffffffffffffffffffffffffff165f73ffffffffffffffffffffffffffffffffffffffff167fddf252ad1be2c89b69c2b068fc378daa952ba7f163c4a11628f55a4df523b3ef83604051610bd4919061101b565b60405180910390a38060025f828254610bed919061130e565b9250508190555050565b5f815f5f3373ffffffffffffffffffffffffffffffffffffffff1673ffffffffffffffffffffffffffffffffffffffff1681526020019081526020015f20541015610c77576040517f08c379a0000000000000000000000000000000000000000000000000000000008152600401610c6e9061125b565b60405180910390fd5b8273ffffffffffffffffffffffffffffffffffffffff165f73ffffffffffffffffffffffffffffffffffffffff1603610ce5576040517f08c379a0000000000000000000000000000000000000000000000000000000008152600401610cdc906111f3565b60405180910390fd5b815f5f3373ffffffffffffffffffffffffffffffffffffffff1673ffffffffffffffffffffffffffffffffffffffff1681526020019081526020015f205f828254610d30919061130e565b92505081905550815f5f8573ffffffffffffffffffffffffffffffffffffffff1673ffffffffffffffffffffffffffffffffffffffff1681526020019081526020015f205f828254610d829190611341565b925050819055508273ffffffffffffffffffffffffffffffffffffffff163373ffffffffffffffffffffffffffffffffffffffff167fddf252ad1be2c89b69c2b068fc378daa952ba7f163c4a11628f55a4df523b3ef84604051610de6919061101b565b60405180910390a36001905092915050565b5f60065f8473ffffffffffffffffffffffffffffffffffffffff1673ffffffffffffffffffffffffffffffffffffffff1681526020019081526020015f205f8373ffffffffffffffffffffffffffffffffffffffff1673ffffffffffffffffffffffffffffffffffffffff1681526020019081526020015f2054905092915050565b5f81519050919050565b5f82825260208201905092915050565b8281835e5f83830152505050565b5f601f19601f8301169050919050565b5f610ebc82610e7a565b610ec68185610e84565b9350610ed6818560208601610e94565b610edf81610ea2565b840191505092915050565b5f6020820190508181035f830152610f028184610eb2565b905092915050565b5f5ffd5b5f73ffffffffffffffffffffffffffffffffffffffff82169050919050565b5f610f3782610f0e565b9050919050565b610f4781610f2d565b8114610f51575f5ffd5b50565b5f81359050610f6281610f3e565b92915050565b5f819050919050565b610f7a81610f68565b8114610f84575f5ffd5b50565b5f81359050610f9581610f71565b92915050565b5f5f60408385031215610fb157610fb0610f0a565b5b5f610fbe85828601610f54565b9250506020610fcf85828601610f87565b9150509250929050565b5f8115159050919050565b610fed81610fd9565b82525050565b5f6020820190506110065f830184610fe4565b92915050565b61101581610f68565b82525050565b5f60208201905061102e5f83018461100c565b92915050565b5f5f5f6060848603121561104b5761104a610f0a565b5b5f61105886828701610f54565b935050602061106986828701610f54565b925050604061107a86828701610f87565b9150509250925092565b5f60ff82169050919050565b61109981611084565b82525050565b5f6020820190506110b25f830184611090565b92915050565b5f602082840312156110cd576110cc610f0a565b5b5f6110da84828501610f87565b91505092915050565b5f602082840312156110f8576110f7610f0a565b5b5f61110584828501610f54565b91505092915050565b5f5f6040838503121561112457611123610f0a565b5b5f61113185828601610f54565b925050602061114285828601610f54565b9150509250929050565b7f4e487b71000000000000000000000000000000000000000000000000000000005f52602260045260245ffd5b5f600282049050600182168061119057607f821691505b6020821081036111a3576111a261114c565b5b50919050565b7f496e76616c6964206164647265737300000000000000000000000000000000005f82015250565b5f6111dd600f83610e84565b91506111e8826111a9565b602082019050919050565b5f6020820190508181035f83015261120a816111d1565b9050919050565b7f496e73756666696369656e742062616c616e63650000000000000000000000005f82015250565b5f611245601483610e84565b915061125082611211565b602082019050919050565b5f6020820190508181035f83015261127281611239565b9050919050565b7f496e73756666696369656e7420616c6c6f77616e6365000000000000000000005f82015250565b5f6112ad601683610e84565b91506112b882611279565b602082019050919050565b5f6020820190508181035f8301526112da816112a1565b9050919050565b7f4e487b71000000000000000000000000000000000000000000000000000000005f52601160045260245ffd5b5f61131882610f68565b915061132383610f68565b925082820390508181111561133b5761133a6112e1565b5b92915050565b5f61134b82610f68565b915061135683610f68565b925082820190508082111561136e5761136d6112e1565b5b92915050565b7f596f7520617265206e6f74206f776e65720000000000000000000000000000005f82015250565b5f6113a8601183610e84565b91506113b382611374565b602082019050919050565b5f6020820190508181035f8301526113d58161139c565b905091905056fea26469706673582212202f367165ae506bae553a1a53d344e437f609b9c40ef5412a4006a76a02c38c3364736f6c634300081f0033",
					"opcodes": "PUSH1 0x80 PUSH1 0x40 MSTORE CALLVALUE DUP1 ISZERO PUSH2 0xF JUMPI PUSH0 PUSH0 REVERT JUMPDEST POP CALLER PUSH1 0x1 PUSH0 PUSH2 0x100 EXP DUP2 SLOAD DUP2 PUSH20 0xFFFFFFFFFFFFFFFFFFFFFFFFFFFFFFFFFFFFFFFF MUL NOT AND SWAP1 DUP4 PUSH20 0xFFFFFFFFFFFFFFFFFFFFFFFFFFFFFFFFFFFFFFFF AND MUL OR SWAP1 SSTORE POP CALLER PUSH20 0xFFFFFFFFFFFFFFFFFFFFFFFFFFFFFFFFFFFFFFFF AND PUSH0 PUSH20 0xFFFFFFFFFFFFFFFFFFFFFFFFFFFFFFFFFFFFFFFF AND PUSH32 0xDDF252AD1BE2C89B69C2B068FC378DAA952BA7F163C4A11628F55A4DF523B3EF PUSH2 0x3E8 PUSH1 0x40 MLOAD PUSH2 0xAF SWAP2 SWAP1 PUSH2 0x1F8 JUMP JUMPDEST PUSH1 0x40 MLOAD DUP1 SWAP2 SUB SWAP1 LOG3 PUSH2 0x3E8 PUSH0 PUSH0 CALLER PUSH20 0xFFFFFFFFFFFFFFFFFFFFFFFFFFFFFFFFFFFFFFFF AND PUSH20 0xFFFFFFFFFFFFFFFFFFFFFFFFFFFFFFFFFFFFFFFF AND DUP2 MSTORE PUSH1 0x20 ADD SWAP1 DUP2 MSTORE PUSH1 0x20 ADD PUSH0 KECCAK256 DUP2 SWAP1 SSTORE POP PUSH2 0x3E8 PUSH1 0x2 DUP2 SWAP1 SSTORE POP PUSH1 0x40 MLOAD DUP1 PUSH1 0x40 ADD PUSH1 0x40 MSTORE DUP1 PUSH1 0xA DUP2 MSTORE PUSH1 0x20 ADD PUSH32 0x556A6A77616C436F696E00000000000000000000000000000000000000000000 DUP2 MSTORE POP PUSH1 0x3 SWAP1 DUP2 PUSH2 0x147 SWAP2 SWAP1 PUSH2 0x43C JUMP JUMPDEST POP PUSH1 0x40 MLOAD DUP1 PUSH1 0x40 ADD PUSH1 0x40 MSTORE DUP1 PUSH1 0x3 DUP2 MSTORE PUSH1 0x20 ADD PUSH32 0x554A430000000000000000000000000000000000000000000000000000000000 DUP2 MSTORE POP PUSH1 0x4 SWAP1 DUP2 PUSH2 0x18C SWAP2 SWAP1 PUSH2 0x43C JUMP JUMPDEST POP PUSH1 0x12 PUSH1 0x5 PUSH0 PUSH2 0x100 EXP DUP2 SLOAD DUP2 PUSH1 0xFF MUL NOT AND SWAP1 DUP4 PUSH1 0xFF AND MUL OR SWAP1 SSTORE POP PUSH2 0x50B JUMP JUMPDEST PUSH0 DUP2 SWAP1 POP SWAP2 SWAP1 POP JUMP JUMPDEST PUSH0 DUP2 SWAP1 POP SWAP2 SWAP1 POP JUMP JUMPDEST PUSH0 DUP2 SWAP1 POP SWAP2 SWAP1 POP JUMP JUMPDEST PUSH0 PUSH2 0x1E2 PUSH2 0x1DD PUSH2 0x1D8 DUP5 PUSH2 0x1AD JUMP JUMPDEST PUSH2 0x1BF JUMP JUMPDEST PUSH2 0x1B6 JUMP JUMPDEST SWAP1 POP SWAP2 SWAP1 POP JUMP JUMPDEST PUSH2 0x1F2 DUP2 PUSH2 0x1C8 JUMP JUMPDEST DUP3 MSTORE POP POP JUMP JUMPDEST PUSH0 PUSH1 0x20 DUP3 ADD SWAP1 POP PUSH2 0x20B PUSH0 DUP4 ADD DUP5 PUSH2 0x1E9 JUMP JUMPDEST SWAP3 SWAP2 POP POP JUMP JUMPDEST PUSH0 DUP2 MLOAD SWAP1 POP SWAP2 SWAP1 POP JUMP JUMPDEST PUSH32 0x4E487B7100000000000000000000000000000000000000000000000000000000 PUSH0 MSTORE PUSH1 0x41 PUSH1 0x4 MSTORE PUSH1 0x24 PUSH0 REVERT JUMPDEST PUSH32 0x4E487B7100000000000000000000000000000000000000000000000000000000 PUSH0 MSTORE PUSH1 0x22 PUSH1 0x4 MSTORE PUSH1 0x24 PUSH0 REVERT JUMPDEST PUSH0 PUSH1 0x2 DUP3 DIV SWAP1 POP PUSH1 0x1 DUP3 AND DUP1 PUSH2 0x28C JUMPI PUSH1 0x7F DUP3 AND SWAP2 POP JUMPDEST PUSH1 0x20 DUP3 LT DUP2 SUB PUSH2 0x29F JUMPI PUSH2 0x29E PUSH2 0x248 JUMP JUMPDEST JUMPDEST POP SWAP2 SWAP1 POP JUMP JUMPDEST PUSH0 DUP2 SWAP1 POP DUP2 PUSH0 MSTORE PUSH1 0x20 PUSH0 KECCAK256 SWAP1 POP SWAP2 SWAP1 POP JUMP JUMPDEST PUSH0 PUSH1 0x20 PUSH1 0x1F DUP4 ADD DIV SWAP1 POP SWAP2 SWAP1 POP JUMP JUMPDEST PUSH0 DUP3 DUP3 SHL SWAP1 POP SWAP3 SWAP2 POP POP JUMP JUMPDEST PUSH0 PUSH1 0x8 DUP4 MUL PUSH2 0x301 PUSH32 0xFFFFFFFFFFFFFFFFFFFFFFFFFFFFFFFFFFFFFFFFFFFFFFFFFFFFFFFFFFFFFFFF DUP3 PUSH2 0x2C6 JUMP JUMPDEST PUSH2 0x30B DUP7 DUP4 PUSH2 0x2C6 JUMP JUMPDEST SWAP6 POP DUP1 NOT DUP5 AND SWAP4 POP DUP1 DUP7 AND DUP5 OR SWAP3 POP POP POP SWAP4 SWAP3 POP POP POP JUMP JUMPDEST PUSH0 PUSH2 0x33D PUSH2 0x338 PUSH2 0x333 DUP5 PUSH2 0x1B6 JUMP JUMPDEST PUSH2 0x1BF JUMP JUMPDEST PUSH2 0x1B6 JUMP JUMPDEST SWAP1 POP SWAP2 SWAP1 POP JUMP JUMPDEST PUSH0 DUP2 SWAP1 POP SWAP2 SWAP1 POP JUMP JUMPDEST PUSH2 0x356 DUP4 PUSH2 0x323 JUMP JUMPDEST PUSH2 0x36A PUSH2 0x362 DUP3 PUSH2 0x344 JUMP JUMPDEST DUP5 DUP5 SLOAD PUSH2 0x2D2 JUMP JUMPDEST DUP3 SSTORE POP POP POP POP JUMP JUMPDEST PUSH0 PUSH0 SWAP1 POP SWAP1 JUMP JUMPDEST PUSH2 0x381 PUSH2 0x372 JUMP JUMPDEST PUSH2 0x38C DUP2 DUP5 DUP5 PUSH2 0x34D JUMP JUMPDEST POP POP POP JUMP JUMPDEST JUMPDEST DUP2 DUP2 LT ISZERO PUSH2 0x3AF JUMPI PUSH2 0x3A4 PUSH0 DUP3 PUSH2 0x379 JUMP JUMPDEST PUSH1 0x1 DUP2 ADD SWAP1 POP PUSH2 0x392 JUMP JUMPDEST POP POP JUMP JUMPDEST PUSH1 0x1F DUP3 GT ISZERO PUSH2 0x3F4 JUMPI PUSH2 0x3C5 DUP2 PUSH2 0x2A5 JUMP JUMPDEST PUSH2 0x3CE DUP5 PUSH2 0x2B7 JUMP JUMPDEST DUP2 ADD PUSH1 0x20 DUP6 LT ISZERO PUSH2 0x3DD JUMPI DUP2 SWAP1 POP JUMPDEST PUSH2 0x3F1 PUSH2 0x3E9 DUP6 PUSH2 0x2B7 JUMP JUMPDEST DUP4 ADD DUP3 PUSH2 0x391 JUMP JUMPDEST POP POP JUMPDEST POP POP POP JUMP JUMPDEST PUSH0 DUP3 DUP3 SHR SWAP1 POP SWAP3 SWAP2 POP POP JUMP JUMPDEST PUSH0 PUSH2 0x414 PUSH0 NOT DUP5 PUSH1 0x8 MUL PUSH2 0x3F9 JUMP JUMPDEST NOT DUP1 DUP4 AND SWAP2 POP POP SWAP3 SWAP2 POP POP JUMP JUMPDEST PUSH0 PUSH2 0x42C DUP4 DUP4 PUSH2 0x405 JUMP JUMPDEST SWAP2 POP DUP3 PUSH1 0x2 MUL DUP3 OR SWAP1 POP SWAP3 SWAP2 POP POP JUMP JUMPDEST PUSH2 0x445 DUP3 PUSH2 0x211 JUMP JUMPDEST PUSH8 0xFFFFFFFFFFFFFFFF DUP2 GT ISZERO PUSH2 0x45E JUMPI PUSH2 0x45D PUSH2 0x21B JUMP JUMPDEST JUMPDEST PUSH2 0x468 DUP3 SLOAD PUSH2 0x275 JUMP JUMPDEST PUSH2 0x473 DUP3 DUP3 DUP6 PUSH2 0x3B3 JUMP JUMPDEST PUSH0 PUSH1 0x20 SWAP1 POP PUSH1 0x1F DUP4 GT PUSH1 0x1 DUP2 EQ PUSH2 0x4A4 JUMPI PUSH0 DUP5 ISZERO PUSH2 0x492 JUMPI DUP3 DUP8 ADD MLOAD SWAP1 POP JUMPDEST PUSH2 0x49C DUP6 DUP3 PUSH2 0x421 JUMP JUMPDEST DUP7 SSTORE POP PUSH2 0x503 JUMP JUMPDEST PUSH1 0x1F NOT DUP5 AND PUSH2 0x4B2 DUP7 PUSH2 0x2A5 JUMP JUMPDEST PUSH0 JUMPDEST DUP3 DUP2 LT ISZERO PUSH2 0x4D9 JUMPI DUP5 DUP10 ADD MLOAD DUP3 SSTORE PUSH1 0x1 DUP3 ADD SWAP2 POP PUSH1 0x20 DUP6 ADD SWAP5 POP PUSH1 0x20 DUP2 ADD SWAP1 POP PUSH2 0x4B4 JUMP JUMPDEST DUP7 DUP4 LT ISZERO PUSH2 0x4F6 JUMPI DUP5 DUP10 ADD MLOAD PUSH2 0x4F2 PUSH1 0x1F DUP10 AND DUP3 PUSH2 0x405 JUMP JUMPDEST DUP4 SSTORE POP JUMPDEST PUSH1 0x1 PUSH1 0x2 DUP9 MUL ADD DUP9 SSTORE POP POP POP JUMPDEST POP POP POP POP POP POP JUMP JUMPDEST PUSH2 0x1412 DUP1 PUSH2 0x518 PUSH0 CODECOPY PUSH0 RETURN INVALID PUSH1 0x80 PUSH1 0x40 MSTORE CALLVALUE DUP1 ISZERO PUSH2 0xF JUMPI PUSH0 PUSH0 REVERT JUMPDEST POP PUSH1 0x4 CALLDATASIZE LT PUSH2 0xA7 JUMPI PUSH0 CALLDATALOAD PUSH1 0xE0 SHR DUP1 PUSH4 0x42966C68 GT PUSH2 0x6F JUMPI DUP1 PUSH4 0x42966C68 EQ PUSH2 0x165 JUMPI DUP1 PUSH4 0x70A08231 EQ PUSH2 0x181 JUMPI DUP1 PUSH4 0x95D89B41 EQ PUSH2 0x1B1 JUMPI DUP1 PUSH4 0xA0712D68 EQ PUSH2 0x1CF JUMPI DUP1 PUSH4 0xA9059CBB EQ PUSH2 0x1EB JUMPI DUP1 PUSH4 0xDD62ED3E EQ PUSH2 0x21B JUMPI PUSH2 0xA7 JUMP JUMPDEST DUP1 PUSH4 0x6FDDE03 EQ PUSH2 0xAB JUMPI DUP1 PUSH4 0x95EA7B3 EQ PUSH2 0xC9 JUMPI DUP1 PUSH4 0x18160DDD EQ PUSH2 0xF9 JUMPI DUP1 PUSH4 0x23B872DD EQ PUSH2 0x117 JUMPI DUP1 PUSH4 0x313CE567 EQ PUSH2 0x147 JUMPI JUMPDEST PUSH0 PUSH0 REVERT JUMPDEST PUSH2 0xB3 PUSH2 0x24B JUMP JUMPDEST PUSH1 0x40 MLOAD PUSH2 0xC0 SWAP2 SWAP1 PUSH2 0xEEA JUMP JUMPDEST PUSH1 0x40 MLOAD DUP1 SWAP2 SUB SWAP1 RETURN JUMPDEST PUSH2 0xE3 PUSH1 0x4 DUP1 CALLDATASIZE SUB DUP2 ADD SWAP1 PUSH2 0xDE SWAP2 SWAP1 PUSH2 0xF9B JUMP JUMPDEST PUSH2 0x2DB JUMP JUMPDEST PUSH1 0x40 MLOAD PUSH2 0xF0 SWAP2 SWAP1 PUSH2 0xFF3 JUMP JUMPDEST PUSH1 0x40 MLOAD DUP1 SWAP2 SUB SWAP1 RETURN JUMPDEST PUSH2 0x101 PUSH2 0x4B5 JUMP JUMPDEST PUSH1 0x40 MLOAD PUSH2 0x10E SWAP2 SWAP1 PUSH2 0x101B JUMP JUMPDEST PUSH1 0x40 MLOAD DUP1 SWAP2 SUB SWAP1 RETURN JUMPDEST PUSH2 0x131 PUSH1 0x4 DUP1 CALLDATASIZE SUB DUP2 ADD SWAP1 PUSH2 0x12C SWAP2 SWAP1 PUSH2 0x1034 JUMP JUMPDEST PUSH2 0x4BE JUMP JUMPDEST PUSH1 0x40 MLOAD PUSH2 0x13E SWAP2 SWAP1 PUSH2 0xFF3 JUMP JUMPDEST PUSH1 0x40 MLOAD DUP1 SWAP2 SUB SWAP1 RETURN JUMPDEST PUSH2 0x14F PUSH2 0x809 JUMP JUMPDEST PUSH1 0x40 MLOAD PUSH2 0x15C SWAP2 SWAP1 PUSH2 0x109F JUMP JUMPDEST PUSH1 0x40 MLOAD DUP1 SWAP2 SUB SWAP1 RETURN JUMPDEST PUSH2 0x17F PUSH1 0x4 DUP1 CALLDATASIZE SUB DUP2 ADD SWAP1 PUSH2 0x17A SWAP2 SWAP1 PUSH2 0x10B8 JUMP JUMPDEST PUSH2 0x81E JUMP JUMPDEST STOP JUMPDEST PUSH2 0x19B PUSH1 0x4 DUP1 CALLDATASIZE SUB DUP2 ADD SWAP1 PUSH2 0x196 SWAP2 SWAP1 PUSH2 0x10E3 JUMP JUMPDEST PUSH2 0x9A0 JUMP JUMPDEST PUSH1 0x40 MLOAD PUSH2 0x1A8 SWAP2 SWAP1 PUSH2 0x101B JUMP JUMPDEST PUSH1 0x40 MLOAD DUP1 SWAP2 SUB SWAP1 RETURN JUMPDEST PUSH2 0x1B9 PUSH2 0x9E5 JUMP JUMPDEST PUSH1 0x40 MLOAD PUSH2 0x1C6 SWAP2 SWAP1 PUSH2 0xEEA JUMP JUMPDEST PUSH1 0x40 MLOAD DUP1 SWAP2 SUB SWAP1 RETURN JUMPDEST PUSH2 0x1E9 PUSH1 0x4 DUP1 CALLDATASIZE SUB DUP2 ADD SWAP1 PUSH2 0x1E4 SWAP2 SWAP1 PUSH2 0x10B8 JUMP JUMPDEST PUSH2 0xA75 JUMP JUMPDEST STOP JUMPDEST PUSH2 0x205 PUSH1 0x4 DUP1 CALLDATASIZE SUB DUP2 ADD SWAP1 PUSH2 0x200 SWAP2 SWAP1 PUSH2 0xF9B JUMP JUMPDEST PUSH2 0xBF7 JUMP JUMPDEST PUSH1 0x40 MLOAD PUSH2 0x212 SWAP2 SWAP1 PUSH2 0xFF3 JUMP JUMPDEST PUSH1 0x40 MLOAD DUP1 SWAP2 SUB SWAP1 RETURN JUMPDEST PUSH2 0x235 PUSH1 0x4 DUP1 CALLDATASIZE SUB DUP2 ADD SWAP1 PUSH2 0x230 SWAP2 SWAP1 PUSH2 0x110E JUMP JUMPDEST PUSH2 0xDF8 JUMP JUMPDEST PUSH1 0x40 MLOAD PUSH2 0x242 SWAP2 SWAP1 PUSH2 0x101B JUMP JUMPDEST PUSH1 0x40 MLOAD DUP1 SWAP2 SUB SWAP1 RETURN JUMPDEST PUSH1 0x60 PUSH1 0x3 DUP1 SLOAD PUSH2 0x25A SWAP1 PUSH2 0x1179 JUMP JUMPDEST DUP1 PUSH1 0x1F ADD PUSH1 0x20 DUP1 SWAP2 DIV MUL PUSH1 0x20 ADD PUSH1 0x40 MLOAD SWAP1 DUP2 ADD PUSH1 0x40 MSTORE DUP1 SWAP3 SWAP2 SWAP1 DUP2 DUP2 MSTORE PUSH1 0x20 ADD DUP3 DUP1 SLOAD PUSH2 0x286 SWAP1 PUSH2 0x1179 JUMP JUMPDEST DUP1 ISZERO PUSH2 0x2D1 JUMPI DUP1 PUSH1 0x1F LT PUSH2 0x2A8 JUMPI PUSH2 0x100 DUP1 DUP4 SLOAD DIV MUL DUP4 MSTORE SWAP2 PUSH1 0x20 ADD SWAP2 PUSH2 0x2D1 JUMP JUMPDEST DUP3 ADD SWAP2 SWAP1 PUSH0 MSTORE PUSH1 0x20 PUSH0 KECCAK256 SWAP1 JUMPDEST DUP2 SLOAD DUP2 MSTORE SWAP1 PUSH1 0x1 ADD SWAP1 PUSH1 0x20 ADD DUP1 DUP4 GT PUSH2 0x2B4 JUMPI DUP3 SWAP1 SUB PUSH1 0x1F AND DUP3 ADD SWAP2 JUMPDEST POP POP POP POP POP SWAP1 POP SWAP1 JUMP JUMPDEST PUSH0 DUP3 PUSH20 0xFFFFFFFFFFFFFFFFFFFFFFFFFFFFFFFFFFFFFFFF AND PUSH0 PUSH20 0xFFFFFFFFFFFFFFFFFFFFFFFFFFFFFFFFFFFFFFFF AND SUB PUSH2 0x34A JUMPI PUSH1 0x40 MLOAD PUSH32 0x8C379A000000000000000000000000000000000000000000000000000000000 DUP2 MSTORE PUSH1 0x4 ADD PUSH2 0x341 SWAP1 PUSH2 0x11F3 JUMP JUMPDEST PUSH1 0x40 MLOAD DUP1 SWAP2 SUB SWAP1 REVERT JUMPDEST DUP2 PUSH0 PUSH0 CALLER PUSH20 0xFFFFFFFFFFFFFFFFFFFFFFFFFFFFFFFFFFFFFFFF AND PUSH20 0xFFFFFFFFFFFFFFFFFFFFFFFFFFFFFFFFFFFFFFFF AND DUP2 MSTORE PUSH1 0x20 ADD SWAP1 DUP2 MSTORE PUSH1 0x20 ADD PUSH0 KECCAK256 SLOAD LT ISZERO PUSH2 0x3C9 JUMPI PUSH1 0x40 MLOAD PUSH32 0x8C379A000000000000000000000000000000000000000000000000000000000 DUP2 MSTORE PUSH1 0x4 ADD PUSH2 0x3C0 SWAP1 PUSH2 0x125B JUMP JUMPDEST PUSH1 0x40 MLOAD DUP1 SWAP2 SUB SWAP1 REVERT JUMPDEST DUP2 PUSH1 0x6 PUSH0 CALLER PUSH20 0xFFFFFFFFFFFFFFFFFFFFFFFFFFFFFFFFFFFFFFFF AND PUSH20 0xFFFFFFFFFFFFFFFFFFFFFFFFFFFFFFFFFFFFFFFF AND DUP2 MSTORE PUSH1 0x20 ADD SWAP1 DUP2 MSTORE PUSH1 0x20 ADD PUSH0 KECCAK256 PUSH0 DUP6 PUSH20 0xFFFFFFFFFFFFFFFFFFFFFFFFFFFFFFFFFFFFFFFF AND PUSH20 0xFFFFFFFFFFFFFFFFFFFFFFFFFFFFFFFFFFFFFFFF AND DUP2 MSTORE PUSH1 0x20 ADD SWAP1 DUP2 MSTORE PUSH1 0x20 ADD PUSH0 KECCAK256 DUP2 SWAP1 SSTORE POP DUP3 PUSH20 0xFFFFFFFFFFFFFFFFFFFFFFFFFFFFFFFFFFFFFFFF AND CALLER PUSH20 0xFFFFFFFFFFFFFFFFFFFFFFFFFFFFFFFFFFFFFFFF AND PUSH32 0x8C5BE1E5EBEC7D5BD14F71427D1E84F3DD0314C0F7B2291E5B200AC8C7C3B925 DUP5 PUSH1 0x40 MLOAD PUSH2 0x4A3 SWAP2 SWAP1 PUSH2 0x101B JUMP JUMPDEST PUSH1 0x40 MLOAD DUP1 SWAP2 SUB SWAP1 LOG3 PUSH1 0x1 SWAP1 POP SWAP3 SWAP2 POP POP JUMP JUMPDEST PUSH0 PUSH1 0x2 SLOAD SWAP1 POP SWAP1 JUMP JUMPDEST PUSH0 DUP2 PUSH0 PUSH0 DUP7 PUSH20 0xFFFFFFFFFFFFFFFFFFFFFFFFFFFFFFFFFFFFFFFF AND PUSH20 0xFFFFFFFFFFFFFFFFFFFFFFFFFFFFFFFFFFFFFFFF AND DUP2 MSTORE PUSH1 0x20 ADD SWAP1 DUP2 MSTORE PUSH1 0x20 ADD PUSH0 KECCAK256 SLOAD LT ISZERO PUSH2 0x53E JUMPI PUSH1 0x40 MLOAD PUSH32 0x8C379A000000000000000000000000000000000000000000000000000000000 DUP2 MSTORE PUSH1 0x4 ADD PUSH2 0x535 SWAP1 PUSH2 0x125B JUMP JUMPDEST PUSH1 0x40 MLOAD DUP1 SWAP2 SUB SWAP1 REVERT JUMPDEST DUP2 PUSH1 0x6 PUSH0 DUP7 PUSH20 0xFFFFFFFFFFFFFFFFFFFFFFFFFFFFFFFFFFFFFFFF AND PUSH20 0xFFFFFFFFFFFFFFFFFFFFFFFFFFFFFFFFFFFFFFFF AND DUP2 MSTORE PUSH1 0x20 ADD SWAP1 DUP2 MSTORE PUSH1 0x20 ADD PUSH0 KECCAK256 PUSH0 CALLER PUSH20 0xFFFFFFFFFFFFFFFFFFFFFFFFFFFFFFFFFFFFFFFF AND PUSH20 0xFFFFFFFFFFFFFFFFFFFFFFFFFFFFFFFFFFFFFFFF AND DUP2 MSTORE PUSH1 0x20 ADD SWAP1 DUP2 MSTORE PUSH1 0x20 ADD PUSH0 KECCAK256 SLOAD LT ISZERO PUSH2 0x5F9 JUMPI PUSH1 0x40 MLOAD PUSH32 0x8C379A000000000000000000000000000000000000000000000000000000000 DUP2 MSTORE PUSH1 0x4 ADD PUSH2 0x5F0 SWAP1 PUSH2 0x12C3 JUMP JUMPDEST PUSH1 0x40 MLOAD DUP1 SWAP2 SUB SWAP1 REVERT JUMPDEST DUP3 PUSH20 0xFFFFFFFFFFFFFFFFFFFFFFFFFFFFFFFFFFFFFFFF AND PUSH0 PUSH20 0xFFFFFFFFFFFFFFFFFFFFFFFFFFFFFFFFFFFFFFFF AND SUB PUSH2 0x667 JUMPI PUSH1 0x40 MLOAD PUSH32 0x8C379A000000000000000000000000000000000000000000000000000000000 DUP2 MSTORE PUSH1 0x4 ADD PUSH2 0x65E SWAP1 PUSH2 0x11F3 JUMP JUMPDEST PUSH1 0x40 MLOAD DUP1 SWAP2 SUB SWAP1 REVERT JUMPDEST DUP2 PUSH0 PUSH0 DUP7 PUSH20 0xFFFFFFFFFFFFFFFFFFFFFFFFFFFFFFFFFFFFFFFF AND PUSH20 0xFFFFFFFFFFFFFFFFFFFFFFFFFFFFFFFFFFFFFFFF AND DUP2 MSTORE PUSH1 0x20 ADD SWAP1 DUP2 MSTORE PUSH1 0x20 ADD PUSH0 KECCAK256 PUSH0 DUP3 DUP3 SLOAD PUSH2 0x6B2 SWAP2 SWAP1 PUSH2 0x130E JUMP JUMPDEST SWAP3 POP POP DUP2 SWAP1 SSTORE POP DUP2 PUSH0 PUSH0 DUP6 PUSH20 0xFFFFFFFFFFFFFFFFFFFFFFFFFFFFFFFFFFFFFFFF AND PUSH20 0xFFFFFFFFFFFFFFFFFFFFFFFFFFFFFFFFFFFFFFFF AND DUP2 MSTORE PUSH1 0x20 ADD SWAP1 DUP2 MSTORE PUSH1 0x20 ADD PUSH0 KECCAK256 PUSH0 DUP3 DUP3 SLOAD PUSH2 0x704 SWAP2 SWAP1 PUSH2 0x1341 JUMP JUMPDEST SWAP3 POP POP DUP2 SWAP1 SSTORE POP DUP2 PUSH1 0x6 PUSH0 DUP7 PUSH20 0xFFFFFFFFFFFFFFFFFFFFFFFFFFFFFFFFFFFFFFFF AND PUSH20 0xFFFFFFFFFFFFFFFFFFFFFFFFFFFFFFFFFFFFFFFF AND DUP2 MSTORE PUSH1 0x20 ADD SWAP1 DUP2 MSTORE PUSH1 0x20 ADD PUSH0 KECCAK256 PUSH0 CALLER PUSH20 0xFFFFFFFFFFFFFFFFFFFFFFFFFFFFFFFFFFFFFFFF AND PUSH20 0xFFFFFFFFFFFFFFFFFFFFFFFFFFFFFFFFFFFFFFFF AND DUP2 MSTORE PUSH1 0x20 ADD SWAP1 DUP2 MSTORE PUSH1 0x20 ADD PUSH0 KECCAK256 PUSH0 DUP3 DUP3 SLOAD PUSH2 0x792 SWAP2 SWAP1 PUSH2 0x130E JUMP JUMPDEST SWAP3 POP POP DUP2 SWAP1 SSTORE POP DUP3 PUSH20 0xFFFFFFFFFFFFFFFFFFFFFFFFFFFFFFFFFFFFFFFF AND DUP5 PUSH20 0xFFFFFFFFFFFFFFFFFFFFFFFFFFFFFFFFFFFFFFFF AND PUSH32 0xDDF252AD1BE2C89B69C2B068FC378DAA952BA7F163C4A11628F55A4DF523B3EF DUP5 PUSH1 0x40 MLOAD PUSH2 0x7F6 SWAP2 SWAP1 PUSH2 0x101B JUMP JUMPDEST PUSH1 0x40 MLOAD DUP1 SWAP2 SUB SWAP1 LOG3 PUSH1 0x1 SWAP1 POP SWAP4 SWAP3 POP POP POP JUMP JUMPDEST PUSH0 PUSH1 0x5 PUSH0 SWAP1 SLOAD SWAP1 PUSH2 0x100 EXP SWAP1 DIV PUSH1 0xFF AND SWAP1 POP SWAP1 JUMP JUMPDEST CALLER PUSH20 0xFFFFFFFFFFFFFFFFFFFFFFFFFFFFFFFFFFFFFFFF AND PUSH1 0x1 PUSH0 SWAP1 SLOAD SWAP1 PUSH2 0x100 EXP SWAP1 DIV PUSH20 0xFFFFFFFFFFFFFFFFFFFFFFFFFFFFFFFFFFFFFFFF AND PUSH20 0xFFFFFFFFFFFFFFFFFFFFFFFFFFFFFFFFFFFFFFFF AND EQ PUSH2 0x8AD JUMPI PUSH1 0x40 MLOAD PUSH32 0x8C379A000000000000000000000000000000000000000000000000000000000 DUP2 MSTORE PUSH1 0x4 ADD PUSH2 0x8A4 SWAP1 PUSH2 0x13BE JUMP JUMPDEST PUSH1 0x40 MLOAD DUP1 SWAP2 SUB SWAP1 REVERT JUMPDEST DUP1 PUSH0 PUSH0 PUSH1 0x1 PUSH0 SWAP1 SLOAD SWAP1 PUSH2 0x100 EXP SWAP1 DIV PUSH20 0xFFFFFFFFFFFFFFFFFFFFFFFFFFFFFFFFFFFFFFFF AND PUSH20 0xFFFFFFFFFFFFFFFFFFFFFFFFFFFFFFFFFFFFFFFF AND PUSH20 0xFFFFFFFFFFFFFFFFFFFFFFFFFFFFFFFFFFFFFFFF AND DUP2 MSTORE PUSH1 0x20 ADD SWAP1 DUP2 MSTORE PUSH1 0x20 ADD PUSH0 KECCAK256 PUSH0 DUP3 DUP3 SLOAD PUSH2 0x919 SWAP2 SWAP1 PUSH2 0x130E JUMP JUMPDEST SWAP3 POP POP DUP2 SWAP1 SSTORE POP DUP1 PUSH1 0x2 PUSH0 DUP3 DUP3 SLOAD PUSH2 0x931 SWAP2 SWAP1 PUSH2 0x130E JUMP JUMPDEST SWAP3 POP POP DUP2 SWAP1 SSTORE POP PUSH0 PUSH20 0xFFFFFFFFFFFFFFFFFFFFFFFFFFFFFFFFFFFFFFFF AND CALLER PUSH20 0xFFFFFFFFFFFFFFFFFFFFFFFFFFFFFFFFFFFFFFFF AND PUSH32 0xDDF252AD1BE2C89B69C2B068FC378DAA952BA7F163C4A11628F55A4DF523B3EF DUP4 PUSH1 0x40 MLOAD PUSH2 0x995 SWAP2 SWAP1 PUSH2 0x101B JUMP JUMPDEST PUSH1 0x40 MLOAD DUP1 SWAP2 SUB SWAP1 LOG3 POP JUMP JUMPDEST PUSH0 PUSH0 PUSH0 DUP4 PUSH20 0xFFFFFFFFFFFFFFFFFFFFFFFFFFFFFFFFFFFFFFFF AND PUSH20 0xFFFFFFFFFFFFFFFFFFFFFFFFFFFFFFFFFFFFFFFF AND DUP2 MSTORE PUSH1 0x20 ADD SWAP1 DUP2 MSTORE PUSH1 0x20 ADD PUSH0 KECCAK256 SLOAD SWAP1 POP SWAP2 SWAP1 POP JUMP JUMPDEST PUSH1 0x60 PUSH1 0x4 DUP1 SLOAD PUSH2 0x9F4 SWAP1 PUSH2 0x1179 JUMP JUMPDEST DUP1 PUSH1 0x1F ADD PUSH1 0x20 DUP1 SWAP2 DIV MUL PUSH1 0x20 ADD PUSH1 0x40 MLOAD SWAP1 DUP2 ADD PUSH1 0x40 MSTORE DUP1 SWAP3 SWAP2 SWAP1 DUP2 DUP2 MSTORE PUSH1 0x20 ADD DUP3 DUP1 SLOAD PUSH2 0xA20 SWAP1 PUSH2 0x1179 JUMP JUMPDEST DUP1 ISZERO PUSH2 0xA6B JUMPI DUP1 PUSH1 0x1F LT PUSH2 0xA42 JUMPI PUSH2 0x100 DUP1 DUP4 SLOAD DIV MUL DUP4 MSTORE SWAP2 PUSH1 0x20 ADD SWAP2 PUSH2 0xA6B JUMP JUMPDEST DUP3 ADD SWAP2 SWAP1 PUSH0 MSTORE PUSH1 0x20 PUSH0 KECCAK256 SWAP1 JUMPDEST DUP2 SLOAD DUP2 MSTORE SWAP1 PUSH1 0x1 ADD SWAP1 PUSH1 0x20 ADD DUP1 DUP4 GT PUSH2 0xA4E JUMPI DUP3 SWAP1 SUB PUSH1 0x1F AND DUP3 ADD SWAP2 JUMPDEST POP POP POP POP POP SWAP1 POP SWAP1 JUMP JUMPDEST CALLER PUSH20 0xFFFFFFFFFFFFFFFFFFFFFFFFFFFFFFFFFFFFFFFF AND PUSH1 0x1 PUSH0 SWAP1 SLOAD SWAP1 PUSH2 0x100 EXP SWAP1 DIV PUSH20 0xFFFFFFFFFFFFFFFFFFFFFFFFFFFFFFFFFFFFFFFF AND PUSH20 0xFFFFFFFFFFFFFFFFFFFFFFFFFFFFFFFFFFFFFFFF AND EQ PUSH2 0xB04 JUMPI PUSH1 0x40 MLOAD PUSH32 0x8C379A000000000000000000000000000000000000000000000000000000000 DUP2 MSTORE PUSH1 0x4 ADD PUSH2 0xAFB SWAP1 PUSH2 0x13BE JUMP JUMPDEST PUSH1 0x40 MLOAD DUP1 SWAP2 SUB SWAP1 REVERT JUMPDEST DUP1 PUSH0 PUSH0 PUSH1 0x1 PUSH0 SWAP1 SLOAD SWAP1 PUSH2 0x100 EXP SWAP1 DIV PUSH20 0xFFFFFFFFFFFFFFFFFFFFFFFFFFFFFFFFFFFFFFFF AND PUSH20 0xFFFFFFFFFFFFFFFFFFFFFFFFFFFFFFFFFFFFFFFF AND PUSH20 0xFFFFFFFFFFFFFFFFFFFFFFFFFFFFFFFFFFFFFFFF AND DUP2 MSTORE PUSH1 0x20 ADD SWAP1 DUP2 MSTORE PUSH1 0x20 ADD PUSH0 KECCAK256 PUSH0 DUP3 DUP3 SLOAD PUSH2 0xB70 SWAP2 SWAP1 PUSH2 0x1341 JUMP JUMPDEST SWAP3 POP POP DUP2 SWAP1 SSTORE POP CALLER PUSH20 0xFFFFFFFFFFFFFFFFFFFFFFFFFFFFFFFFFFFFFFFF AND PUSH0 PUSH20 0xFFFFFFFFFFFFFFFFFFFFFFFFFFFFFFFFFFFFFFFF AND PUSH32 0xDDF252AD1BE2C89B69C2B068FC378DAA952BA7F163C4A11628F55A4DF523B3EF DUP4 PUSH1 0x40 MLOAD PUSH2 0xBD4 SWAP2 SWAP1 PUSH2 0x101B JUMP JUMPDEST PUSH1 0x40 MLOAD DUP1 SWAP2 SUB SWAP1 LOG3 DUP1 PUSH1 0x2 PUSH0 DUP3 DUP3 SLOAD PUSH2 0xBED SWAP2 SWAP1 PUSH2 0x130E JUMP JUMPDEST SWAP3 POP POP DUP2 SWAP1 SSTORE POP POP JUMP JUMPDEST PUSH0 DUP2 PUSH0 PUSH0 CALLER PUSH20 0xFFFFFFFFFFFFFFFFFFFFFFFFFFFFFFFFFFFFFFFF AND PUSH20 0xFFFFFFFFFFFFFFFFFFFFFFFFFFFFFFFFFFFFFFFF AND DUP2 MSTORE PUSH1 0x20 ADD SWAP1 DUP2 MSTORE PUSH1 0x20 ADD PUSH0 KECCAK256 SLOAD LT ISZERO PUSH2 0xC77 JUMPI PUSH1 0x40 MLOAD PUSH32 0x8C379A000000000000000000000000000000000000000000000000000000000 DUP2 MSTORE PUSH1 0x4 ADD PUSH2 0xC6E SWAP1 PUSH2 0x125B JUMP JUMPDEST PUSH1 0x40 MLOAD DUP1 SWAP2 SUB SWAP1 REVERT JUMPDEST DUP3 PUSH20 0xFFFFFFFFFFFFFFFFFFFFFFFFFFFFFFFFFFFFFFFF AND PUSH0 PUSH20 0xFFFFFFFFFFFFFFFFFFFFFFFFFFFFFFFFFFFFFFFF AND SUB PUSH2 0xCE5 JUMPI PUSH1 0x40 MLOAD PUSH32 0x8C379A000000000000000000000000000000000000000000000000000000000 DUP2 MSTORE PUSH1 0x4 ADD PUSH2 0xCDC SWAP1 PUSH2 0x11F3 JUMP JUMPDEST PUSH1 0x40 MLOAD DUP1 SWAP2 SUB SWAP1 REVERT JUMPDEST DUP2 PUSH0 PUSH0 CALLER PUSH20 0xFFFFFFFFFFFFFFFFFFFFFFFFFFFFFFFFFFFFFFFF AND PUSH20 0xFFFFFFFFFFFFFFFFFFFFFFFFFFFFFFFFFFFFFFFF AND DUP2 MSTORE PUSH1 0x20 ADD SWAP1 DUP2 MSTORE PUSH1 0x20 ADD PUSH0 KECCAK256 PUSH0 DUP3 DUP3 SLOAD PUSH2 0xD30 SWAP2 SWAP1 PUSH2 0x130E JUMP JUMPDEST SWAP3 POP POP DUP2 SWAP1 SSTORE POP DUP2 PUSH0 PUSH0 DUP6 PUSH20 0xFFFFFFFFFFFFFFFFFFFFFFFFFFFFFFFFFFFFFFFF AND PUSH20 0xFFFFFFFFFFFFFFFFFFFFFFFFFFFFFFFFFFFFFFFF AND DUP2 MSTORE PUSH1 0x20 ADD SWAP1 DUP2 MSTORE PUSH1 0x20 ADD PUSH0 KECCAK256 PUSH0 DUP3 DUP3 SLOAD PUSH2 0xD82 SWAP2 SWAP1 PUSH2 0x1341 JUMP JUMPDEST SWAP3 POP POP DUP2 SWAP1 SSTORE POP DUP3 PUSH20 0xFFFFFFFFFFFFFFFFFFFFFFFFFFFFFFFFFFFFFFFF AND CALLER PUSH20 0xFFFFFFFFFFFFFFFFFFFFFFFFFFFFFFFFFFFFFFFF AND PUSH32 0xDDF252AD1BE2C89B69C2B068FC378DAA952BA7F163C4A11628F55A4DF523B3EF DUP5 PUSH1 0x40 MLOAD PUSH2 0xDE6 SWAP2 SWAP1 PUSH2 0x101B JUMP JUMPDEST PUSH1 0x40 MLOAD DUP1 SWAP2 SUB SWAP1 LOG3 PUSH1 0x1 SWAP1 POP SWAP3 SWAP2 POP POP JUMP JUMPDEST PUSH0 PUSH1 0x6 PUSH0 DUP5 PUSH20 0xFFFFFFFFFFFFFFFFFFFFFFFFFFFFFFFFFFFFFFFF AND PUSH20 0xFFFFFFFFFFFFFFFFFFFFFFFFFFFFFFFFFFFFFFFF AND DUP2 MSTORE PUSH1 0x20 ADD SWAP1 DUP2 MSTORE PUSH1 0x20 ADD PUSH0 KECCAK256 PUSH0 DUP4 PUSH20 0xFFFFFFFFFFFFFFFFFFFFFFFFFFFFFFFFFFFFFFFF AND PUSH20 0xFFFFFFFFFFFFFFFFFFFFFFFFFFFFFFFFFFFFFFFF AND DUP2 MSTORE PUSH1 0x20 ADD SWAP1 DUP2 MSTORE PUSH1 0x20 ADD PUSH0 KECCAK256 SLOAD SWAP1 POP SWAP3 SWAP2 POP POP JUMP JUMPDEST PUSH0 DUP2 MLOAD SWAP1 POP SWAP2 SWAP1 POP JUMP JUMPDEST PUSH0 DUP3 DUP3 MSTORE PUSH1 0x20 DUP3 ADD SWAP1 POP SWAP3 SWAP2 POP POP JUMP JUMPDEST DUP3 DUP2 DUP4 MCOPY PUSH0 DUP4 DUP4 ADD MSTORE POP POP POP JUMP JUMPDEST PUSH0 PUSH1 0x1F NOT PUSH1 0x1F DUP4 ADD AND SWAP1 POP SWAP2 SWAP1 POP JUMP JUMPDEST PUSH0 PUSH2 0xEBC DUP3 PUSH2 0xE7A JUMP JUMPDEST PUSH2 0xEC6 DUP2 DUP6 PUSH2 0xE84 JUMP JUMPDEST SWAP4 POP PUSH2 0xED6 DUP2 DUP6 PUSH1 0x20 DUP7 ADD PUSH2 0xE94 JUMP JUMPDEST PUSH2 0xEDF DUP2 PUSH2 0xEA2 JUMP JUMPDEST DUP5 ADD SWAP2 POP POP SWAP3 SWAP2 POP POP JUMP JUMPDEST PUSH0 PUSH1 0x20 DUP3 ADD SWAP1 POP DUP2 DUP2 SUB PUSH0 DUP4 ADD MSTORE PUSH2 0xF02 DUP2 DUP5 PUSH2 0xEB2 JUMP JUMPDEST SWAP1 POP SWAP3 SWAP2 POP POP JUMP JUMPDEST PUSH0 PUSH0 REVERT JUMPDEST PUSH0 PUSH20 0xFFFFFFFFFFFFFFFFFFFFFFFFFFFFFFFFFFFFFFFF DUP3 AND SWAP1 POP SWAP2 SWAP1 POP JUMP JUMPDEST PUSH0 PUSH2 0xF37 DUP3 PUSH2 0xF0E JUMP JUMPDEST SWAP1 POP SWAP2 SWAP1 POP JUMP JUMPDEST PUSH2 0xF47 DUP2 PUSH2 0xF2D JUMP JUMPDEST DUP2 EQ PUSH2 0xF51 JUMPI PUSH0 PUSH0 REVERT JUMPDEST POP JUMP JUMPDEST PUSH0 DUP2 CALLDATALOAD SWAP1 POP PUSH2 0xF62 DUP2 PUSH2 0xF3E JUMP JUMPDEST SWAP3 SWAP2 POP POP JUMP JUMPDEST PUSH0 DUP2 SWAP1 POP SWAP2 SWAP1 POP JUMP JUMPDEST PUSH2 0xF7A DUP2 PUSH2 0xF68 JUMP JUMPDEST DUP2 EQ PUSH2 0xF84 JUMPI PUSH0 PUSH0 REVERT JUMPDEST POP JUMP JUMPDEST PUSH0 DUP2 CALLDATALOAD SWAP1 POP PUSH2 0xF95 DUP2 PUSH2 0xF71 JUMP JUMPDEST SWAP3 SWAP2 POP POP JUMP JUMPDEST PUSH0 PUSH0 PUSH1 0x40 DUP4 DUP6 SUB SLT ISZERO PUSH2 0xFB1 JUMPI PUSH2 0xFB0 PUSH2 0xF0A JUMP JUMPDEST JUMPDEST PUSH0 PUSH2 0xFBE DUP6 DUP3 DUP7 ADD PUSH2 0xF54 JUMP JUMPDEST SWAP3 POP POP PUSH1 0x20 PUSH2 0xFCF DUP6 DUP3 DUP7 ADD PUSH2 0xF87 JUMP JUMPDEST SWAP2 POP POP SWAP3 POP SWAP3 SWAP1 POP JUMP JUMPDEST PUSH0 DUP2 ISZERO ISZERO SWAP1 POP SWAP2 SWAP1 POP JUMP JUMPDEST PUSH2 0xFED DUP2 PUSH2 0xFD9 JUMP JUMPDEST DUP3 MSTORE POP POP JUMP JUMPDEST PUSH0 PUSH1 0x20 DUP3 ADD SWAP1 POP PUSH2 0x1006 PUSH0 DUP4 ADD DUP5 PUSH2 0xFE4 JUMP JUMPDEST SWAP3 SWAP2 POP POP JUMP JUMPDEST PUSH2 0x1015 DUP2 PUSH2 0xF68 JUMP JUMPDEST DUP3 MSTORE POP POP JUMP JUMPDEST PUSH0 PUSH1 0x20 DUP3 ADD SWAP1 POP PUSH2 0x102E PUSH0 DUP4 ADD DUP5 PUSH2 0x100C JUMP JUMPDEST SWAP3 SWAP2 POP POP JUMP JUMPDEST PUSH0 PUSH0 PUSH0 PUSH1 0x60 DUP5 DUP7 SUB SLT ISZERO PUSH2 0x104B JUMPI PUSH2 0x104A PUSH2 0xF0A JUMP JUMPDEST JUMPDEST PUSH0 PUSH2 0x1058 DUP7 DUP3 DUP8 ADD PUSH2 0xF54 JUMP JUMPDEST SWAP4 POP POP PUSH1 0x20 PUSH2 0x1069 DUP7 DUP3 DUP8 ADD PUSH2 0xF54 JUMP JUMPDEST SWAP3 POP POP PUSH1 0x40 PUSH2 0x107A DUP7 DUP3 DUP8 ADD PUSH2 0xF87 JUMP JUMPDEST SWAP2 POP POP SWAP3 POP SWAP3 POP SWAP3 JUMP JUMPDEST PUSH0 PUSH1 0xFF DUP3 AND SWAP1 POP SWAP2 SWAP1 POP JUMP JUMPDEST PUSH2 0x1099 DUP2 PUSH2 0x1084 JUMP JUMPDEST DUP3 MSTORE POP POP JUMP JUMPDEST PUSH0 PUSH1 0x20 DUP3 ADD SWAP1 POP PUSH2 0x10B2 PUSH0 DUP4 ADD DUP5 PUSH2 0x1090 JUMP JUMPDEST SWAP3 SWAP2 POP POP JUMP JUMPDEST PUSH0 PUSH1 0x20 DUP3 DUP5 SUB SLT ISZERO PUSH2 0x10CD JUMPI PUSH2 0x10CC PUSH2 0xF0A JUMP JUMPDEST JUMPDEST PUSH0 PUSH2 0x10DA DUP5 DUP3 DUP6 ADD PUSH2 0xF87 JUMP JUMPDEST SWAP2 POP POP SWAP3 SWAP2 POP POP JUMP JUMPDEST PUSH0 PUSH1 0x20 DUP3 DUP5 SUB SLT ISZERO PUSH2 0x10F8 JUMPI PUSH2 0x10F7 PUSH2 0xF0A JUMP JUMPDEST JUMPDEST PUSH0 PUSH2 0x1105 DUP5 DUP3 DUP6 ADD PUSH2 0xF54 JUMP JUMPDEST SWAP2 POP POP SWAP3 SWAP2 POP POP JUMP JUMPDEST PUSH0 PUSH0 PUSH1 0x40 DUP4 DUP6 SUB SLT ISZERO PUSH2 0x1124 JUMPI PUSH2 0x1123 PUSH2 0xF0A JUMP JUMPDEST JUMPDEST PUSH0 PUSH2 0x1131 DUP6 DUP3 DUP7 ADD PUSH2 0xF54 JUMP JUMPDEST SWAP3 POP POP PUSH1 0x20 PUSH2 0x1142 DUP6 DUP3 DUP7 ADD PUSH2 0xF54 JUMP JUMPDEST SWAP2 POP POP SWAP3 POP SWAP3 SWAP1 POP JUMP JUMPDEST PUSH32 0x4E487B7100000000000000000000000000000000000000000000000000000000 PUSH0 MSTORE PUSH1 0x22 PUSH1 0x4 MSTORE PUSH1 0x24 PUSH0 REVERT JUMPDEST PUSH0 PUSH1 0x2 DUP3 DIV SWAP1 POP PUSH1 0x1 DUP3 AND DUP1 PUSH2 0x1190 JUMPI PUSH1 0x7F DUP3 AND SWAP2 POP JUMPDEST PUSH1 0x20 DUP3 LT DUP2 SUB PUSH2 0x11A3 JUMPI PUSH2 0x11A2 PUSH2 0x114C JUMP JUMPDEST JUMPDEST POP SWAP2 SWAP1 POP JUMP JUMPDEST PUSH32 0x496E76616C696420616464726573730000000000000000000000000000000000 PUSH0 DUP3 ADD MSTORE POP JUMP JUMPDEST PUSH0 PUSH2 0x11DD PUSH1 0xF DUP4 PUSH2 0xE84 JUMP JUMPDEST SWAP2 POP PUSH2 0x11E8 DUP3 PUSH2 0x11A9 JUMP JUMPDEST PUSH1 0x20 DUP3 ADD SWAP1 POP SWAP2 SWAP1 POP JUMP JUMPDEST PUSH0 PUSH1 0x20 DUP3 ADD SWAP1 POP DUP2 DUP2 SUB PUSH0 DUP4 ADD MSTORE PUSH2 0x120A DUP2 PUSH2 0x11D1 JUMP JUMPDEST SWAP1 POP SWAP2 SWAP1 POP JUMP JUMPDEST PUSH32 0x496E73756666696369656E742062616C616E6365000000000000000000000000 PUSH0 DUP3 ADD MSTORE POP JUMP JUMPDEST PUSH0 PUSH2 0x1245 PUSH1 0x14 DUP4 PUSH2 0xE84 JUMP JUMPDEST SWAP2 POP PUSH2 0x1250 DUP3 PUSH2 0x1211 JUMP JUMPDEST PUSH1 0x20 DUP3 ADD SWAP1 POP SWAP2 SWAP1 POP JUMP JUMPDEST PUSH0 PUSH1 0x20 DUP3 ADD SWAP1 POP DUP2 DUP2 SUB PUSH0 DUP4 ADD MSTORE PUSH2 0x1272 DUP2 PUSH2 0x1239 JUMP JUMPDEST SWAP1 POP SWAP2 SWAP1 POP JUMP JUMPDEST PUSH32 0x496E73756666696369656E7420616C6C6F77616E636500000000000000000000 PUSH0 DUP3 ADD MSTORE POP JUMP JUMPDEST PUSH0 PUSH2 0x12AD PUSH1 0x16 DUP4 PUSH2 0xE84 JUMP JUMPDEST SWAP2 POP PUSH2 0x12B8 DUP3 PUSH2 0x1279 JUMP JUMPDEST PUSH1 0x20 DUP3 ADD SWAP1 POP SWAP2 SWAP1 POP JUMP JUMPDEST PUSH0 PUSH1 0x20 DUP3 ADD SWAP1 POP DUP2 DUP2 SUB PUSH0 DUP4 ADD MSTORE PUSH2 0x12DA DUP2 PUSH2 0x12A1 JUMP JUMPDEST SWAP1 POP SWAP2 SWAP1 POP JUMP JUMPDEST PUSH32 0x4E487B7100000000000000000000000000000000000000000000000000000000 PUSH0 MSTORE PUSH1 0x11 PUSH1 0x4 MSTORE PUSH1 0x24 PUSH0 REVERT JUMPDEST PUSH0 PUSH2 0x1318 DUP3 PUSH2 0xF68 JUMP JUMPDEST SWAP2 POP PUSH2 0x1323 DUP4 PUSH2 0xF68 JUMP JUMPDEST SWAP3 POP DUP3 DUP3 SUB SWAP1 POP DUP2 DUP2 GT ISZERO PUSH2 0x133B JUMPI PUSH2 0x133A PUSH2 0x12E1 JUMP JUMPDEST JUMPDEST SWAP3 SWAP2 POP POP JUMP JUMPDEST PUSH0 PUSH2 0x134B DUP3 PUSH2 0xF68 JUMP JUMPDEST SWAP2 POP PUSH2 0x1356 DUP4 PUSH2 0xF68 JUMP JUMPDEST SWAP3 POP DUP3 DUP3 ADD SWAP1 POP DUP1 DUP3 GT ISZERO PUSH2 0x136E JUMPI PUSH2 0x136D PUSH2 0x12E1 JUMP JUMPDEST JUMPDEST SWAP3 SWAP2 POP POP JUMP JUMPDEST PUSH32 0x596F7520617265206E6F74206F776E6572000000000000000000000000000000 PUSH0 DUP3 ADD MSTORE POP JUMP JUMPDEST PUSH0 PUSH2 0x13A8 PUSH1 0x11 DUP4 PUSH2 0xE84 JUMP JUMPDEST SWAP2 POP PUSH2 0x13B3 DUP3 PUSH2 0x1374 JUMP JUMPDEST PUSH1 0x20 DUP3 ADD SWAP1 POP SWAP2 SWAP1 POP JUMP JUMPDEST PUSH0 PUSH1 0x20 DUP3 ADD SWAP1 POP DUP2 DUP2 SUB PUSH0 DUP4 ADD MSTORE PUSH2 0x13D5 DUP2 PUSH2 0x139C JUMP JUMPDEST SWAP1 POP SWAP2 SWAP1 POP JUMP INVALID LOG2 PUSH5 0x6970667358 0x22 SLT KECCAK256 0x2F CALLDATASIZE PUSH18 0x65AE506BAE553A1A53D344E437F609B9C40E CREATE2 COINBASE 0x2A BLOCKHASH MOD 0xA7 PUSH11 0x2C38C3364736F6C634300 ADDMOD 0x1F STOP CALLER "
				},
				"gasEstimates": {
					"creation": {
						"codeDepositCost": "1027600",
						"executionCost": "infinite",
						"totalCost": "infinite"
					},
					"external": {
						"allowance(address,address)": "infinite",
						"approve(address,uint256)": "infinite",
						"balanceOf(address)": "2850",
						"burn(uint256)": "infinite",
						"decimals()": "2562",
						"mint(uint256)": "infinite",
						"name()": "infinite",
						"symbol()": "infinite",
						"totalSupply()": "2477",
						"transfer(address,uint256)": "infinite",
						"transferFrom(address,address,uint256)": "infinite"
					}
				},
				"methodIdentifiers": {
					"allowance(address,address)": "dd62ed3e",
					"approve(address,uint256)": "095ea7b3",
					"balanceOf(address)": "70a08231",
					"burn(uint256)": "42966c68",
					"decimals()": "313ce567",
					"mint(uint256)": "a0712d68",
					"name()": "06fdde03",
					"symbol()": "95d89b41",
					"totalSupply()": "18160ddd",
					"transfer(address,uint256)": "a9059cbb",
					"transferFrom(address,address,uint256)": "23b872dd"
				}
			},
			"storageLayout": {
				"storage": [
					{
						"astId": 5,
						"contract": "cryptoErcConcept.sol:UjjwalCoin",
						"label": "balances",
						"offset": 0,
						"slot": "0",
						"type": "t_mapping(t_address,t_uint256)"
					},
					{
						"astId": 7,
						"contract": "cryptoErcConcept.sol:UjjwalCoin",
						"label": "owner",
						"offset": 0,
						"slot": "1",
						"type": "t_address"
					},
					{
						"astId": 9,
						"contract": "cryptoErcConcept.sol:UjjwalCoin",
						"label": "_totalSupply",
						"offset": 0,
						"slot": "2",
						"type": "t_uint256"
					},
					{
						"astId": 11,
						"contract": "cryptoErcConcept.sol:UjjwalCoin",
						"label": "_name",
						"offset": 0,
						"slot": "3",
						"type": "t_string_storage"
					},
					{
						"astId": 13,
						"contract": "cryptoErcConcept.sol:UjjwalCoin",
						"label": "_symbol",
						"offset": 0,
						"slot": "4",
						"type": "t_string_storage"
					},
					{
						"astId": 15,
						"contract": "cryptoErcConcept.sol:UjjwalCoin",
						"label": "_decimals",
						"offset": 0,
						"slot": "5",
						"type": "t_uint8"
					},
					{
						"astId": 21,
						"contract": "cryptoErcConcept.sol:UjjwalCoin",
						"label": "allowed",
						"offset": 0,
						"slot": "6",
						"type": "t_mapping(t_address,t_mapping(t_address,t_uint256))"
					}
				],
				"types": {
					"t_address": {
						"encoding": "inplace",
						"label": "address",
						"numberOfBytes": "20"
					},
					"t_mapping(t_address,t_mapping(t_address,t_uint256))": {
						"encoding": "mapping",
						"key": "t_address",
						"label": "mapping(address => mapping(address => uint256))",
						"numberOfBytes": "32",
						"value": "t_mapping(t_address,t_uint256)"
					},
					"t_mapping(t_address,t_uint256)": {
						"encoding": "mapping",
						"key": "t_address",
						"label": "mapping(address => uint256)",
						"numberOfBytes": "32",
						"value": "t_uint256"
					},
					"t_string_storage": {
						"encoding": "bytes",
						"label": "string",
						"numberOfBytes": "32"
					},
					"t_uint256": {
						"encoding": "inplace",
						"label": "uint256",
						"numberOfBytes": "32"
					},
					"t_uint8": {
						"encoding": "inplace",
						"label": "uint8",
						"numberOfBytes": "1"
					}
				}
			},
			"userdoc": {
				"kind": "user",
				"methods": {},
				"version": 1
			}
		}
	}
}